:020000040800F2
:100000000080002039B20008251100082D110008D9
:10001000351100083D1100084511000800000000DE
:100020000000000000000000000000004D1100086A
:100030005B1100080000000069110008771100083A
:1000400089B2000889B2000889B2000889B20008A4
:1000500089B2000889B2000889B2000889B2000894
:1000600089B2000889B2000889B2000889B2000884
:1000700089B2000889B2000889B2000889B2000874
:1000800089B2000889B2000889B2000800000000A7
:1000900000000000000000000000000089B200081D
:1000A00089B2000889B2000889B2000889B2000844
:1000B00089B20008000000000000000089B20008BA
:1000C00089B2000889B2000889B2000889B2000824
:1000D0008511000889B2000889B2000889B20008B9
:1000E00089B2000889B2000800000000000000008A
:1000F0000000000000000000000000000000000000
:1001000000000000000000000000000000000000EF
:10011000000000000000000089B20008000000009C
:1001200089B2000889B2000889B2000889B20008C3
:1001300089B200080000000000000000000000007C
:1001400089B2000889B2000889B200089911000834
:1001500089B2000889B2000889B2000889B2000893
:1001600089B2000889B20008000000000000000009
:100170000000000089B2000800000000000000003C
:0C01800089B2000889B2000889B20008AA
:1001900010B5054C237833B9044B13B10448AFF3C1
:1001A00000800123237010BD6C01002000000000BE
:1001B000E0BB000808B5034B1BB103490348AFF38C
:1001C000008008BD0000000070010020E0BB0008B6
:1001D00001F0FF01102A2BDB10F0070F08D010F8F8
:1001E000013B013A8B422DD010F0070F42B3F6D1FC
:1001F000F0B441EA012141EA014122F007047FF015
:1002000000070023F0E80256083C85EA010586EA6B
:10021000010685FA47F5A3FA87F586FA47F6A5FAA7
:1002200087F68EB9EED1F0BC01F0FF0102F00702B3
:1002300032B110F8013B013A83EA010313B1F8D15E
:100240000020704701387047002D06BF354603383F
:10025000073815F0010F07D1013015F4807F02BF78
:10026000013015F4C03F0130F0BC0138704700BFC9
:10027000002310B50446C0E90033C0E904338360AD
:1002800081814366C2818361194608225C3000F097
:10029000F4F80D4B63620D4BA3620D4BE3620D4B03
:1002A00023630D4B24629C4206D003F16802944202
:1002B00002D0D0339C4205D104F15800BDE8104073
:1002C00000F04EB910BD00BFF50300081704000888
:1002D0004F0400087304000888010020024A034903
:1002E000034800F069B800BF000000206108000862
:1002F0001000002041680C4B994210B5044601D013
:1003000000F0AEFAA168094B994202D0204600F0F5
:10031000A7FAE168064B994204D02046BDE8104098
:1003200000F09EBA10BD00BF88010020F00100203F
:100330005802002010B50B4B0B4C0C4A1A6020469B
:1003400000220421FFF794FF04F168000122092133
:10035000FFF78EFF04F1D0000222BDE81040122109
:10036000FFF786BFC002002088010020DD020008E0
:10037000014800F0F6B800BFC9020020014800F0B3
:10038000F1B800BFC902002010B50446FFF7F0FF26
:10039000236A1BB1BDE81040FFF7F0BF044B236296
:1003A000044B1B68002BF5D1FFF7C4FFF2E700BF39
:1003B000F5020008C00200202DE9F84307468846F0
:1003C00014460026D4E90195B9F1010905D5246840
:1003D000002CF7D13046BDE8F883AB89012B07D953
:1003E000B5F90E30013303D029463846C0470643DD
:1003F0006835E9E710B50C46B1F90E1000F068F861
:100400000028ABBF636DA3891B1823F48053ACBFD6
:100410006365A38110BD2DE9F0411F468B89DB0583
:1004200005460C46164605D5B1F90E1002230022EA
:1004300000F03CF8A389B4F90E1023F48053A38193
:1004400032463B462846BDE8F04100F053B810B5AF
:100450000C46B1F90E1000F029F8431CA38915BF12
:10046000606523F4805343F48053A38118BFA381B4
:1004700010BDB1F90E1000F009B8024403469342D2
:1004800000D1704703F8011BF9E7000038B5064DAD
:100490000023044608462B600AF099FE431C02D153
:1004A0002B6803B1236038BDC402002038B5074D66
:1004B00004460846114600222A601A460AF0AEFE9B
:1004C000431C02D12B6803B1236038BDC402002055
:1004D00038B5074D04460846114600222A601A46E0
:1004E0000AF058FE431C02D12B6803B1236038BDCB
:1004F000C402002038B5074D0446084611460022C4
:100500002A601A4600F0E4F9431C02D12B6803B1BB
:10051000236038BDC402002070B50D4D0D4C641B26
:10052000A4100026A64209D10B4D0C4C0BF058FB31
:10053000641BA4100026A64205D170BD55F8043BEB
:1005400098470136EEE755F8043B98470136F2E745
:10055000ECBD0008ECBD0008ECBD0008F0BD0008D3
:10056000704770477047000038B50546002941D0F4
:1005700051F8043C0C1F002BB8BFE41800F0E0F861
:100580001D4A136833B9636014602846BDE83840DB
:1005900000F0DCB8A34208D9206821188B4201BFC3
:1005A00019685B6809182160EDE71A465B680BB1B2
:1005B000A342FAD911685018A0420BD12068014417
:1005C000501883421160E0D118685B68536008449A
:1005D0001060DAE702D90C232B60D6E720682118D7
:1005E0008B4204BF19685B68636004BF091821600F
:1005F0005460CAE738BD00BFD002002070B50F4E6E
:100600000C463168054611B900F052F930602146B8
:10061000284600F04DF9431C03D14FF0FF3420462B
:1006200070BDC41C24F00304A042F8D0211A28464F
:1006300000F03EF90130F2D1EFE700BFCC0200201C
:100640002DE9F843CD1C25F0030508350C2D38BFE6
:100650000C25002D064601DBA94204D90C2333608A
:100660000020BDE8F883DFF8D48000F069F8D8F8FE
:1006700000301C4644BB29463046FFF7BFFF431CF1
:10068000044658D1D8F800402746002F43D1002C0B
:100690004BD023683946304604EB030900F008F9D3
:1006A000814542D121686D1A29463046FFF7A6FFE1
:1006B00001303AD023682B442360D8F800305A68C0
:1006C00062BBC8F800700FE02268521B20D40B2ACE
:1006D00017D96119A342256018BF5960636808BF24
:1006E000C8F8001062514B60304600F02FF804F15A
:1006F0000B00231D20F00700C21A1CBF1B1AA350B9
:10070000AFE76268A3420CBFC8F800205A60EBE76D
:1007100023466468AEE73C467F68B6E71A465B68E6
:10072000A342FBD100235360DEE70C233360304645
:1007300000F00CF894E70560D6E700BFD002002077
:100740000148FFF70EBF00BFC80200200148FFF7B5
:1007500009BF00BFC8020020B1F90C202DE9F0410B
:10076000160705460C4654D44B68002B02DC0B6C74
:10077000002B48DDE66A002E45D0002312F480529B
:100780002F68216A2B6030D0626DA389590705D587
:100790006368D21A636B0BB1236CD21A0023E66A2A
:1007A000216A2846B047431CA38906D129681D2920
:1007B0002BD82A4A0A41D60727D400226260D904DE
:1007C0002269226004D5421C01D12B6803B96065FF
:1007D000616B2F60B9B104F14403994202D02846FD
:1007E000FFF7C2FE002363630DE001232846B047F4
:1007F0000246501CC9D12B68002BC6D01D2B01D03E
:10080000162B1ED12F60002022E043F040031BB2C4
:100810001BE00F69002FF6D093070E6808BF4B69E5
:100820000F6018BF0023A6EB07088B60B8F1000F1C
:10083000E9DD216AA66A43463A462846B0470028C1
:1008400008DCB4F90C3043F04003A3814FF0FF30D3
:10085000BDE8F0810744A8EB0008E7E7FEFFBFDF33
:1008600038B50B6905460C4613B90025284638BD36
:1008700018B1036A0BB9FFF787FDB4F90C30002BF0
:10088000F3D0626ED00704D4990502D4A06DFFF7AF
:1008900068FE28462146FFF75FFF636EDA070546CC
:1008A000E4D4A3899B05E1D4A06DFFF75BFEDDE7EF
:1008B00038B5064D0023044608462B600AF034FC88
:1008C000431C02D12B6803B1236038BDC402002051
:1008D00080B584B000AFF860B9607A607B689BB285
:1008E0001946B86800F0A6FF7B6818461037BD4669
:1008F00080BD000080B582B000AF0F211F2000F046
:10090000ADF80521202000F0A9F80521202000F0F5
:10091000A5F8FB1D01221946752000F027F8FB7988
:10092000194603480AF0C2FC00BF0837BD4680BD27
:10093000F8BB000880B582B000AF0346FB71FB79BD
:10094000002B06D100224FF40071074806F054F93D
:1009500005E001224FF40071034806F04DF900BF95
:100960000837BD4680BD00BF0004004880B584B094
:1009700000AF03463960FB711346BB71BB79002B96
:1009800002D12E480AF002FDFB7963F07F03DBB24F
:100990007B730020FFF7CEFF294B1868642307F113
:1009A0000D01012207F0A7FC0346FB73FB7B032B21
:1009B00016D801A252F823F0E1090008C90900087D
:1009C000D1090008D90900081E480AF0DFFC08E038
:1009D0001D480AF0DBFC04E01C480AF0D7FC00E0EC
:1009E00000BF174B1868BB799AB26423396807F0C7
:1009F000F8FD0346BB730120FFF79CFFBB7B032B75
:100A000016D801A252F823F0310A0008190A00088A
:100A1000210A0008290A00080D480AF0B7FC08E07E
:100A20000C480AF0B3FC04E00B480AF0AFFC00E00D
:100A300000BF00BF1037BD4680BD00BF18BC000816
:100A40005C00002030BC000848BC000860BC000806
:100A50007CBC000894BC0008ACBC000880B584B025
:100A600000AF03460A46FB711346BB71FB793B732B
:100A7000BB797B730020FFF75DFF164B186864237A
:100A800007F10C01022207F036FC0346FB7301203C
:100A9000FFF750FFFB7B032B16D801A252F823F07F
:100AA000C90A0008B10A0008B90A0008C10A00080A
:100AB00009480AF06BFC08E008480AF067FC04E00B
:100AC00007480AF063FC00E000BF00BF1037BD46D6
:100AD00080BD00BF5C000020C8BC0008D8BC000876
:100AE000E8BC000880B582B000AF10200AF0CEFB51
:100AF00003467B607B680133012219460C20FFF717
:100B000035FF7B68012219460B20FFF72FFF7B681A
:100B100002330233012219460E20FFF727FF7B68BC
:100B20000233012219460D20FFF720FF7B680433B2
:100B30000233012219461020FFF718FF7B680433A7
:100B4000012219460F20FFF711FF7B68063302339D
:100B5000012219461220FFF709FF7B6806330122A4
:100B600019461120FFF702FF7B6808330233012288
:100B700019461420FFF7FAFE7B6808330122194654
:100B80001320FFF7F3FE7B680A3302330122194674
:100B90001620FFF7EBFE7B680A3301221946152069
:100BA000FFF7E4FE7B680C330233012219460A206A
:100BB000FFF7DCFE7B680C33012219460920FFF7A2
:100BC000D5FE1D480AF072FB7B68B3F90030194668
:100BD0001A480AF06BFB7B68B3F9023019461848D3
:100BE0000AF064FB7B68B3F90430194615480AF033
:100BF0005DFB012004F096FE13480AF057FB7B686A
:100C0000B3F9063019460D480AF050FB7B68B3F97A
:100C1000083019460A480AF049FB7B68B3F90A30E4
:100C200019460A480AF042FB0A200AF051FB7B6889
:100C300018460837BD4680BDF8BC000800BD000856
:100C400008BD000810BD000818BD000820BD000840
:100C500080B582B000AF04F0F1FD00F033F800F091
:100C6000BBF900F085F800F0F9F800F037F900F072
:100C700075F900F0FFFB01224FF480410F4805F0A9
:100C8000BBFF01224FF400710D4805F0B5FFFFF7DF
:100C900031FEC82004F046FE4FF480714FF09040C2
:100CA00005F0C2FFFFF71EFF786078680AF0F6FAD9
:100CB0004FF4FA6004F036FE00BFEAE7000800488F
:100CC0000004004880B596B000AF07F11403442239
:100CD00000211846FFF7D1FB3B4600221A605A60FC
:100CE0009A60DA601A614FF4007006F039F9034631
:100CF000002B01D000F010FA12237B614FF48073B7
:100D00003B6240237B6201233B6300237B63B02370
:100D1000BB6302233B6402237B640123BB640A237D
:100D2000FB6402233B6502237B6507F1140318462D
:100D300004F01CFE0346002B01D000F0EDF90F2358
:100D40003B6003237B600023BB600023FB60002328
:100D50003B613B460421184605F06AFA0346002B26
:100D600001D000F0D9F900BF5837BD4680BD000062
:100D700080B58AB000AF07F11C0300221A605A60E8
:100D80009A603B1D00221A605A609A60DA601A610C
:100D90005A612F4B2F4A1A602D4B00225A602C4B60
:100DA00000229A602A4B0022DA60294B00221A6145
:100DB000274B04225A61264B00221A76244B00222C
:100DC0005A76234B0122DA61214B002283F820203E
:100DD0001F4B00229A621E4B0022DA621C4B00223B
:100DE00083F830201A4B00225A63194B002283F8F3
:100DF0003820174806F0CCFB0346002B01D000F04A
:100E00008BF90023FB6107F11C031946104807F01A
:100E10002BF90346002B01D000F07EF90E4B7B60CE
:100E20000623BB600023FB607F233B6104237B61BF
:100E30000023BB613B1D1946054806F0F3FC034641
:100E4000002B01D000F068F900BF2837BD4680BDF7
:100E5000D4020020000004500002B02580B500AF8D
:100E60001B4B1C4A1A601A4B1B4A5A60184B002233
:100E70009A60174B0122DA60154B00221A61144B5D
:100E800000225A61124B00229A61114B0022DA6152
:100E90000F4B00221A620E4805F0E0FE0346002BBD
:100EA00001D000F039F90021094805F072FF03462E
:100EB000002B01D000F030F90021054805F0B4FF07
:100EC0000346002B01D000F027F900BF80BD00BF12
:100ED0003803002000540040E49CD11080B500AFDE
:100EE0001B4B1C4A1A601A4B1B4A5A60184B0022B3
:100EF0009A60174B0122DA60154B00221A61144BDD
:100F000000225A61124B00229A61114B0022DA61D1
:100F10000F4B00221A620E4805F0A0FE0346002B7C
:100F200001D000F0F9F80021094805F032FF03462E
:100F3000002B01D000F0F0F80021054805F074FF07
:100F40000346002B01D000F0E7F800BF80BD00BFD2
:100F50008C030020005C0040E49CD11080B500AF01
:100F60001B4B1C4A1A601A4B4FF482725A60184B82
:100F700000229A60164B4FF4E062DA60144B0022B4
:100F80001A61134B00225A61114B4FF400729A619F
:100F90000F4B0022DA610E4B00221A620C4B00222A
:100FA0005A620B4B00229A62094B0722DA62084B05
:100FB00000221A63064B08225A63054807F0F8F826
:100FC0000346002B01D000F0A7F800BF80BD00BF92
:100FD000E00300200038004080B58AB000AF07F180
:100FE000140300221A605A609A60DA601A61474B53
:100FF000DB6C464A43F00403D364444BDB6C03F0E0
:1010000004033B613B69414BDB6C404A43F0800386
:10101000D3643E4BDB6C03F08003FB60FB683B4B0F
:10102000DB6C3A4A43F00103D364384BDB6C03F0CA
:101030000103BB60BB68354BDB6C344A43F00203F1
:10104000D364324BDB6C03F002037B607B680022CD
:101050004FF440412E4805F0CFFD00224FF4A0711F
:101060004FF0904005F0C8FD00224FF49051294800
:1010700005F0C2FD4FF400537B610023BB610023E8
:10108000FB6107F114031946214805F043FC4FF4B6
:1010900040437B610123BB610023FB6100233B6272
:1010A00007F1140319461A4805F034FC4FF4A073F5
:1010B0007B610123BB610023FB6100233B6207F1DD
:1010C000140319464FF0904005F024FC4FF483734D
:1010D0007B610023BB610023FB6107F11403194608
:1010E0000C4805F017FC4FF490537B610123BB6162
:1010F0000023FB6100233B6207F1140319460548F6
:1011000005F008FC00BF2837BD4680BD0010024036
:10111000000800480004004880B400AF72B600BF69
:1011200000BFFDE780B400AF00BFFDE780B400AFB3
:1011300000BFFDE780B400AF00BFFDE780B400AFA3
:1011400000BFFDE780B400AF00BFFDE780B400AF93
:1011500000BFBD465DF8047B704780B400AF00BFA0
:10116000BD465DF8047B704780B400AF00BFBD464C
:101170005DF8047B704780B500AF04F0B3FB00BF9F
:1011800080BD000080B500AF024807F081FD00BFC0
:1011900080BD00BFE003002080B500AF024801F031
:1011A0005AF800BF80BD00BF2011002080B483B07A
:1011B00000AF0F4B1B6E0E4A43F0010313660C4B3E
:1011C0001B6E03F001037B607B68094B9B6D084A33
:1011D00043F080539365064B9B6D03F080533B6057
:1011E0003B6800BF0C37BD465DF8047B704700BF0D
:1011F0000010024080B58AB000AF786007F1140398
:1012000000221A605A609A60DA601A617B681B6873
:10121000154A934224D1154BDB6C144A43F4005316
:10122000D364124BDB6C03F400533B613B690F4BFF
:10123000DB6C0E4A43F00103D3640C4BDB6C03F010
:101240000103FB60FB6833237B610B23BB6100233D
:10125000FB6107F1140319464FF0904005F05AFB6B
:1012600000BF2837BD4680BD00000450001002407A
:1012700080B59AB000AF786007F1540300221A607D
:101280005A609A60DA601A6107F120033422002163
:101290001846FFF7F2F87B681B684C4A934238D136
:1012A00040233B6200237B6307F12003184605F0CF
:1012B000ABF90346002B01D0FFF72EFF444BDB6C4C
:1012C000434A43F00103D364414BDB6C03F0010359
:1012D000FB61FB694FF4C0637B651223BB65002390
:1012E000FB6503233B6604237B6607F15403194621
:1012F0004FF0904005F00EFB354B9B6D344A43F4A4
:1013000000139365324B9B6D03F40013BB61BB6903
:1013100058E07B681B682F4A934253D14FF4807387
:101320003B620023FB6307F12003184605F06CF9CC
:101330000346002B01D0FFF7EFFE254BDB6C244A60
:1013400043F00103D364224BDB6C03F001037B61A8
:101350007B691F4BDB6C1E4A43F00203D3641C4BBA
:10136000DB6C03F002033B613B6980237B65122346
:10137000BB650023FB6503233B6604237B6607F103
:10138000540319464FF0904005F0C4FA10237B65D2
:101390001223BB650023FB6503233B6604237B66A6
:1013A00007F1540319460C4805F0B4FA084B9B6D3D
:1013B000074A43F400039365054B9B6D03F4000358
:1013C000FB60FB6800BF6837BD4680BD005400402D
:1013D00000100240005C00400004004880B58AB064
:1013E00000AF786007F1140300221A605A609A6017
:1013F000DA601A617B681B681B4A934230D11B4B31
:101400009B6D1A4A43F480439365184B9B6D03F41C
:1014100080433B613B69154BDB6C144A43F002038C
:10142000D364124BDB6C03F00203FB60FB684FF4E8
:1014300044437B610223BB610023FB6103233B62C6
:1014400005237B6207F114031946094805F062FA87
:1014500000220021242005F0C4FE242005F0DDFE3A
:1014600000BF2837BD4680BD003800400010024054
:101470000004004880B500AF00221249124807F06E
:10148000E9FE0346002B01D0FFF746FE0F490E4848
:1014900007F010FF0346002B01D0FFF73DFE0C497B
:1014A000094809F071FD0346002B01D0FFF734FE17
:1014B000054807F035FF0346002B01D0FFF72CFE4F
:1014C00000BF80BD6000002044040020EC0000202C
:1014D000C000002080B483B000AF03463960FB71C8
:1014E0003B6812221A80034B18460C37BD465DF844
:1014F000047B70478000002080B483B000AF0346B7
:101500003960FB713B6804221A80034B18460C3784
:10151000BD465DF8047B7047A000002080B582B016
:1015200000AF03463960FB71FB79002B05D13A68A7
:101530000749084809F03CF804E03A6804490548BE
:1015400009F036F8024B18460837BD4680BD00BF8B
:101550002007002028BD000880B582B000AF0346F8
:101560003960FB713A680449044809F021F8024BDC
:1015700018460837BD4680BD2007002040BD000842
:1015800080B582B000AF03463960FB713B681A2218
:101590001A8000F055F8024B18460837BD4680BD4A
:1015A000A400002080B582B000AF03463960FB7113
:1015B000FB79002B05D13A680749084808F0F8FF85
:1015C00004E03A680449054808F0F2FF024B184667
:1015D0000837BD4680BD00BF2007002054BD00086D
:1015E00080B582B000AF03463960FB71FB79002BF8
:1015F00005D13A680749084808F0DAFF04E03A687C
:101600000449054808F0D4FF024B18460837BD4688
:1016100080BD00BF2007002060BD000880B483B0FB
:1016200000AF03463960FB713B680C221A80034B04
:1016300018460C37BD465DF8047B704794000020C7
:1016400080B584B000AF0F4B1B68FB600E4B1B686E
:10165000BB600E4B1B687B60FA687B681344FB60C1
:10166000FB68002B09D008220949F86800F014F83B
:1016700004220849B86800F00FF800BF1037BD46D3
:1016800080BD00BF9075FF1F9475FF1F9875FF1FE9
:10169000A6000020B600002080B487B000AFF8603C
:1016A000B9601346FB710023FB750023FB7527E02F
:1016B000FB681B0F092B0BD8FB681B0FDAB2FB7DF5
:1016C0005B001946BB680B443032D2B21A700AE094
:1016D000FB681B0FDAB2FB7D5B001946BB680B444D
:1016E0003732D2B21A70FB681B01FB60FB7D5B00D6
:1016F0000133BA68134400221A70FB7D0133FB7575
:10170000FA7DFB799A42D3D300BF00BF1C37BD4698
:101710005DF8047B7047000080B500AF00220549EA
:10172000054809F04BFC0549034809F069FC002312
:10173000184680BD200D0020440400202009002010
:1017400080B400AF00231846BD465DF8047B7047A7
:1017500080B483B000AF03463960FB711346BB8091
:10176000FB79232B4AD801A252F823F0FD17000879
:10177000FD170008FD170008FD170008FD170008F9
:10178000FD170008FD170008FD170008FD170008E9
:10179000FD170008FD170008FD170008FD170008D9
:1017A000FD170008FD170008FD170008FD170008C9
:1017B000FD170008FD170008FD170008FD170008B9
:1017C000FD170008FD170008FD170008FD170008A9
:1017D000FD170008FD170008FD170008FD17000899
:1017E000FD170008FD170008FD170008FD17000889
:1017F000FD170008FD170008FD17000800BF0023B3
:1018000018460C37BD465DF8047B704780B582B042
:1018100000AF786039607968054809F0F1FB044849
:1018200009F04CFC002318460837BD4680BD00BFB8
:101830004404002080B584B000AF78600B467B8004
:101840000023FB730D4BD3F8BC32BB60BB68D3F8ED
:101850001432002B01D001230BE07B881A467968F3
:10186000064809F0ABFB054809F0E8FB0346FB73AB
:10187000FB7B18461037BD4680BD00BF44040020E6
:1018800080B487B000AFF860B9601346FB710023E5
:10189000FB7597F9173018461C37BD465DF8047B79
:1018A0007047000080B596B000AF786007F1440340
:1018B00000221A605A609A60DA601A6107F1100318
:1018C000342200211846FEF7D8FD7B681B68244AA5
:1018D000934241D14FF400533B614FF04063BB63EF
:1018E00007F11003184604F08FFE0346002B01D0C9
:1018F000FFF712FC1B4BDB6C1A4A43F00103D36465
:10190000184BDB6C03F00103FB60FB684FF4C05322
:101910007B640223BB640023FB6403233B650A232F
:101920007B6507F1440319464FF0904004F0F2FF45
:101930000C4B9B6D0B4A43F080639365094B9B6D89
:1019400003F08063BB60BB6800220021432005F0E8
:1019500048FC432005F061FC00BF5837BD4680BD00
:10196000006800400010024080B582B000AF78608F
:101970007B68D3F8DC227B6803F526731946104692
:1019800007F01BFD00BF0837BD4680BD80B582B0A3
:1019900000AF78600B46FB707B68D3F8DC02FA7806
:1019A000796813469B001344DB000B4403F5B273C4
:1019B0001A68FB78194607F055FD00BF0837BD4689
:1019C00080BD80B582B000AF78600B46FB707B684D
:1019D000D3F8DC02FA78796813469B001344DB00E5
:1019E0000B4424331A68FB78194607F0EEFD00BF5C
:1019F0000837BD4680BD80B582B000AF78607B6897
:101A0000D3F8DC32184607F028FF00BF0837BD4680
:101A100080BD80B584B000AF78600123FB737B6824
:101A20009B79022B01D0FFF777FB7B68D3F8DC3280
:101A3000FA7B1146184607F0CCFE7B68D3F8DC32FF
:101A4000184607F074FE00BF1037BD4680BD000089
:101A500080B582B000AF78607B68D3F8DC3218467E
:101A600007F0C7FE7B689B7A002B05D0044B1B69EF
:101A7000034A43F00603136100BF0837BD4680BD2B
:101A800000ED00E080B582B000AF78607B689B7AA3
:101A9000002B07D0084B1B69074A23F0060313618C
:101AA00000F0B4FA7B68D3F8DC32184607F0BDFECC
:101AB00000BF0837BD4680BD00ED00E080B582B0B4
:101AC00000AF786005F0A2FA2B4A7B68C2F8DC32DE
:101AD0007B68294AC3F8C822274B284A1A60264B3C
:101AE00008221A71244B02229A71234B02221A7285
:101AF000214B00225A72204B00229A721E4B002268
:101B0000DA721D4B00221A731B4800F085FA034657
:101B1000002B01D0FFF700FB7B68D3F8C802182325
:101B20000022002101F049FF7B68D3F8C802582346
:101B30000022802101F041FF7B68D3F8C802C02356
:101B40000022812101F039FF7B68D3F8C8024FF4ED
:101B500088730022012101F030FF7B68D3F8C802AE
:101B60004FF480730022822101F027FF00231846E2
:101B70000837BD4680BD00BF20110020006800402E
:101B800080B584B000AF78600023BB730023FB7383
:101B90007B68D3F8C832184600F03BFB0346BB73A2
:101BA000BB7B032B16D801A252F823F0BD1B000803
:101BB000C31B0008C91B0008CF1B00080023FB73D0
:101BC0000BE00323FB7308E00123FB7305E0032311
:101BD000FB7302E00323FB7300BFFB7B1846103747
:101BE000BD4680BD80B584B000AF78600846114620
:101BF0001A460346FB700B46BB7013463B8000231E
:101C0000BB730023FB737B68D3F8C802BB783A88A8
:101C1000F97800F06BFC0346BB73BB7B032B17D832
:101C200001A252F823F000BF391C00083F1C000835
:101C3000451C00084B1C00080023FB730BE003232A
:101C4000FB7308E00123FB7305E00323FB7302E051
:101C50000323FB7300BFFB7B18461037BD4680BDD6
:101C600080B584B000AF78600B46FB700023BB7377
:101C70000023FB737B68D3F8C832FA781146184604
:101C800000F093FC0346BB73BB7B032B16D801A269
:101C900052F823F0A51C0008AB1C0008B11C00087A
:101CA000B71C00080023FB730BE00323FB7308E061
:101CB0000123FB7305E00323FB7302E00323FB73A3
:101CC00000BFFB7B18461037BD4680BD80B584B091
:101CD00000AF78600B46FB700023BB730023FB73DF
:101CE0007B68D3F8C832FA781146184600F025FD13
:101CF0000346BB73BB7B032B16D801A252F823F01B
:101D0000111D0008171D00081D1D0008231D0008D7
:101D10000023FB730BE00323FB7308E00123FB7339
:101D200005E00323FB7302E00323FB7300BFFB7B8F
:101D300018461037BD4680BD80B584B000AF7860CE
:101D40000B46FB700023BB730023FB737B68D3F847
:101D5000C832FA781146184600F04FFD0346BB73AF
:101D6000BB7B032B16D801A252F823F07D1D00087F
:101D7000831D0008891D00088F1D00080023FB73C8
:101D80000BE00323FB7308E00123FB7305E003234F
:101D9000FB7302E00323FB7300BFFB7B1846103785
:101DA000BD4680BD80B485B000AF78600B46FB7047
:101DB0007B68D3F8C832FB6097F90330002B0BDA4D
:101DC000FB7803F07F02F96813469B001344DB00A5
:101DD0000B4412331B780BE0FB7803F07F02F968A9
:101DE00013469B001344DB000B4403F5A9731B78D7
:101DF00018461437BD465DF8047B704780B584B043
:101E000000AF78600B46FB700023BB730023FB73AD
:101E10007B68D3F8C832FA781146184600F042FBC6
:101E20000346BB73BB7B032B16D801A252F823F0E9
:101E3000411E0008471E00084D1E0008531E0008E2
:101E40000023FB730BE00323FB7308E00123FB7308
:101E500005E00323FB7302E00323FB7300BFFB7B5E
:101E600018461037BD4680BD80B586B000AFF8601B
:101E70007A603B600B46FB720023BB750023FB7549
:101E8000FB68D3F8C802F97A3B687A6800F01EFC58
:101E90000346BB75BB7D032B16D801A252F823F075
:101EA000B11E0008B71E0008BD1E0008C31E0008B2
:101EB0000023FB750BE00323FB7508E00123FB7592
:101EC00005E00323FB7502E00323FB7500BFFB7DE8
:101ED00018461837BD4680BD80B586B000AFF860A3
:101EE0007A603B600B46FB720023BB750023FB75D9
:101EF000FB68D3F8C802F97A3B687A6800F09DFB6A
:101F00000346BB75BB7D032B16D801A252F823F004
:101F1000211F0008271F00082D1F0008331F00087D
:101F20000023FB750BE00323FB7508E00123FB7521
:101F300005E00323FB7502E00323FB7500BFFB7D77
:101F400018461837BD4680BD80B582B000AF7860B6
:101F50000B46FB707B68D3F8C832FA7811461846F6
:101F600000F09CFB034618460837BD4680BD0000C4
:101F700080B582B000AF78600B46FB70FB78002B19
:101F800002D0012B13D023E07B689B7A002B07D073
:101F900000F03CF8104B1B690F4A23F00603136155
:101FA0007B68D3F8DC32184607F03FFC10E07B6812
:101FB000D3F8DC32184607F01CFC7B689B7A002BB8
:101FC00005D0054B1B69044A43F00603136100BFAB
:101FD00000BF0837BD4680BD00ED00E080B483B08F
:101FE00000AF7860034B18460C37BD465DF8047BA4
:101FF000704700BF0014002080B483B000AF786049
:1020000000BF0C37BD465DF8047B704780B500AF5C
:10201000FEF758FE00BF80BD80B584B000AF786089
:102020007B68002B01D10123EFE07B6893F89132AC
:10203000DBB2002B06D17B68002283F890227868FF
:10204000FFF730FC7B68032283F891227B68002233
:102050005A717B681B68184601F041FD7B6818685F
:102060007B6804330ECB01F015FD0346002B05D031
:102070007B68022283F891220123C6E07B681B68FB
:102080000021184601F046FD0346002B05D07B6871
:10209000022283F891220123B7E00023FB733EE084
:1020A000FA7B796813469B001344DB000B44113321
:1020B00001221A70FA7B796813469B001344DB00F7
:1020C0000B441033FA7B1A70FA7B796813469B0035
:1020D0001344DB000B44133300221A70FA7B796837
:1020E00013469B001344DB000B44203300221A608C
:1020F000FA7B796813469B001344DB000B442433BE
:1021000000221A60FB7B79685A1C13469B0013441B
:10211000DB000B4400221A60FB7B0133FB737B68FE
:102120001B79FA7B9A42BBD30023FB7344E0FA7B12
:10213000796813469B001344DB000B4403F25113F0
:1021400000221A70FA7B796813469B001344DB0067
:102150000B4403F5A873FA7B1A70FA7B796813466F
:102160009B001344DB000B4403F2531300221A704C
:10217000FA7B796813469B001344DB000B4403F59C
:10218000B07300221A60FA7B796813469B001344EF
:10219000DB000B4403F5B27300221A60FA7B796806
:1021A00013469B001344DB000B4403F5B473002279
:1021B0001A60FB7B0133FB737B681B79FA7B9A42C5
:1021C000B5D37B6818687B6804330ECB01F0AFFC95
:1021D0000346002B05D07B68022283F8912201235D
:1021E00013E07B6800225A737B68012283F89122F6
:1021F0007B68DB7A012B02D1786801F021FC7B68D7
:102200001B68184603F05BFA002318461037BD46DA
:1022100080BD80B582B000AF78607B6893F8903263
:10222000012B01D1022312E07B68012283F8902266
:102230007B681B68184601F03BFC7B681B681846EE
:1022400003F026FA7B68002283F8902200231846C8
:102250000837BD4680BD80B584B000AF78607B682C
:102260001B68184603F040FAF860FB6803F400436B
:10227000002B03D0786800F014FB10E1FB6803F436
:102280008063002B13D07B681B68B3F844309AB28C
:102290007B681B6822F4806292B2A3F844207868BD
:1022A000FFF7B7FB0021786800F0FCF8F7E0FB6867
:1022B00003F48043002B0CD07B681B68B3F84430D8
:1022C0009AB27B681B6822F4804292B2A3F8442041
:1022D000E5E0FB6803F40053002B0CD07B681B681F
:1022E000B3F844309AB27B681B6822F4005292B271
:1022F000A3F84420D3E0FB6803F48053002B34D0D0
:102300007B681B68B3F840309AB27B681B6822F088
:10231000040292B2A3F840207B681B68B3F84030F7
:102320009AB27B681B6822F0080292B2A3F84020A0
:102330007B6893F8C832012B07D17B68002283F8B1
:10234000C82200217868FFF713FE7868FFF79AFB30
:102350007B681B68B3F844309AB27B681B6822F430
:10236000805292B2A3F8442099E0FB6803F4006322
:10237000002B27D07B681B68B3F840309AB27B688B
:102380001B6842F0080292B2A3F840207B681B68E9
:10239000B3F844309AB27B681B6822F4006292B2B0
:1023A000A3F844207B681B68B3F840309AB27B687E
:1023B0001B6842F0040292B2A3F840207868FFF74D
:1023C00047FB6CE0FB6803F08003002B40D07B6888
:1023D0001B68B3F844309AB27B681B6822F0800215
:1023E00092B2A3F844207B6893F8C832002B2BD11B
:1023F0007B681B68B3F840309AB27B681B6842F078
:10240000040292B2A3F840207B681B68B3F8403006
:102410009AB27B681B6842F0080292B2A3F840208F
:102420007B68012283F8C8227B681B68B3F85430AC
:102430009BB29B0803F03C027B68C3F8CC220121CD
:102440007868FFF795FD2AE07868FFF701FB26E042
:10245000FB6803F40073002B0FD07B681B68B3F894
:1024600044309AB27B681B6822F4007292B2A3F8DF
:1024700044207868FFF7BFFA11E0FB6803F480732B
:10248000002B0CD07B681B68B3F844309AB27B6891
:102490001B6822F4807292B2A3F8442000BF103768
:1024A000BD4680BD80B582B000AF78600B46FB7042
:1024B0007B6893F89032012B01D1022312E07B68F4
:1024C000012283F890227B68FA785A737B681B6834
:1024D000FA781146184603F0C7F87B68002283F8A3
:1024E0009022002318460837BD4680BD80B584B0D1
:1024F00000AF7860084611461A460346FB700B464B
:102500003B801346BB700023FB7297F90330002B0E
:102510000EDAFB7803F0070213469B001344DB003E
:1025200010337A681344FB60FB6801225A700EE096
:10253000FB7803F0070213469B001344DB0003F50E
:10254000A8737A681344FB60FB6800225A70FB781A
:1025500003F00703DAB2FB681A703B88C3F30A0280
:10256000FB681A61FB68BA78DA70BB78022B02D17B
:10257000FB6800221A717B6893F89032012B01D11D
:1025800002230EE07B68012283F890227B681B689F
:10259000F968184601F0EAFA7B68002283F8902275
:1025A000FB7A18461037BD4680BD80B584B000AFB9
:1025B00078600B46FB7097F90330002B0EDAFB783E
:1025C00003F0070213469B001344DB0010337A68C4
:1025D0001344FB60FB6801225A700EE0FB7803F0A5
:1025E000070213469B001344DB0003F5A8737A68C7
:1025F0001344FB60FB6800225A70FB7803F007036A
:10260000DAB2FB681A707B6893F89032012B01D123
:1026100002230EE07B68012283F890227B681B680E
:10262000F968184601F08AFF7B68002283F890223F
:10263000002318461037BD4680BD80B586B000AF78
:10264000F8607A603B600B46FB72FB7A03F007028E
:1026500013469B001344DB0003F5A873FA68134488
:102660007B617B697A685A617B693A689A617B69A8
:102670000022DA617B6900225A70FB7A03F00703BB
:10268000DAB27B691A70FB681B687969184602F038
:1026900042F9002318461837BD4680BD80B483B088
:1026A00000AF78600B46FB70FB7803F00702796897
:1026B00013469B001344DB000B4403F5B6731B6801
:1026C00018460C37BD465DF8047B704780B586B070
:1026D00000AFF8607A603B600B46FB72FB7A03F058
:1026E000070213469B001344DB001033FA681344BF
:1026F0007B617B697A685A617B693A689A617B6918
:10270000012283F824207B693A681A627B690022DF
:10271000DA617B6901225A70FB7A03F00703DAB2AF
:102720007B691A70FB681B687969184602F0F3F838
:10273000002318461837BD4680BD80B584B000AF71
:1027400078600B46FB70FB7803F007037A68127918
:10275000934201D901234CE097F90330002B0EDAA4
:10276000FB7803F0070213469B001344DB00103391
:102770007A681344FB60FB6801225A700CE0FA7817
:1027800013469B001344DB0003F5A8737A681344D7
:10279000FB60FB6800225A70FB6801229A70FB788C
:1027A00003F00703DAB2FB681A707B6893F8903283
:1027B000012B01D102231CE07B68012283F89022C7
:1027C0007B681B68F968184602F054FEFB7803F03A
:1027D0000703002B08D17B681A687B6803F5267312
:1027E0001946104602F090FF7B68002283F8902281
:1027F000002318461037BD4680BD80B584B000AFB9
:1028000078600B46FB70FB7803F00F037A6812794F
:10281000934201D9012340E097F90330002B0EDAEF
:10282000FB7803F0070213469B001344DB001033D0
:102830007A681344FB60FB6801225A700EE0FB7853
:1028400003F0070213469B001344DB0003F5A87353
:102850007A681344FB60FB6800225A70FB68002210
:102860009A70FB7803F00703DAB2FB681A707B6892
:1028700093F89032012B01D102230EE07B680122F4
:1028800083F890227B681B68F968184602F043FEC3
:102890007B68002283F89022002318461037BD463B
:1028A00080BD80B592B000AF786033E37B681B6871
:1028B000B3F844307B877B8FDBB203F00F0387F8DC
:1028C000393097F83930002B40F008817B8F03F0C6
:1028D0001003002B4CD17B681B681B889BB223F430
:1028E000E14323F070033B817B681A683B896FEA00
:1028F00043436FEA53439BB213807B6810333B64BE
:102900007B681B68B3F850309BB21A463B6C1B784F
:10291000DB0013447A681268134403F202431B88F5
:10292000C3F309023B6CDA613B6C5A693B6CDB69AF
:102930001A443B6C5A6100217868FFF742F87B68C3
:102940005B7BDBB2002B00F0E5823B6C9B69002BCC
:1029500040F0E0827B685B7BDBB263F07F03DAB23E
:102960007B681B68A3F84C207B6800225A73D1E275
:102970007B6803F5A8733B647B681B681B88FB8638
:10298000FB8E03F40063002B32D07B681B68B3F826
:1029900050309BB21A463B6C1B78DB0013447A68BC
:1029A0001268134403F206431B88C3F309023B6C0D
:1029B000DA617B6818687B6803F526713B6CDA88FE
:1029C0003B6CDB699BB202F0EDFE7B681B681B88E9
:1029D0009AB240F68F7313407B817B681B687A89BB
:1029E00042F0800292B21A807868FEF7BDFF91E251
:1029F000B7F93630002B80F28D827B681B681B880C
:102A00009AB240F68F731340FB817B681B68FA898A
:102A100042F0800292B21A807B681B68B3F8503093
:102A20009BB21A463B6C1B78DB0013447A68126831
:102A3000134403F206431B88C3F309023B6CDA61BB
:102A40003B6CDB69002B19D03B6C5B69002B15D00C
:102A50007B6818683B6C59693B6CDA883B6CDB69B6
:102A60009BB202F09FFE3B6C5A693B6CDB691A44D7
:102A70003B6C5A6100217868FEF788FF7B681B6811
:102A80001B88FB86FB8E03F40063002B40F0428220
:102A9000FB8E03F44053B3F5405F00F03B827B684C
:102AA0001B681B889BB223F4804323F07003BB8117
:102AB000BB8983F48053BB81BB8983F40053BB8102
:102AC0007B681A68BB8943F07F4343F47F0343F478
:102AD000004343F080039BB213801BE27B681B68BA
:102AE0001A4697F839309B0013441B88FB86B7F9C8
:102AF0003630002B80F2F1807B681B681A4697F80D
:102B000039309B0013441B889AB240F68F731340F0
:102B1000BB867B681B681A4697F839309B001344C4
:102B2000BA8E42F0800292B21A8097F8392013468A
:102B30009B001344DB0003F5A8737A6813443B64DD
:102B40003B6C1B7B002B23D17B681B68B3F8503098
:102B50009BB21A463B6C1B78DB0013447A68126800
:102B6000134403F206431B88C3F30903A7F8463056
:102B7000B7F84630002B00F08B807B6818683B6C00
:102B800059693B6CDA88B7F8463002F00BFE7FE0FB
:102B90003B6CDB78022B09D1FB8E1A46396C7868C6
:102BA00000F0C6F90346A7F8463071E07B681B6861
:102BB0001A463B6C1B789B0013441B889BB223F482
:102BC000E04323F07003BB877B681B681A463B6CAD
:102BD0001B789B001A44BB8F43F07F4343F47F0371
:102BE00043F4004343F0C0039BB213807B681B682F
:102BF0001A463B6C1B789B0013441B889BB203F462
:102C00008043002B22D07B681B68B3F850309BB206
:102C10001A463B6C1B78DB0013447A681268134435
:102C200003F202431B88C3F30903A7F84630B7F841
:102C30004630002B2CD07B6818683B6C59693B6C84
:102C40001A89B7F8463002F0ADFD21E07B681B68B9
:102C5000B3F850309BB21A463B6C1B78DB00134430
:102C60007A681268134403F206431B88C3F309030E
:102C7000A7F84630B7F84630002B09D07B681868B3
:102C80003B6C59693B6C5A89B7F8463002F08AFDB3
:102C90003B6CDA69B7F846301A443B6CDA613B6C3E
:102CA0005A69B7F846301A443B6C5A613B6C9B69D1
:102CB000002B05D0B7F846203B6C1B699A4206D220
:102CC0003B6C1B7819467868FEF760FE05E07B6870
:102CD0001B68396C184601F01EFEFB8E03F0800362
:102CE000002B00F0178197F8392013469B001344FE
:102CF000DB0010337A6813443B647B681B681A4618
:102D000097F839309B0013441B889BB223F4E143AE
:102D100023F07003FB877B681B681A4697F83930ED
:102D20009B001A44FB8F6FEA43436FEA53439BB205
:102D300013803B6CDB78012B40F0A1803B6C0022C0
:102D40009A613B6C1B7B002B00F09280FB8E03F0A2
:102D50004003002B46D03B6C5B78002B26D17B6870
:102D60001B687B617B681B68B3F850309BB21A46C6
:102D70007B6913447B613B6C1B78DA007B691344ED
:102D800003F202433B613B691B889BB2C3F3090317
:102D90009AB23B691A803B691B889BB26FEA434336
:102DA0006FEA53439AB23B691A8061E03B6C5B78EF
:102DB000012B5DD17B681B68FB617B681B68B3F8E6
:102DC00050309BB21A46FB691344FB613B6C1B7885
:102DD000DA00FB69134403F20243BB61BB690022C2
:102DE0001A8045E07B681B68FB623B6C5B78002BBC
:102DF00026D17B681B687B627B681B68B3F8503008
:102E00009BB21A467B6A13447B623B6C1B78DA00E8
:102E10007B6A134403F206433B623B6A1B889BB206
:102E2000C3F309039AB23B6A1A803B6A1B889BB2C0
:102E30006FEA43436FEA53439AB23B6A1A8017E042
:102E40003B6C5B78012B13D17B681B68B3F8503067
:102E50009BB21A46FB6A1344FB623B6C1B78DA0098
:102E6000FB6A134403F20643BB62BB6A00221A806A
:102E70003B6C1B7819467868FEF7A3FD4AE0FB8E91
:102E800003F48073002B3FD17B681B68B3F850308C
:102E90009BB21A463B6C1B78DB0013447A681268BD
:102EA000134403F202431B88C3F309037B863B6C84
:102EB0009A697B8E9A4206D93B6C9A697B8ED21AAC
:102EC0003B6C9A6102E03B6C00229A613B6C9B690F
:102ED000002B06D13B6C1B7819467868FEF771FD14
:102EE00018E03B6C5A697B8E1A443B6C5A613B6C10
:102EF000DA697B8E1A443B6CDA617B681B68396C3B
:102F0000184601F008FD05E0FB8E1A46396C78681A
:102F100000F017F97B681B68B3F844309BB21BB212
:102F2000002BFFF6C3AC002318464837BD4680BDD2
:102F300080B588B000AFF860B9601346FB80FB88AD
:102F400003F48043002B7CD0FB681B68B3F850303F
:102F50009BB21A46BB681B78DB001344FA68126800
:102F6000134403F202431B88C3F309037B83BB684A
:102F70009A697B8B9A4206D3BB689A697B8BD21A7B
:102F8000BB689A6102E0BB6800229A61BB689B69DA
:102F9000002B23D1FB681B681A46BB681B789B007B
:102FA00013441B889BB223F4804323F070033B83BC
:102FB0003B8B83F400533B83FB681B681A46BB685A
:102FC0001B789B001A443B8B43F07F4343F47F0301
:102FD00043F4004343F080039BB21380FB8803F06B
:102FE0004003002B1FD0FB681B681A46BB681B7888
:102FF0009B0013441B889BB223F4E04323F070032F
:10300000FB82FB681B681A46BB681B789B001A444E
:10301000FB8A43F07F4343F47F0343F4004343F0D0
:10302000C0039BB213807B8B002B00F08580FB6874
:103030001868BB685969BB681A897B8B02F0B2FBC0
:103040007AE0FB681B68B3F850309BB21A46BB6845
:103050001B78DB001344FA681268134403F206433A
:103060001B88C3F309037B83BB689A697B8B9A42F5
:1030700006D3BB689A697B8BD21ABB689A6102E05F
:10308000BB6800229A61BB689B69002B23D1FB6857
:103090001B681A46BB681B789B0013441B889BB2B5
:1030A00023F4804323F07003FB83FB8B83F40053F2
:1030B000FB83FB681B681A46BB681B789B001A449D
:1030C000FB8B43F07F4343F47F0343F4004343F01F
:1030D00080039BB21380FB8803F04003002B1FD1B9
:1030E000FB681B681A46BB681B789B0013441B884F
:1030F0009BB223F4E04323F07003BB83FB681B689F
:103100001A46BB681B789B001A44BB8B43F07F4375
:1031100043F47F0343F4004343F0C0039BB21380A6
:103120007B8B002B08D0FB681868BB685969BB68AB
:103130005A897B8B02F036FB7B8B18462037BD46C5
:1031400080BD80B5A6B000AFF860B9601346FB80C3
:10315000FB8803F04003002B00F0F781FB681B683D
:10316000B3F850309BB21A46BB681B78DB0013449F
:10317000FA681268134403F202431B88C3F309037D
:10318000A7F89630BB689A69B7F896309A4207D983
:10319000BB689A69B7F89630D21ABB689A6102E0A8
:1031A000BB6800229A61BB689B69002B40F0E180FC
:1031B000BB685B78002B26D1FB681B683B63FB6810
:1031C0001B68B3F850309BB21A463B6B13443B6309
:1031D000BB681B78DA003B6B134403F20243FB62CB
:1031E000FB6A1B889BB2C3F309039AB2FB6A1A807D
:1031F000FB6A1B889BB26FEA43436FEA53439AB260
:10320000FB6A1A801AE0BB685B78012B16D1FB6859
:103210001B68BB63FB681B68B3F850309BB21A464F
:10322000BB6B1344BB63BB681B78DA00BB6B1344F6
:1032300003F202437B637B6B00221A80FB681B68EE
:10324000BB62BB685B78002B26D1FB681B683B62C6
:10325000FB681B68B3F850309BB21A463B6A1344B4
:103260003B62BB681B78DA003B6A134403F20643F7
:10327000FB61FB691B889BB2C3F309039AB2FB692C
:103280001A80FB691B889BB26FEA43436FEA534382
:103290009AB2FB691A8017E0BB685B78012B13D1E7
:1032A000FB681B68B3F850309BB21A46BB6A1344E4
:1032B000BB62BB681B78DA00BB6A134403F20643A7
:1032C0007B627B6A00221A80BB68DB78022B23D1E9
:1032D000FB681B681A46BB681B789B0013441B885D
:1032E0009BB223F4E04323F040037B837B8B83F08A
:1032F00020037B83FB681B681A46BB681B789B0016
:103300001A447B8B43F07F4343F47F0343F4004331
:1033100043F080039BB21380BB681B781946F868A2
:10332000FEF74FFBFB8803F48043002B1FD0FB68A4
:103330001B681A46BB681B789B0013441B889BB212
:1033400023F4E04323F070033B83FB681B681A46B9
:10335000BB681B789B001A443B8B43F07F4343F4CC
:103360007F0343F4404343F080039BB21380002368
:103370001FE3FB8803F48043002B21D0FB681B680C
:103380001A46BB681B789B0013441B889BB223F42E
:10339000E04323F07003A7F84E30FB681B681A4621
:1033A000BB681B789B001A44B7F84E3043F07F434C
:1033B00043F47F0343F4404343F080039BB2138004
:1033C000BB6893F82430012B40F0CA82BB685A696D
:1033D000B7F896301A44BB685A61BB68DA69B7F827
:1033E00096301A44BB68DA61BB681A6ABB681B690D
:1033F0009A4209D3BB681B69BB65BB681A6ABB6D7F
:10340000D21ABB681A6215E0BB681B6A002B07D191
:10341000B7F89630BB65BB68002283F8242009E02A
:10342000BB68002283F82420BB681B6ABB65BB68AD
:1034300000221A62BB685B78002B5FD1FB681B68B7
:103440003B64FB681B68B3F850309BB21A463B6C78
:1034500013443B64BB681B78DA003B6C134403F2F3
:103460000243FB63FB6B1B889BB2C3F309039AB255
:10347000FB6B1A80BB6D002B0AD1FB6B1B889BB2C8
:103480006FEA43436FEA53439AB2FB6B1A8051E0F1
:10349000BB6D3E2B16D8BB6D5B083B65BB6D03F067
:1034A0000103002B02D03B6D01333B65FB6B1B8896
:1034B0009AB23B6D9BB29B029BB213439AB2FB6BD9
:1034C0001A8037E0BB6D5B093B65BB6D03F01F03E2
:1034D000002B02D13B6D013B3B65FB6B1B889AB215
:1034E0003B6D9BB29B029BB213439BB26FEA43437B
:1034F0006FEA53439AB2FB6B1A801BE0BB685B78A0
:10350000012B17D1FB681B68BB64FB681B68B3F811
:1035100050309BB21A46BB6C1344BB64BB681B782B
:10352000DA00BB6C134403F202437B64BB6D9AB2B6
:103530007B6C1A80FB681868BB685969BB681A897C
:10354000BB6D9BB202F0ECF80AE2FB681B68B3F8B3
:1035500050309BB21A46BB681B78DB001344FA68F4
:103560001268134403F206431B88C3F30903A7F848
:103570009630BB689A69B7F896309A4207D3BB6811
:103580009A69B7F89630D21ABB689A6102E0BB68B4
:1035900000229A61BB689B69002B40F0F680BB68F3
:1035A0005B78002B26D1FB681B687B67FB681B6878
:1035B000B3F850309BB21A467B6F13447B67BB68ED
:1035C0001B78DA007B6F134403F202433B673B6FC7
:1035D0001B889BB2C3F309039AB23B6F1A803B6FFF
:1035E0001B889BB26FEA43436FEA53439AB23B6F27
:1035F0001A801AE0BB685B78012B16D1FB681B6848
:10360000FB67FB681B68B3F850309BB21A46FB6F30
:103610001344FB67BB681B78DA00FB6F134403F2AB
:103620000243BB67BB6F00221A80FB681B68C7F8A8
:103630008430BB685B78002B2FD1FB681B68C7F810
:103640008C30FB681B68B3F850309BB21A46D7F831
:103650008C301344C7F88C30BB681B78DA00D7F87D
:103660008C30134403F20643C7F88830D7F888300B
:103670001B889BB2C3F309039AB2D7F888301A802B
:10368000D7F888301B889BB26FEA43436FEA5343F5
:103690009AB2D7F888301A801CE0BB685B78012B9F
:1036A00018D1FB681B68B3F850309BB21A46D7F8A4
:1036B00084301344C7F88430BB681B78DA00D7F82D
:1036C0008430134403F20643C7F88030D7F88030C3
:1036D00000221A80BB68DB78022B27D1FB681B68AD
:1036E0001A46BB681B789B0013441B889BB223F4CB
:1036F000E04323F04003A7F89430B7F8943083F008
:103700002003A7F89430FB681B681A46BB681B7837
:103710009B001A44B7F8943043F07F4343F47F038F
:1037200043F4004343F080039BB21380BB681B78D3
:103730001946F868FEF745F9FB8803F48043002B2F
:1037400021D1FB681B681A46BB681B789B00134499
:103750001B889BB223F4E04323F07003A7F8923058
:10376000FB681B681A46BB681B789B001A44B7F8B5
:10377000923043F07F4343F47F0343F4404343F0EC
:1037800080039BB21380002313E1FB8803F4804382
:10379000002B21D1FB681B681A46BB681B789B0075
:1037A00013441B889BB223F4E04323F07003A7F873
:1037B0005630FB681B681A46BB681B789B001A448E
:1037C000B7F8563043F07F4343F47F0343F440435C
:1037D00043F080039BB21380BB6893F82430012B25
:1037E00040F0BE80BB685A69B7F896301A44BB688F
:1037F0005A61BB68DA69B7F896301A44BB68DA6177
:10380000BB681A6ABB681B699A4209D3BB681B690B
:10381000BB65BB681A6ABB6DD21ABB681A6215E039
:10382000BB681B6A002B07D1B7F89630BB65BB6835
:10383000002283F8242009E0BB681B6ABB65BB68D3
:1038400000221A62BB68002283F82420FB681B68F0
:10385000FB65BB685B78002B5FD1FB681B68BB66B0
:10386000FB681B68B3F850309BB21A46BB6E13441A
:10387000BB66BB681B78DA00BB6E134403F20643D9
:103880007B667B6E1B889BB2C3F309039AB27B6E87
:103890001A80BB6D002B0AD17B6E1B889BB26FEA2E
:1038A00043436FEA53439AB27B6E1A804EE0BB6D7E
:1038B0003E2B16D8BB6D5B083B66BB6D03F0010366
:1038C000002B02D03B6E01333B667B6E1B889AB2A5
:1038D0003B6E9BB29B029BB213439AB27B6E1A80E3
:1038E00034E0BB6D5B093B66BB6D03F01F03002B2F
:1038F00002D13B6E013B3B667B6E1B889AB23B6EEE
:103900009BB29B029BB213439BB26FEA43436FEAA5
:1039100053439AB27B6E1A8018E0BB685B78012B28
:1039200014D1FB681B68B3F850309BB21A46FB6D8C
:103930001344FB65BB681B78DA00FB6D134403F28C
:103940000643FB66BB6D9AB2FB6E1A80FB68186873
:10395000BB685969BB685A89BB6D9BB201F0E0FE38
:10396000FB681B681A46BB681B789B0013441B88C6
:103970009BB223F4E04323F04003FB82FB8A83F0F5
:103980001003FB82FB8A83F02003FB82FB681B6829
:103990001A46BB681B789B001A44FB8A43F07F439E
:1039A00043F47F0343F4004343F080039BB213804E
:1039B000002318469837BD4680BD80B487B000AF5D
:1039C000F8607B600B467B8113463B817B8903F06B
:1039D00080039BB2002B0BD07B8903F007021346B8
:1039E0009B001344DB001033FA6813447B6109E049
:1039F0007A8913469B001344DB0003F5A873FA6829
:103A000013447B613B89002B07D17B6900221A7329
:103A10007B689AB27B69DA800BE07B6901221A73BA
:103A20007B689AB27B691A817B681B0C9AB27B69AE
:103A30005A81002318461C37BD465DF8047B704749
:103A400080B485B000AF78607B681B68FB607B68E2
:103A50000122C3F8D4227B68002283F8C822FB68C5
:103A6000B3F854309BB243F001039AB2FB68A3F859
:103A70005420FB68B3F854309BB243F002039AB26F
:103A8000FB68A3F85420002318461437BD465DF8A0
:103A9000047B704780B485B000AFF860384680E89A
:103AA0000E00002318461437BD465DF8047B7047AE
:103AB00080B485B000AF78607B680022A3F8442012
:103AC0004BF68073FB60FB689AB27B68A3F84020DA
:103AD000002318461437BD465DF8047B704780B458
:103AE00085B000AF78604BF68073FB607B68B3F8FD
:103AF00040309AB2FB689BB2DB439BB213409AB250
:103B00007B68A3F84020002318461437BD465DF8B3
:103B1000047B704780B483B000AF78600B46FB70C5
:103B2000002318460C37BD465DF8047B704780B40F
:103B300085B000AFF860384680E80E00FB680122CF
:103B4000A3F84020FB680022A3F84020FB68002275
:103B5000A3F84420FB680022A3F850200023184655
:103B60001437BD465DF8047B7047000080B4A7B0F1
:103B700000AF78603960002387F897307A683B6837
:103B80001B789B0013441B889BB223F4EC4323F067
:103B90007003A7F894303B68DB78032B1FD801A291
:103BA00052F823F0B53B0008D13B0008E73B000882
:103BB000C33B0008B7F8943043F40073A7F894307F
:103BC00012E0B7F8943043F4C063A7F894300BE0E8
:103BD000B7F8943043F48063A7F8943004E00123ED
:103BE00087F8973000E000BF7A683B681B789B003D
:103BF0001A44B7F8943043F07F4343F47F0343F40F
:103C0000004343F080039BB213807A683B681B78C3
:103C10009B0013441B889BB21BB223F4E04323F0A8
:103C200070031AB23B681B781BB213431BB2A7F890
:103C300086307A683B681B789B001A44B7F8863058
:103C400043F07F4343F47F0343F4004343F0800396
:103C50009BB213803B681B7B002B40F080813B684C
:103C60005B78002B00F084807B68BB617B68B3F8D5
:103C700050309BB21A46BB691344BB613B681B784A
:103C8000DA00BB69134403F580637B613B68DB8822
:103C90005B089BB25B009AB27B691A807A683B68CA
:103CA0001B789B0013441B887B827B8A03F04003B4
:103CB000002B1BD07A683B681B789B0013441B8841
:103CC0009BB223F4E04323F070033B827A683B68A5
:103CD0001B789B001A443B8A43F07F4343F47F03E5
:103CE00043F4004343F0C0039BB213803B68DB788E
:103CF000012B20D07A683B681B789B0013441B88FB
:103D00009BB223F4E04323F04003BB81BB8983F0E3
:103D10002003BB817A683B681B789B001A44BB89EF
:103D200043F07F4343F47F0343F4004343F08003B5
:103D30009BB21380F9E37A683B681B789B001344BD
:103D40001B889BB223F4E04323F04003FB817A6895
:103D50003B681B789B001A44FB8943F07F4343F484
:103D60007F0343F4004343F080039BB21380DCE302
:103D70007B683B637B68B3F850309BB21A463B6B61
:103D800013443B633B681B78DA003B6B134403F23C
:103D90000443FB623B68DB885B089BB25B009AB222
:103DA000FB6A1A807B68BB627B68B3F850309BB2B9
:103DB0001A46BB6A1344BB623B681B78DA00BB6AD5
:103DC000134403F206437B627B6A1B889BB2C3F3F6
:103DD00009039AB27B6A1A803B681B69002B0AD1DF
:103DE0007B6A1B889BB26FEA43436FEA53439AB2E4
:103DF0007B6A1A8041E03B681B693E2B1CD83B68FC
:103E00001B695B08C7F890303B681B6903F001032E
:103E1000002B04D0D7F890300133C7F890307B6A7C
:103E20001B889AB2D7F890309BB29B029BB2134387
:103E30009AB27B6A1A8020E03B681B695B09C7F86D
:103E400090303B681B6903F01F03002B04D1D7F8A7
:103E50009030013BC7F890307B6A1B889AB2D7F844
:103E600090309BB29B029BB213439BB26FEA4343D9
:103E70006FEA53439AB27B6A1A807A683B681B7870
:103E80009B0013441B887B847B8C03F48043002BB2
:103E90001BD07A683B681B789B0013441B889BB23D
:103EA00023F4E04323F070033B847A683B681B787B
:103EB0009B001A443B8C43F07F4343F47F0343F45D
:103EC000404343F080039BB213803B681B78002B78
:103ED00024D17A683B681B789B0013441B889BB2F3
:103EE00023F4804323F07003BB83BB8B83F48053A4
:103EF000BB83BB8B83F40053BB837A683B681B781E
:103F00009B001A44BB8B43F07F4343F47F0343F48D
:103F1000004343F080039BB2138006E37A683B685A
:103F20001B789B0013441B889BB223F4804323F02F
:103F30007003FB83FB8B83F40053FB837A683B683D
:103F40001B789B001A44FB8B43F07F4343F47F03B1
:103F500043F4004343F080039BB21380E5E23B68E7
:103F6000DB78022B1ED17A683B681B789B001344D8
:103F70001B889BB223F4E04323F07003A7F8823040
:103F80007A683B681B789B001A44B7F8823043F08C
:103F90007F4343F47F0343F4014343F080039BB228
:103FA00013801DE07A683B681B789B0013441B88D4
:103FB0009BB223F4E24323F07003A7F884307A68BD
:103FC0003B681B789B001A44B7F8843043F07F436A
:103FD00043F47F0343F4004343F080039BB2138018
:103FE0007B68FB677B68B3F850309BB21A46FB6F67
:103FF0001344FB673B681B78DA00FB6F134403F53F
:104000008063BB673B681B895B089BB25B009AB20D
:10401000BB6F1A807B687B677B68B3F850309BB2BC
:104020001A467B6F13447B673B681B78DA007B6F13
:10403000134403F204433B673B685B895B089BB214
:104040005B009AB23B6F1A803B685B78002B40F0B4
:10405000AF817A683B681B789B0013441B88A7F8E4
:104060006030B7F8603003F48043002B1DD07A68CD
:104070003B681B789B0013441B889BB223F4E043EE
:1040800023F07003A7F85E307A683B681B789B00CA
:104090001A44B7F85E3043F07F4343F47F0343F4A0
:1040A000404343F080039BB213807A683B681B78DF
:1040B0009B0013441B88A7F85C30B7F85C3003F012
:1040C0004003002B1DD07A683B681B789B0013448B
:1040D0001B889BB223F4E04323F07003A7F85A3007
:1040E0007A683B681B789B001A44B7F85A3043F053
:1040F0007F4343F47F0343F4004343F0C0039BB288
:1041000013803B685B78002B6BD17B68FB647B681A
:10411000B3F850309BB21A46FB6C1344FB643B6807
:104120001B78DA00FB6C134403F20243BB64BB6CE4
:104130001B889BB2C3F309039AB2BB6C1A803B681D
:104140001B69002B0AD1BB6C1B889BB26FEA4343EF
:104150006FEA53439AB2BB6C1A805DE03B681B69FF
:104160003E2B1CD83B681B695B08C7F88C303B684A
:104170001B6903F00103002B04D0D7F88C30013306
:10418000C7F88C30BB6C1B889AB2D7F88C309BB2C6
:104190009B029BB213439AB2BB6C1A803CE03B6813
:1041A0001B695B09C7F88C303B681B6903F01F0370
:1041B000002B04D1D7F88C30013BC7F88C30BB6C96
:1041C0001B889AB2D7F88C309BB29B029BB21343E8
:1041D0009BB26FEA43436FEA53439AB2BB6C1A80B7
:1041E0001AE03B685B78012B16D17B687B657B68A6
:1041F000B3F850309BB21A467B6D13447B653B6825
:104200001B78DA007B6D134403F202433B653B6885
:104210001B699AB23B6D1A807B687B643B685B7854
:10422000002B6BD17B68FB637B68B3F850309BB28B
:104230001A46FB6B1344FB633B681B78DA00FB6B8D
:10424000134403F20643BB63BB6B1B889BB2C3F3EF
:1042500009039AB2BB6B1A803B681B69002B0AD119
:10426000BB6B1B889BB26FEA43436FEA53439AB21E
:10427000BB6B1A805BE03B681B693E2B1CD83B681C
:104280001B695B08C7F888303B681B6903F00103B2
:10429000002B04D0D7F888300133C7F88830BB6BC7
:1042A0001B889AB2D7F888309BB29B029BB213430B
:1042B0009AB2BB6B1A803AE03B681B695B09C7F88E
:1042C00088303B681B6903F01F03002B04D1D7F82B
:1042D0008830013BC7F88830BB6B1B889AB2D7F88F
:1042E00088309BB29B029BB213439BB26FEA43435D
:1042F0006FEA53439AB2BB6B1A8018E03B685B7855
:10430000012B14D17B68B3F850309BB21A467B6CFA
:1043100013447B643B681B78DA007B6C134403F224
:1043200006433B643B681B699AB23B6C1A807A680F
:104330003B681B789B0013441B889BB223F480438B
:1043400023F07003FB86FB8E83F48053FB86FB8E89
:1043500083F40053FB867A683B681B789B001A4401
:10436000FB8E43F07F4343F47F0343F4004343F069
:1043700080039BB213807A683B681B789B001344D0
:104380001B889BB223F4E04323F04003BB867A688A
:104390003B681B789B001A44BB8E43F07F4343F479
:1043A0007F0343F4004343F080039BB21380BCE0DF
:1043B0007A683B681B789B0013441B88A7F86E3013
:1043C000B7F86E3003F48043002B1DD07A683B6849
:1043D0001B789B0013441B889BB223F4E04323F01B
:1043E0007003A7F86C307A683B681B789B001A440E
:1043F000B7F86C3043F07F4343F47F0343F440430A
:1044000043F080039BB213807A683B681B789B0063
:1044100013441B88A7F86A30B7F86A3003F04003EA
:10442000002B1DD07A683B681B789B0013441B88C7
:104430009BB223F4E04323F07003A7F868307A6856
:104440003B681B789B001A44B7F8683043F07F4301
:1044500043F47F0343F4004343F0C0039BB2138053
:104460003B68DB78012B24D07A683B681B789B0083
:1044700013441B889BB223F4E04323F04003A7F8C6
:104480006430B7F8643083F02003A7F864307A68AA
:104490003B681B789B001A44B7F8643043F07F43B5
:1044A00043F47F0343F4004343F080039BB2138043
:1044B0001DE07A683B681B789B0013441B889BB205
:1044C00023F4E04323F04003A7F866307A683B68A2
:1044D0001B789B001A44B7F8663043F07F4343F4DF
:1044E0007F0343F4004343F080039BB213807A6858
:1044F0003B681B789B0013441B889BB223F48043CA
:1045000023F07003A7F862307A683B681B789B0041
:104510001A44B7F8623043F07F4343F47F0343F417
:10452000004343F080039BB2138097F897301846FE
:104530009C37BD465DF8047B704700BF80B48DB0EA
:1045400000AF786039603B681B7B002B40F08E80A9
:104550003B685B78002B44D07A683B681B789B00F3
:1045600013441B88BB81BB8903F04003002B1BD085
:104570007A683B681B789B0013441B889BB223F42A
:10458000E04323F070037B817A683B681B789B00D3
:104590001A447B8943F07F4343F47F0343F4004391
:1045A00043F0C0039BB213807A683B681B789B0082
:1045B00013441B889BB223F4E04323F040033B8168
:1045C0007A683B681B789B001A443B8943F07F4321
:1045D00043F47F0343F4004343F080039BB2138012
:1045E00092E17A683B681B789B0013441B887B82AE
:1045F0007B8A03F48043002B1BD07A683B681B78CE
:104600009B0013441B889BB223F4E04323F0700308
:104610003B827A683B681B789B001A443B8A43F0D4
:104620007F4343F47F0343F4404343F080039BB252
:1046300013807A683B681B789B0013441B889BB2ED
:1046400023F4804323F07003FB817A683B681B7876
:104650009B001A44FB8943F07F4343F47F0343F4F8
:10466000004343F080039BB213804DE13B685B78CD
:10467000002B40F0A5807A683B681B789B001344B0
:104680001B883B843B8C03F48043002B1BD07A684F
:104690003B681B789B0013441B889BB223F4E043C8
:1046A00023F07003FB837A683B681B789B001A44F5
:1046B000FB8B43F07F4343F47F0343F4404343F0D9
:1046C00080039BB213807A683B681B789B0013447D
:1046D0001B88BB83BB8B03F04003002B1BD07A6885
:1046E0003B681B789B0013441B889BB223F4E04378
:1046F00023F070037B837A683B681B789B001A4425
:104700007B8B43F07F4343F47F0343F4004343F048
:10471000C0039BB213807A683B681B789B001344EC
:104720001B889BB223F4E04323F070033B837A6839
:104730003B681B789B001A443B8B43F07F4343F458
:104740007F0343F4004343F0C0039BB213807A68B5
:104750003B681B789B0013441B889BB223F4804367
:1047600023F07003FB827A683B681B789B001A4435
:10477000FB8A43F07F4343F47F0343F4004343F059
:1047800080039BB213807A683B681B789B001344BC
:104790001B889BB223F4E04323F04003BB827A687A
:1047A0003B681B789B001A44BB8A43F07F4343F469
:1047B0007F0343F4004343F080039BB21380A3E0E4
:1047C0007A683B681B789B0013441B88FB85FB8D34
:1047D00003F48043002B1BD07A683B681B789B0056
:1047E00013441B889BB223F4E04323F07003BB8582
:1047F0007A683B681B789B001A44BB8D43F07F436B
:1048000043F47F0343F4404343F080039BB213809F
:104810007A683B681B789B0013441B887B857B8DE3
:1048200003F04003002B1BD07A683B681B789B0089
:1048300013441B889BB223F4E04323F070033B85B1
:104840007A683B681B789B001A443B8D43F07F439A
:1048500043F47F0343F4004343F0C0039BB213804F
:104860007A683B681B789B0013441B889BB223F437
:10487000E04323F07003FB847A683B681B789B005D
:104880001A44FB8C43F07F4343F47F0343F44043DB
:1048900043F080039BB213807A683B681B789B00CF
:1048A00013441B889BB223F4E04323F04003BB84F2
:1048B0007A683B681B789B001A44BB8C43F07F43AB
:1048C00043F47F0343F4004343F080039BB213801F
:1048D0007A683B681B789B0013441B889BB223F4C7
:1048E000804323F070037B847A683B681B789B00CD
:1048F0001A447B8C43F07F4343F47F0343F400432B
:1049000043F080039BB21380002318463437BD4622
:104910005DF8047B704780B5ACB000AF786039605B
:104920003B685B78012B40F0CA843B689A693B681E
:104930001B699A4204D93B681B69C7F8AC3003E095
:104940003B689B69C7F8AC303B681B7B002B22D1CE
:104950003B6859693B68DA88D7F8AC309BB2786815
:1049600000F0DEFE7B683B617B68B3F850309BB2A1
:104970001A463B6913443B613B681B78DA003B698C
:10498000134403F20243FB60D7F8AC309AB2FB68E1
:104990001A8000F06FBC3B68DB78022B40F01E836E
:1049A0003B681A6A3B681B699A4240F2CF827A6878
:1049B0003B681B789B0013441B889BB223F4E043A5
:1049C00023F07003A7F856307A683B681B789B0089
:1049D0001A44B7F8563043F07F4343F47F0343F45F
:1049E000014343F080039BB213803B681A6AD7F8F7
:1049F000AC30D21A3B681A627A683B681B789B001D
:104A000013441B889BB203F04003002B00F04F813E
:104A10007B683B633B685B78002B6BD17B68BB6238
:104A20007B68B3F850309BB21A46BB6A1344BB6232
:104A30003B681B78DA00BB6A134403F206437B62CF
:104A40007B6A1B889BB2C3F309039AB27B6A1A8004
:104A5000D7F8AC30002B0AD17B6A1B889BB26FEA77
:104A600043436FEA53439AB27B6A1A805BE0D7F8FC
:104A7000AC303E2B1CD8D7F8AC305B08C7F8A83058
:104A8000D7F8AC3003F00103002B04D0D7F8A830DE
:104A90000133C7F8A8307B6A1B889AB2D7F8A830D0
:104AA0009BB29B029BB213439AB27B6A1A803AE094
:104AB000D7F8AC305B09C7F8A830D7F8AC3003F0B2
:104AC0001F03002B04D1D7F8A830013BC7F8A8304A
:104AD0007B6A1B889AB2D7F8A8309BB29B029BB224
:104AE00013439BB26FEA43436FEA53439AB27B6A24
:104AF0001A8018E03B685B78012B14D17B68B3F80F
:104B000050309BB21A463B6B13443B633B681B78A7
:104B1000DA003B6B134403F20643FB62D7F8AC3078
:104B20009AB2FB6A1A803B685B89A7F876303B68CB
:104B30005969D7F8AC309BB2B7F87620786800F0A6
:104B4000EFFD3B685A69D7F8AC301A443B685A61AC
:104B50003B681A6A3B681B699A4207D93B681A6A24
:104B6000D7F8AC30D21A3B681A6206E03B681B6A81
:104B7000C7F8AC303B6800221A623B685B78002BB8
:104B80006BD17B68BB617B68B3F850309BB21A462F
:104B9000BB691344BB613B681B78DA00BB691344F3
:104BA00003F202437B617B691B889BB2C3F3090359
:104BB0009AB27B691A80D7F8AC30002B0AD17B6996
:104BC0001B889BB26FEA43436FEA53439AB27B69F7
:104BD0001A805DE0D7F8AC303E2B1CD8D7F8AC304B
:104BE0005B08C7F8A430D7F8AC3003F00103002B02
:104BF00004D0D7F8A4300133C7F8A4307B691B88F0
:104C00009AB2D7F8A4309BB29B029BB213439AB2DC
:104C10007B691A803CE0D7F8AC305B09C7F8A43058
:104C2000D7F8AC3003F01F03002B04D1D7F8A43021
:104C3000013BC7F8A4307B691B889AB2D7F8A4302F
:104C40009BB29B029BB213439BB26FEA43436FEA52
:104C500053439AB27B691A801AE03B685B78012B58
:104C600016D17B683B627B68B3F850309BB21A4622
:104C70003B6A13443B623B681B78DA003B6A13448F
:104C800003F20243FB61D7F8AC309AB2FB691A8099
:104C90003B681B89A7F876303B685969D7F8AC3078
:104CA0009BB2B7F87620786800F03AFDE2E23B6804
:104CB0005B78002B6BD17B68BB647B68B3F85030AA
:104CC0009BB21A46BB6C1344BB643B681B78DA008A
:104CD000BB6C134403F202437B647B6C1B889BB266
:104CE000C3F309039AB27B6C1A80D7F8AC30002B5F
:104CF0000AD17B6C1B889BB26FEA43436FEA534334
:104D00009AB27B6C1A805DE0D7F8AC303E2B1CD891
:104D1000D7F8AC305B08C7F8A030D7F8AC3003F058
:104D20000103002B04D0D7F8A0300133C7F8A0301E
:104D30007B6C1B889AB2D7F8A0309BB29B029BB2C7
:104D400013439AB27B6C1A803CE0D7F8AC305B0915
:104D5000C7F8A030D7F8AC3003F01F03002B04D104
:104D6000D7F8A030013BC7F8A0307B6C1B889AB203
:104D7000D7F8A0309BB29B029BB213439BB26FEA61
:104D800043436FEA53439AB27B6C1A801AE03B6844
:104D90005B78012B16D17B683B657B68B3F850309C
:104DA0009BB21A463B6D13443B653B681B78DA00A7
:104DB0003B6D134403F20243FB64D7F8AC309AB264
:104DC000FB6C1A803B681B89A7F876303B685969F1
:104DD000D7F8AC309BB2B7F87620786800F0A0FC2A
:104DE0003B685A69D7F8AC301A443B685A613B6853
:104DF0001A6A3B681B699A4207D93B681A6AD7F856
:104E0000AC30D21A3B681A6206E03B681B6AC7F8EE
:104E1000AC303B6800221A627B683B643B685B787D
:104E2000002B6BD17B68BB637B68B3F850309BB2BF
:104E30001A46BB6B1344BB633B681B78DA00BB6B41
:104E4000134403F206437B637B6B1B889BB2C3F363
:104E500009039AB27B6B1A80D7F8AC30002B0AD1C9
:104E60007B6B1B889BB26FEA43436FEA53439AB252
:104E70007B6B1A805BE0D7F8AC303E2B1CD8D7F8A0
:104E8000AC305B08C7F89C30D7F8AC3003F00103B6
:104E9000002B04D0D7F89C300133C7F89C307B6BD3
:104EA0001B889AB2D7F89C309BB29B029BB21343EB
:104EB0009AB27B6B1A803AE0D7F8AC305B09C7F83E
:104EC0009C30D7F8AC3003F01F03002B04D1D7F887
:104ED0009C30013BC7F89C307B6B1B889AB2D7F89B
:104EE0009C309BB29B029BB213439BB26FEA43433D
:104EF0006FEA53439AB27B6B1A8018E03B685B7889
:104F0000012B14D17B68B3F850309BB21A463B6C2E
:104F100013443B643B681B78DA003B6C134403F298
:104F20000643FB63D7F8AC309AB2FB6B1A803B6840
:104F30005B89A7F876303B685969D7F8AC309BB2EB
:104F4000B7F87620786800F0EBFB93E13B681B6ACA
:104F5000C7F8AC307A683B681B789B0013441B8809
:104F60009BB223F4E24323F07003A7F862307A681F
:104F70003B681B789B001A44B7F8623043F07F43CC
:104F800043F47F0343F4004343F080039BB2138058
:104F90007B68FB657B68B3F850309BB21A46FB6DAB
:104FA0001344FB653B681B78DA00FB6D134403F286
:104FB0000243BB65D7F8AC309AB2BB6D1A803B6830
:104FC0001B89A7F876303B685969D7F8AC309BB29B
:104FD000B7F87620786800F0A3FB4BE13B681A6ACB
:104FE000D7F8AC30D21A3B681A627A683B681B78F3
:104FF0009B0013441B889BB203F04003002B00F07E
:105000009A807B683B673B685B78002B6BD17B6841
:10501000BB667B68B3F850309BB21A46BB6E134434
:10502000BB663B681B78DA00BB6E134403F2064391
:105030007B667B6E1B889BB2C3F309039AB27B6EBF
:105040001A80D7F8AC30002B0AD17B6E1B889BB23C
:105050006FEA43436FEA53439AB27B6E1A805BE078
:10506000D7F8AC303E2B1CD8D7F8AC305B08C7F86B
:105070009830D7F8AC3003F00103002B04D0D7F8F8
:1050800098300133C7F898307B6E1B889AB2D7F8F6
:1050900098309BB29B029BB213439AB27B6E1A80EC
:1050A0003AE0D7F8AC305B09C7F89830D7F8AC30A5
:1050B00003F01F03002B04D1D7F89830013BC7F849
:1050C00098307B6E1B889AB2D7F898309BB29B02BF
:1050D0009BB213439BB26FEA43436FEA53439AB2C6
:1050E0007B6E1A8018E03B685B78012B14D17B68DB
:1050F000B3F850309BB21A463B6F13443B673B6892
:105100001B78DA003B6F134403F20643FB66D7F8C3
:10511000AC309AB2FB6E1A803B685B89A7F8763098
:105120003B685969D7F8AC309BB2B7F876207868FD
:1051300000F0F6FA9EE03B685B78002B6BD17B6851
:10514000FB677B68B3F850309BB21A46FB6F134481
:10515000FB673B681B78DA00FB6F134403F20243E2
:10516000BB67BB6F1B889BB2C3F309039AB2BB6FCB
:105170001A80D7F8AC30002B0AD1BB6F1B889BB2CA
:105180006FEA43436FEA53439AB2BB6F1A8063E0FE
:10519000D7F8AC303E2B1CD8D7F8AC305B08C7F83A
:1051A0009430D7F8AC3003F00103002B04D0D7F8CB
:1051B00094300133C7F89430BB6F1B889AB2D7F88C
:1051C00094309BB29B029BB213439AB2BB6F1A807E
:1051D00042E0D7F8AC305B09C7F89430D7F8AC3070
:1051E00003F01F03002B04D1D7F89430013BC7F81C
:1051F0009430BB6F1B889AB2D7F894309BB29B0255
:105200009BB213439BB26FEA43436FEA53439AB294
:10521000BB6F1A8020E03B685B78012B1CD17B6858
:10522000C7F884307B68B3F850309BB21A46D7F881
:1052300084301344C7F884303B681B78DA00D7F811
:105240008430134403F20243C7F88030D7F8AC30FF
:105250009AB2D7F880301A803B681B89A7F876305D
:105260003B685969D7F8AC309BB2B7F876207868BC
:1052700000F056FA7A683B681B789B0013441B8841
:105280009BB223F4E04323F040037B817B8983F0CE
:1052900010037B817B8983F020037B817A683B68E4
:1052A0001B789B001A447B8943F07F4343F47F03C0
:1052B00043F4004343F080039BB21380D5E03B6886
:1052C0001B7B002B56D13B689B69002B22D13B688E
:1052D000DB78002B1ED17A683B681B789B00134457
:1052E0001B889BB223F4E04323F07003A7F88E30B1
:1052F0007A683B681B789B001A44B7F88E3043F0FD
:105300007F4343F47F0343F4014343F080039BB2A4
:1053100013801DE07A683B681B789B0013441B8850
:105320009BB223F4E24323F07003A7F88C307A6831
:105330003B681B789B001A44B7F88C3043F07F43DE
:1053400043F47F0343F4004343F080039BB2138094
:105350003B689A693B681B699A4207D93B689A691E
:105360003B681B69D21A3B689A6154E03B68002293
:105370009A6150E03B68DB78022B42D13B68DB69E5
:10538000002B48D07A683B681B789B0013441B882D
:10539000A7F89230B7F8923003F48043002B05D081
:1053A000B7F8923003F04003002B0BD1B7F89230DE
:1053B00003F48043002B2ED1B7F8923003F0400362
:1053C000002B28D17A683B681B789B0013441B880C
:1053D0009BB223F4E04323F07003A7F890307A687F
:1053E0003B681B789B001A44B7F8903043F07F432A
:1053F00043F47F0343F4004343F0C0039BB21380A4
:1054000009E03B68DB78012B03D13B6800229A61FD
:1054100001E001232AE07A683B681B789B00134473
:105420001B889BB223F4804323F07003A7F88A30D3
:10543000B7F88A3083F48053A7F88A30B7F88A30F7
:1054400083F40053A7F88A307A683B681B789B0086
:105450001A44B7F88A3043F07F4343F47F0343F4A0
:10546000004343F080039BB2138000231846B037FB
:10547000BD4680BD80B485B000AF786039603B68C0
:105480005B78002B20D07A683B681B789B00134424
:105490001B889BB223F4E04323F04003BB81BB890C
:1054A00083F01003BB817A683B681B789B001A4429
:1054B000BB8943F07F4343F47F0343F4004343F04D
:1054C00080039BB213801FE07A683B681B789B00C7
:1054D00013441B889BB223F4804323F07003FB81A9
:1054E000FB8983F48053FB817A683B681B789B00BF
:1054F0001A44FB8943F07F4343F47F0343F40043A2
:1055000043F080039BB21380002318461437BD4636
:105510005DF8047B704780B487B000AF7860396075
:105520003B685B78002B4CD07A683B681B789B000B
:1055300013441B883B823B8A03F04003002B1BD0A3
:105540007A683B681B789B0013441B889BB223F44A
:10555000E04323F07003FB817A683B681B789B0073
:105560001A44FB8943F07F4343F47F0343F4004331
:1055700043F0C0039BB213803B68DB78012B6CD0F7
:105580007A683B681B789B0013441B889BB223F40A
:10559000E04323F04003BB81BB8983F02003BB8140
:1055A0007A683B681B789B001A44BB8943F07F43B1
:1055B00043F47F0343F4004343F080039BB2138022
:1055C0004BE07A683B681B789B0013441B88FB8286
:1055D000FB8A03F48043002B1BD07A683B681B785E
:1055E0009B0013441B889BB223F4E04323F0700319
:1055F000BB827A683B681B789B001A44BB8A43F0E5
:105600007F4343F47F0343F4404343F080039BB262
:1056100013807A683B681B789B0013441B889BB2FD
:1056200023F4804323F070037B827B8A83F48053CE
:105630007B827B8A83F400537B827A683B681B7889
:105640009B001A447B8A43F07F4343F47F0343F477
:10565000004343F080039BB21380002318461C379D
:10566000BD465DF8047B704780B483B000AF7860BE
:105670000B46FB70FB78002B03D17B688022A3F8DC
:105680004C20002318460C37BD465DF8047B70475C
:1056900080B483B000AF78607B68B3F858309BB2B9
:1056A0006FEA43436FEA53439AB27B68A3F85820EA
:1056B000002318460C37BD465DF8047B704780B464
:1056C00083B000AF78607B68B3F858309BB2C3F307
:1056D0000E039AB27B68A3F85820002318460C37B3
:1056E000BD465DF8047B704780B485B000AF78603C
:1056F0007B68B3F844309BB2FB60FB6818461437F4
:10570000BD465DF8047B704780B483B000AF78601D
:105710003960002318460C37BD465DF8047B70479E
:1057200080B48BB000AFF860B96011461A460B46E2
:10573000FB801346BB80BB8801335B08BB61FB6801
:105740007B61BB68FB61FA887B69134403F5806366
:105750003B62BB697B621BE0FB691B787B82FB6958
:1057600001331B781B021AB2B7F9123013431BB274
:105770007B823B6A7A8A1A803B6A02333B62FB690E
:105780000133FB61FB690133FB617B6A013B7B6297
:105790007B6A002BE0D100BF00BF2C37BD465DF80F
:1057A000047B704780B48BB000AFF860B9601146DD
:1057B0001A460B46FB801346BB80BB885B089BB236
:1057C000BB61FB687B61BB68FB61FA887B69134442
:1057D00003F580633B62BB697B6218E03B6A1B8810
:1057E0009BB23B613B6A02333B623B69DAB2FB69C5
:1057F0001A70FB690133FB613B691B0ADAB2FB6972
:105800001A70FB690133FB617B6A013B7B627B6A37
:10581000002BE3D1BB8803F001039BB2002B07D020
:105820003B6A1B889BB23B613B69DAB2FB691A7029
:1058300000BF2C37BD465DF8047B704780B582B051
:1058400000AF0023FB71032001F0C0FC0F2000F02B
:105850000DF80346002B02D00123FB7101E0FBF79A
:10586000A5FCFB7918460837BD4680BD80B584B0DD
:1058700000AF78600023FB73174B1B78002B23D0FD
:10588000164B1A68144B1B7819464FF47A73B3FB06
:10589000F1F3B2FBF3F3184601F0CDFC0346002B05
:1058A0000FD17B680F2B09D8002279684FF0FF30A9
:1058B00001F097FC0A4A7B68136007E00123FB7341
:1058C00004E00123FB7301E00123FB73FB7B18461B
:1058D0001037BD4680BD00BFD8000020DC0000208E
:1058E000D400002080B400AF064B1B781A46064B4C
:1058F0001B681344044A136000BFBD465DF8047B77
:10590000704700BFD80000202016002080B400AFF0
:10591000034B1B681846BD465DF8047B704700BF0B
:105920002016002080B584B000AF7860FFF7EEFF4E
:10593000B8607B68FB60FB68B3F1FF3F05D00A4BA2
:105940001B781A46FB681344FB6000BFFFF7DEFFBD
:105950000246BB68D31AFA689A42F7D800BF00BF64
:105960001037BD4680BD00BFD800002080B58AB08A
:1059700000AF78607B68002B02D1012300F04FBCA0
:10598000974B9B6803F00C033B62954BDB6803F07D
:105990000303FB617B681B6803F01003002B00F01E
:1059A000E6803B6A002B07D03B6A0C2B40F08D80D1
:1059B000FB69012B40F08980894B1B6803F00203CF
:1059C000002B06D07B68DB69002B02D1012300F09D
:1059D00026BC7B685A6A824B1B6803F00803002BC5
:1059E00004D07F4B1B6803F0F00305E07C4BD3F839
:1059F00094301B0903F0F003934224D27B685B6A66
:105A0000184600F0A1FD0346002B02D0012300F050
:105A100006BC734B1B68724A43F008031360704B5B
:105A20001B6823F0F0027B685B6A6D4913430B60CF
:105A30006B4B5B6823F47F427B681B6A1B026849DF
:105A400013434B6025E0664B1B68654A43F008032F
:105A50001360634B1B6823F0F0027B685B6A60494C
:105A600013430B605E4B5B6823F47F427B681B6AC9
:105A70001B025B4913434B603B6A002B09D17B68D7
:105A80005B6A184600F060FD0346002B01D001233D
:105A9000C5E300F0CDFC0246514B9B681B0903F0A7
:105AA0000F035049CB5C03F01F0322FA03F34E4A65
:105AB00013604E4B1B681846FFF7D8FE0346FB7574
:105AC000FB7D002B52D0FB7DA9E37B68DB69002BBB
:105AD00032D0434B1B68424A43F001031360FFF787
