:020000040800F2
:100000000080002099FD0008F3690008FB690008E2
:10001000036A00080B6A0008136A00080000000069
:100020000000000000000000000000001B6A000843
:10003000296A000800000000376A0008456A0008C5
:10004000E9FD0008E9FD0008E9FD0008E9FD0008F8
:10005000E9FD0008E9FD0008E9FD0008E9FD0008E8
:10006000E9FD0008E9FD0008E9FD0008E9FD0008D8
:10007000E9FD0008E9FD0008E9FD0008E9FD0008C8
:10008000E9FD0008E9FD0008E9FD000800000000A6
:10009000000000000000000000000000E9FD000872
:1000A000E9FD0008E9FD0008E9FD0008E9FD000898
:1000B000E9FD00080000000000000000E9FD000864
:1000C000E9FD0008E9FD0008E9FD0008E9FD000878
:1000D000E9FD0008E9FD0008E9FD0008E9FD000868
:1000E000E9FD0008E9FD0008000000000000000034
:1000F0000000000000000000000000000000000000
:1001000000000000000000000000000000000000EF
:100110000000000000000000E9FD000800000000F1
:10012000E9FD0008E9FD0008E9FD0008E9FD000817
:10013000E9FD0008000000000000000000000000D1
:10014000E9FD0008E9FD0008E9FD0008516A000822
:10015000E9FD0008E9FD0008E9FD0008E9FD0008E7
:10016000E9FD0008E9FD00080000000000000000B3
:1001700000000000E9FD0008000000000000000091
:10018000E9FD0008E9FD0008E9FD000800000000A5
:1001900001F0FF01102A2BDB10F0070F08D010F838
:1001A000013B013A8B422DD010F0070F42B3F6D13C
:1001B000F0B441EA012141EA014122F007047FF055
:1001C00000070023F0E80256083C85EA010586EAAC
:1001D000010685FA47F5A3FA87F586FA47F6A5FAE8
:1001E00087F68EB9EED1F0BC01F0FF0102F00702F4
:1001F00032B110F8013B013A83EA010313B1F8D19F
:100200000020704701387047002D06BF354603387F
:10021000073815F0010F07D1013015F4807F02BFB8
:10022000013015F4C03F0130F0BC0138704700BF09
:10023000034613F8012B002AFBD1181A0138704726
:1002400081F0004102E000BF83F0004330B54FEA87
:1002500041044FEA430594EA050F08BF90EA020FF4
:100260001FBF54EA000C55EA020C7FEA645C7FEA87
:10027000655C00F0E2804FEA5454D4EB5555B8BFAA
:100280006D420CDD2C4480EA020281EA030382EA1B
:10029000000083EA010180EA020281EA0303362DAD
:1002A00088BF30BD11F0004F4FEA01314FF4801C80
:1002B0004CEA113102D0404261EB410113F0004F92
:1002C0004FEA03334CEA133302D0524263EB430349
:1002D00094EA050F00F0A780A4F10104D5F1200EE7
:1002E0000DDB02FA0EFC22FA05F2801841F1000142
:1002F00003FA0EF2801843FA05F359410EE0A5F116
:1003000020050EF1200E012A03FA0EFC28BF4CF046
:10031000020C43FA05F3C01851EBE37101F00045FC
:1003200007D54FF0000EDCF1000C7EEB00006EEB09
:100330000101B1F5801F1BD3B1F5001F0CD3490893
:100340005FEA30004FEA3C0C04F101044FEA4452EA
:1003500012F5800F80F09A80BCF1004F08BF5FEA71
:10036000500C50F1000041EB045141EA050130BD51
:100370005FEA4C0C404141EB0101013C28BFB1F563
:10038000801FE9D291F0000F04BF01460020B1FAAE
:1003900081F308BF2033A3F10B03B3F120020CDA81
:1003A0000C3208DD02F1140CC2F10C0201FA0CF05F
:1003B00021FA02F10CE002F11402D8BFC2F1200CC4
:1003C00001FA02F120FA0CFCDCBF41EA0C0190407A
:1003D000E41AA2BF01EB0451294330BD6FEA0404C3
:1003E0001F3C1CDA0C340EDC04F11404C4F12002AE
:1003F00020FA04F001FA02F340EA030021FA04F3C0
:1004000045EA030130BDC4F10C04C4F1200220FA16
:1004100002F001FA04F340EA0300294630BD21FA54
:1004200004F0294630BD94F0000F83F4801306BF1A
:1004300081F480110134013D4EE77FEA645C18BF0E
:100440007FEA655C29D094EA050F08BF90EA020FA5
:1004500005D054EA000C04BF1946104630BD91EA9D
:10046000030F1EBF0021002030BD5FEA545C05D1A0
:100470004000494128BF41F0004130BD14F58004DF
:100480003CBF01F5801130BD01F0004545F0FE4153
:1004900041F470014FF0000030BD7FEA645C1ABF88
:1004A000194610467FEA655C1CBF0B46024650EABF
:1004B000013406BF52EA033591EA030F41F40021EB
:1004C00030BD00BF90F0000F04BF0021704730B571
:1004D0004FF4806404F132044FF000054FF0000146
:1004E00050E700BF90F0000F04BF0021704730B507
:1004F0004FF4806404F1320410F0004548BF4042DC
:100500004FF000013EE700BF42004FEAE2014FEA30
:1005100031014FEA02701FBF12F07F4393F07F4F0B
:1005200081F06051704732F07F4208BF704793F00E
:100530007F4F04BF41F40021704730B54FF4607421
:1005400001F0004521F000411CE700BF50EA010224
:1005500008BF704730B54FF000050AE050EA0102CD
:1005600008BF704730B511F0004502D5404261EB3D
:1005700041014FF4806404F132045FEA915C3FF47E
:10058000D8AE4FF003025FEADC0C18BF03325FEA1B
:10059000DC0C18BF033202EBDC02C2F1200300FACC
:1005A00003FC20FA02F001FA03FE40EA0E0021FAF1
:1005B00002F11444BDE600BF70B54FF0FF0C4CF4DF
:1005C000E06C1CEA11541DBF1CEA135594EA0C0F91
:1005D00095EA0C0F00F0DEF82C4481EA030621EACC
:1005E0004C5123EA4C5350EA013518BF52EA033507
:1005F00041F4801143F4801338D0A0FB02CE4FF0B9
:100600000005E1FB02E506F00042E0FB03E54FF0E8
:100610000006E1FB03569CF0000F18BF4EF0010EE0
:10062000A4F1FF04B6F5007F64F5407404D25FEADC
:100630004E0E6D4146EB060642EAC62141EA55518F
:100640004FEAC52040EA5E504FEACE2EB4F1FD0CD1
:1006500088BFBCF5E06F1ED8BEF1004F08BF5FEA4F
:10066000500E50F1000041EB045170BD06F0004601
:1006700046EA010140EA020081EA0301B4EB5C04AE
:10068000C2BFD4EB0C0541EA045170BD41F48011A6
:100690004FF0000E013C00F3AB8014F1360FDEBFCB
:1006A000002001F0004170BDC4F10004203C35DAA7
:1006B0000C341BDC04F11404C4F1200500FA05F32A
:1006C00020FA04F001FA05F240EA020001F00042CB
:1006D00021F0004110EBD37021FA04F642EB060141
:1006E0005EEA430E08BF20EAD37070BDC4F10C046B
:1006F000C4F1200500FA04F320FA05F001FA04F22F
:1007000040EA020001F0004110EBD37041F100011A
:100710005EEA430E08BF20EAD37070BDC4F1200525
:1007200000FA05F24EEA020E20FA04F301FA05F28D
:1007300043EA020321FA04F001F0004121FA04F235
:1007400020EA020000EBD3705EEA430E08BF20EA05
:10075000D37070BD94F0000F0FD101F0004640003F
:1007600041EB010111F4801F08BF013CF7D041EAC1
:10077000060195F0000F18BF704703F000465200C5
:1007800043EB030313F4801F08BF013DF7D043EA96
:100790000603704794EA0C0F0CEA135518BF95EA4C
:1007A0000C0F0CD050EA410618BF52EA4306D1D1D3
:1007B00081EA030101F000414FF0000070BD50EAF2
:1007C000410606BF1046194652EA430619D094EA7C
:1007D0000C0F02D150EA013613D195EA0C0F05D166
:1007E00052EA03361CBF104619460AD181EA0301BA
:1007F00001F0004141F0FE4141F470014FF0000072
:1008000070BD41F0FE4141F4780170BD70B54FF00C
:10081000FF0C4CF4E06C1CEA11541DBF1CEA13558C
:1008200094EA0C0F95EA0C0F00F0A7F8A4EB05046E
:1008300081EA030E52EA03354FEA013100F0888065
:100840004FEA03334FF0805545EA131343EA12632E
:100850004FEA022245EA111545EA10654FEA0026E3
:100860000EF000419D4208BF964244F1FD0404F59C
:10087000407402D25B084FEA3202B61A65EB0305F8
:100880005B084FEA32024FF480104FF4002CB6EBB5
:10089000020E75EB030E22BFB61A754640EA0C0035
:1008A0005B084FEA3202B6EB020E75EB030E22BF75
:1008B000B61A754640EA5C005B084FEA3202B6EBB6
:1008C000020E75EB030E22BFB61A754640EA9C0075
:1008D0005B084FEA3202B6EB020E75EB030E22BF45
:1008E000B61A754640EADC0055EA060E18D04FEA03
:1008F000051545EA16754FEA06164FEAC30343EAA3
:1009000052734FEAC2025FEA1C1CC0D111F4801F6F
:100910000BD141EA00014FF000004FF0004CB6E768
:1009200011F4801F04BF01430020B4F1FD0C88BF07
:10093000BCF5E06F3FF6AFAEB5EB030C04BFB6EB12
:10094000020C5FEA500C50F1000041EB045170BD05
:100950000EF0004E4EEA113114EB5C04C2BFD4EB32
:100960000C0541EA045170BD41F480114FF0000EB6
:10097000013C90E645EA060E8DE60CEA135594EA32
:100980000C0F08BF95EA0C0F3FF43BAF94EA0C0F35
:100990000AD150EA01347FF434AF95EA0C0F7FF4AA
:1009A00025AF104619462CE795EA0C0F06D152EAFE
:1009B00003353FF4FDAE1046194622E750EA4106E2
:1009C00018BF52EA43067FF4C5AE50EA41047FF4F3
:1009D0000DAF52EA43057FF4EBAE12E74FF0FF3C58
:1009E00006E000BF4FF0010C02E000BF4FF0010C29
:1009F0004DF804CD4FEA410C7FEA6C5C4FEA430CA2
:100A000018BF7FEA6C5C1BD001B050EA410C0CBFF0
:100A100052EA430C91EA030F02BF90EA020F002052
:100A2000704710F1000F91EA030F58BF994208BFB9
:100A300090422CBFD8176FEAE37040F00100704776
:100A40004FEA410C7FEA6C5C02D150EA013C07D1CD
:100A50004FEA430C7FEA6C5CD6D152EA033CD3D018
:100A60005DF8040B704700BF8446104662468C4612
:100A70001946634600E000BF01B5FFF7B7FF002845
:100A800048BF10F1000F01BD4DF808EDFFF7F4FF6E
:100A90000CBF012000205DF808FB00BF4DF808EDF9
:100AA000FFF7EAFF34BF012000205DF808FB00BF1C
:100AB0004DF808EDFFF7E0FF94BF012000205DF83E
:100AC00008FB00BF4DF808EDFFF7CEFF94BF0120F3
:100AD00000205DF808FB00BF4DF808EDFFF7C4FFEC
:100AE00034BF012000205DF808FB00BF4FEA410C35
:100AF0007FEA6C5C02D150EA013C0AD14FEA430C18
:100B00007FEA6C5C02D152EA033C02D14FF0000054
:100B100070474FF0010070474FEA410212F5001292
:100B200015D211D56FF47873B3EB625212D94FEA34
:100B3000C12343F0004343EA505311F0004F23FA1E
:100B400002F018BF404270474FF00000704750EA73
:100B5000013005D111F0004008BF6FF00040704730
:100B60004FF00000704700BF4A0011D212F500128A
:100B700011D20DD56FF47873B3EB62520ED44FEAF5
:100B8000C12343F0004343EA505323FA02F0704775
:100B90004FF00000704750EA013002D14FF0FF30B3
:100BA00070474FF0000070474FEA4102B2F1E04356
:100BB00024BFB3F5001CDCF1FE5C0DD901F0004C44
:100BC0004FEAC0024CEA5070B2F1004F40EB830094
:100BD00008BF20F00100704711F0804F21D113F1C0
:100BE0003872BCBF01F00040704741F480114FEAF9
:100BF0005252C2F11802C2F1200C10FA0CF320FA82
:100C000002F018BF40F001004FEAC1234FEAD3239E
:100C100003FA0CFC40EA0C0023FA02F34FEA430308
:100C2000CCE77FEA625307D150EA01331EBF4FF091
:100C3000FE4040F44000704701F0004040F0FE40AC
:100C400040F40000704700BF0348044B834202D0C9
:100C5000034B03B118477047D8020020D802002088
:100C6000000000000548064B1B1AD90F01EBA30139
:100C7000491002D0034B03B118477047D802002037
:100C8000D80200200000000010B5064C237843B9BC
:100C9000FFF7DAFF044B13B10448AFF300800123E0
:100CA000237010BDD802002000000000D407010806
:100CB00008B5054B1BB105490548AFF30080BDE8F9
:100CC0000840FFF7CFBF00BF00000000DC0200209B
:100CD000D40701082DE9FF4757EC106B002F0C4695
:100CE00019463B46BBBF07F100431F4600232D2397
:100CF0000B700D9BDDF830A0914623F02008BCBF9F
:100D000032461646B8F1460F05D0B8F1450F00D16E
:100D10000134022100E0032103AB019302AB0093F5
:100D200047EC106B5346224601F06AF8B8F1470FC2
:100D3000054619D119F0010F0ED000EB040900226D
:100D4000002330463946FFF79FFE08B1CDF80C90DE
:100D50003022039B4B451ED3039B0E9A5B1B2846F8
:100D6000136004B0BDE8F087B8F1460F00EB04094A
:100D7000E5D10378302B0AD10022002330463946D2
:100D8000FFF782FE18B9C4F10104CAF80040DAF88E
:100D900000309944D3E7591C03911A70D9E7F7B58D
:100DA0000029BABF49422D232B2309290270437021
:100DB00029DD0DF1070425460A272246B1FBF7F687
:100DC00007FB1613303302F8013C0B46632B04F18A
:100DD000FF343146F1DC3031931E04F8011C411C14
:100DE0001C46AB420AD30DF109039B1AA54238BF3A
:100DF0000023821C1344181A03B0F0BD13F8016BD2
:100E000001F8016FEDE7302330318370C170031DAD
:100E1000F1E700002DE9F04F8DB00C46DDF8588069
:100E200016461F46054600F0EBFE0368069318467B
:100E3000FFF7FEF900230A93D8F8003094F818A0C1
:100E4000D4F800B00790073323F00703B3EC027B1C
:100E50008DED047BC8F80030DDE9048323F0004900
:100E600084ED127B9C4B4FF0FF3240464946FFF722
:100E70003DFE70BB984B4FF0FF3240464946FFF7AE
:100E800017FE30BBDDE9040100220023FFF706FE58
:100E900010B12D2384F84330904A914BBAF1470F9B
:100EA0008CBF90469846032323612BF004032360F4
:100EB0004FF00009009733460BAA2146284600F060
:100EC000D1F9013040F08C804FF0FF300DB0BDE81B
:100ED000F08FDDE9042310461946FFF707FE40B105
:100EE000059B804A002BBCBF2D2384F843307E4BEA
:100EF000D4E763685A1C0AF0DF093BD1062363601C
:100F00004BF480620023226003930AABCDE901A376
:100F100009AB009361689DED040B0DF12303284696
:100F2000FFF7D8FEB9F1470F0999804629D1C81CAF
:100F300002DB63688B4241DAAAF1020A5FFA8AFA9D
:100F40000139524604F150000991FFF728FF0A9A2F
:100F50001318012A8146236102DC2268D20701D5D9
:100F6000013323619DF82330002BA3D02D2384F877
:100F700043309FE7B9F1470FC2D1002BC0D1012305
:100F8000BDE7BAF1650FDBD9BAF1660F18D10029B8
:100F900063680BDD216113B92268D00702D50133E4
:100FA0000B442361A1654FF00009DBE713B9226808
:100FB000D20701D50233F4E70123F2E74FF0670AC5
:100FC0000A9B8B4205DC23682161D807EAD54B1CBC
:100FD000E7E70029D4BFC1F1020201221344E0E790
:100FE00023685A0507D42369424631462846B84744
:100FF00001302BD168E7BAF1650F40F2DD80D4E90A
:10100000120100220023FFF73FFD002833D0374AAA
:10101000012331462846B84701303FF455AFDDE99A
:101020000938434502DB2368D8070FD5DDE90623DD
:1010300031462846B84701303FF446AF4FF000092B
:1010400008F1FF3804F11A0AC84509DC23689B0738
:1010500000F10381E0680B9B9842B8BF184635E762
:101060000123524631462846B84701303FF42CAFA1
:1010700009F10109E8E7099B002B39DC1B4A012330
:1010800031462846B84701303FF41EAFDDE9093943
:1010900059EA030302D12368D907D7D5DDE906232E
:1010A00031462846B84701303FF40EAF4FF0000AF2
:1010B00004F11A0B099B5B42534501DC4B4693E755
:1010C00001235A4631462846B84701303FF4FCAE6A
:1010D0000AF1010AEEE700BFFFFFEF7F0C090108EC
:1010E000080901081409010810090108F50A010896
:1010F000A36DDDF828A05345A8BF5346002B9946A1
:1011000036DC4FF0000B29EAE97904F11A02A36DED
:101110000493A3EB09035B4531DC099B9A453ADC58
:101120002368DA0737D4099BAAEB0309049BAAEBCF
:1011300003039945A8BF9946B9F1000F33DC4FF07E
:10114000000829EAE97904F11A0B099BAAEB0303C9
:10115000A3EB090343457FF779AF01235A46314694
:101160002846B84701303FF4AFAE08F10108ECE77C
:10117000424631462846B8470130C2D1A4E6012391
:10118000314628460492B84701303FF49DAE049A98
:101190000BF1010BBBE7DDE9062331462846B847D2
:1011A0000130C0D190E6049A4B464244314628466D
:1011B000B8470130C3D187E6DDF828A0BAF1010FA6
:1011C00001DCDB0736D50123424631462846B847C5
:1011D00001303FF479AEDDE9062331462846B847B1
:1011E00001303FF471AED4E91201002200230AF16C
:1011F000FF3AFFF749FCC0B9534608F101023146F6
:101200002846B84701300CD15EE601235A463146E4
:101210002846B84701303FF457AE08F10108D045E1
:10122000F3DB4B4604F15002DFE64FF0000804F117
:101230001A0BF4E701234246E1E701234A4631460F
:101240002846B84701303FF43FAE08F10108E36893
:101250000B995B1A4345F0DCFCE64FF0000804F103
:101260001909F4E72DE9F047164698468A680B6994
:10127000DDF820909342B8BF1346336091F84320C5
:1012800007460C460AB1013333602368990642BF12
:10129000336802333360256815F0060506D104F182
:1012A000190AE36832689B1AAB4226DC94F8433093
:1012B0002268003B18BF012392062BD404F143029D
:1012C00041463846C84701301ED02368226903F0E2
:1012D0000603042B02BFE5683368ED1AA3680CBF50
:1012E00025EAE57500259342C4BF9B1AED18002638
:1012F0001A34B5421AD1002008E001235246414673
:101300003846C847013003D14FF0FF30BDE8F087C1
:101310000135C6E7E1185A1C302081F84300224409
:1013200094F8451082F843100233C7E701232246A0
:1013300041463846C8470130E6D00136D9E70000BB
:101340002DE9FF470F7E0C9E782F914680460C4674
:101350009A4601F1430207D8622F0AD8002F00F005
:10136000D280582F00F0B78004F1420684F8427012
:101370003AE0A7F16303152BF6D801A151F823F049
:10138000D9130008ED130008691300086913000859
:101390006913000869130008ED13000869130008B9
:1013A000691300086913000869130008ED140008A8
:1013B00017140008A3140008691300086913000833
:1013C0000F150008691300081714000869130008B6
:1013D00069130008AB14000833681A1D1B683260DB
:1013E00004F1420684F8423001239DE0336820680E
:1013F000191D3160060601D51D6803E04506FBD5C1
:10140000B3F90050002D03DA2D236D4284F84330E8
:1014100059480A2310E021683368080653F8045B32
:1014200002D4490648BFADB26F2F5348336059D13B
:101430000823002184F843106668A660002E05DBAF
:1014400021682E4321F0040121604DD01646B5FBE2
:10145000F3F103FB1157C75D06F8017D2F46BB4230
:101460000D46F4D9082B0BD12368DF0708D5236973
:1014700061689942DEBF302306F8013C06F1FF3671
:10148000921B2261CDF800A04B4603AA214640469C
:10149000FFF7E8FE01304CD14FF0FF3004B0BDE85B
:1014A000F087236843F0200323603448782784F8CA
:1014B0004570236831681F0651F8045B02D45F064B
:1014C00048BFADB23160D90744BF43F02003236069
:1014D0001DB11023ADE72848E9E7236823F0200376
:1014E0002360F6E70A23A4E71646BBE733682568BE
:1014F0006169181D30602E061B6801D5196002E075
:101500006806FBD51980002323611646BAE73368C5
:101510001A1D32601E68626800213046FEF738FEF0
:1015200008B1801B606063682361002384F8433046
:10153000A8E72369324649464046D0470130ABD040
:1015400023689B0713D4E068039B9842B8BF1846F2
:10155000A4E70123324649464046D04701309BD09C
:101560000135E36803995B1AAB42F2DCEBE7002537
:1015700004F11906F5E700BF180901082909010857
:101580002DE9F04F87B0914603938B685A1EB2F550
:10159000AE7F81BF6FF4AE7503EB050B40F25D13B8
:1015A0008B600B680A464FF0000543F4F06342F885
:1015B0001C3BCDE9045580460C4698BF4FF0000B0C
:1015C00001921646AA462F460295A2685AB1D9F84A
:1015D00000301B784E2B63D8402B3BD8A3F12B0156
:1015E000C8B20E2839D91FB1236823F48073236051
:1015F0000AF1FF3ABAF1010F00F21481019B9E42F9
:1016000000F20581012007B0BDE8F08FA3F161026F
:101610000D2AE8D801A151F822F000BF6517000893
:10162000E7150008E7150008E7150008C1170008CE
:101630009B170008E7150008E71500087317000856
:10164000E7150008E7150008E7150008E71500088A
:101650002F170008A3F14102DAE70E29C3D801A031
:1016600050F821F01F170008E71500081F170008A1
:10167000AF170008E7150008C11600080517000895
:1016800005170008051700080517000805170008CA
:1016900005170008051700080517000805170008BA
:1016A0006E2B09D8602BB1D8542B7BD0592B9AD1F3
:1016B000072D98D108252FE0742B73D0792BF6E7EE
:1016C0002168C8051ED521F0800121600137BBF1DA
:1016D000000F03D001320BF1FF3BA260A368013B76
:1016E000A360236901332361D9F80430013B002B47
:1016F000C9F8043040F38280D9F800300133C9F8CA
:10170000003062E71AEB05017FF46DAF226822F426
:10171000C07222600D468A4606F8013BDEE7226869
:1017200010067FF560AF22F080022260F4E7BAF184
:10173000000F0CD177B9226802F4E061B1F5E06FD7
:1017400008D122F4F06222604FF0010AE4E7BAF116
:10175000020F50D0012D02D0042D7FF444AF01358B
:10176000EDB2D9E7BAF1010F7FF43DAF4FF0020AB5
:10177000D2E775B9002F7FF437AF226802F4E06139
:10178000B1F5E06F40F0028122F4F06222600125A1
:10179000C2E7032DE3D0052DDFE7022D7FF423AF51
:1017A0000325B9E7062D7FF41EAF0725B4E72268AD
:1017B00091057FF518AF22F4207222600297ABE703
:1017C000226802F4A061B1F5806F05D050057FF565
:1017D0000AAF002F00F0DA80910558BF029922F479
:1017E000F06258BF791A42F4C07258BFCDE90416AE
:1017F0002260002790E74FF0030A8DE7D4F880318C
:1018000049464046984700283FF4DFAEEBE6D4F85F
:101810007C3116F8011D4A46404698472369013B32
:101820002361EBE66B1E062B24D8022D36D8019BD4
:101830009E427FF6E7AED4F87C3116F8011D4A4689
:10184000404698472369013B2361F0E7D4F87C3197
:101850001BF8011D4A46404698472369013B236116
:101860000AF1FF3A5FFA8AFABAF1020FEED1033DAC
:10187000EDB2761B2368DA0530D55D0511D5019BE5
:101880009E427FF6BFAED4F87C3116F8011D4A4661
:10189000404698472369013B2361F0E7AA46B346D7
:1018A000DEE716F8011C2369652903F1FF3306F111
:1018B000FF3523610CD045290AD0D4F87C314A4643
:1018C00040469847236916F8021C013BB51E236168
:1018D000D4F87C314A46404698472E46226812F09A
:1018E000100201D000208EE63270236803F4C0633A
:1018F000B3F5806F24D1029B9F420AD0DA1B04F219
:101900006F139E4228BF04F5B7762149304600F098
:1019100007F901990022404602F00EFC039B216862
:101920001B68880757EC106B03F1040215D5039967
:101930000A601B68C3E90067E3680133E360D1E72D
:10194000049B002BE5D005990A230131404602F0A3
:1019500073FC049B059EC21AD1E711F0040F039992
:101960000A60E6D11D6832463B4630463946FFF7ED
:10197000BDF828B1074800F0B5F985ED000ADBE7AE
:1019800030463946FFF710F92860D5E700272FE6E3
:101990003A0901087D0A0108002310B50446C0E990
:1019A0000033C0E90433836081814366C28183616F
:1019B000194608225C3000F01BF90D4B63620D4B99
:1019C000A3620D4BE3620D4B23630D4B24629C42DB
:1019D00006D003F16802944202D0D0339C4205D174
:1019E00004F15800BDE8104000F078B910BD00BF08
:1019F000651B00088B1B0008C31B0008E91B0008BF
:101A0000F4020020024A0349034800F06BB800BF0B
:101A100000000020F94500081000002041680C4B30
:101A2000994210B5044601D002F0E6FDA168094BC9
:101A3000994202D0204602F0DFFDE168064B994250
:101A400004D02046BDE8104002F0D6BD10BD00BF56
:101A5000F40200205C030020C40300200C4B0D4A5C
:101A60000D4810B504211A600022FFF795FF0A4BBC
:101A700001221C46092103F16800FFF78DFF04F1E4
:101A8000D0000222BDE810401221FFF785BF00BF41
:101A90002C040020051A0008F4020020014800F080
:101AA0001EB900BF35040020014800F019B900BF7D
:101AB0003504002010B50446FFF7F0FF236A1BB180
:101AC000BDE81040FFF7F0BF044B2362044B1B68D6
:101AD000002BF5D1FFF7C2FFF2E700BF1D1A000887
:101AE0002C0400202DE9F8430746884614460026BA
:101AF000D4E90195B9F1010905D52468002CF7D185
:101B00003046BDE8F883AB89012B07D9B5F90E3013
:101B1000013303D029463846C04706436835E9E714
:101B20000EB410B59DB01FAB029006906FF000414F
:101B30000A48079104910A4953F8042B059100249F
:101B400002A9006801931B9402F0D8FB029B1C7051
:101B50001DB0BDE8104003B0704700BF0C0000206E
:101B60000802FFFF10B50C46B1F90E1000F06EF838
:101B70000028ABBF636DA3891B1823F48053ACBF4F
:101B80006365A38110BD002070472DE9F0411F4619
:101B90008B89DB0505460C46164605D5B1F90E10B6
:101BA0000223002200F040F8A389B4F90E1023F4B8
:101BB0008053A38132463B462846BDE8F04100F001
:101BC00057B810B50C46B1F90E1000F02DF8B4F965
:101BD0000C30421C0BBF23F4805343F48053A38189
:101BE000A38118BF606510BDB1F90E1000F00CB8EC
:101BF00002440346934200D1704703F8011BF9E702
:101C0000004870474C01002038B5064D00230446BB
:101C100008462B600EF08CF8431C02D12B6803B1F0
:101C2000236038BD3004002038B5074D044608460F
:101C3000114600222A601A460EF0A1F8431C02D178
:101C40002B6803B1236038BD3004002038B5074D40
:101C500004460846114600222A601A460EF02FF864
:101C6000431C02D12B6803B1236038BD300400202F
:101C700038B5074D04460846114600222A601A4628
:101C80000EF03AF8431C02D12B6803B1236038BD33
:101C90003004002070B50D4B0D4D5B1B9C100026D1
:101CA000A64209D10EF096FD0A4D0B4B5B1B9C1012
:101CB0000026A64205D170BD55F8043B9847013671
:101CC000EEE755F8043B98470136F2E7980D010816
:101CD000980D0108980D01089C0D01087047704788
:101CE000704700009FED010A704700BF0000C07FF1
:101CF0002DE9F74F03690C69A34207467EDB013CDF
:101D000001F11408A30000F11405009305EB84030E
:101D1000019358F8243055F8242001339A4208EBF7
:101D20008409B2FBF3F62ED34FF0000AC446AE4648
:101D3000D3465CF8043B98B206FB00A0020C1B0CD7
:101D400006FB0323DEF8002080B292B2121A5A4436
:101D5000DEF800004FEA134A9BB2C3EB224303EBC9
:101D6000104392B242EA0342E1454EF8042B4FEA97
:101D7000234BDED2009BEB582BB9019B043B9D42C9
:101D80001A462FD33C61384601F0E8F9002825DBDC
:101D90002946002058F8042BD1F800C01FFA82FE13
:101DA0001FFA8CF3A3EB0E030344120CC2EB234285
:101DB00002EB1C429BB243EA0243C14541F8043B9B
:101DC0004FEA2240E6D255F8242005EB840322B9DD
:101DD000043B9D421A460BD33C610136304603B0AA
:101DE000BDE8F08F1268043B002ACBD1013CC6E766
:101DF0001268043B002AEFD1013CEAE70020EEE73D
:101E00002DE9F04F99B08DED0E0B0C92C269229C1A
:101E10000A9157EC106B8146139382B9102000F0A1
:101E200019FE0246C9F81C0020B9AD4BEF21AD48A0
:101E300002F062FC0023C0E901330360C360116853
:101E400059B152684A60012393408B60484600F0C4
:101E5000FDFED9F81C3000221A60B7F10008B5BFAA
:101E600001230023236023609F4BBCBF28F0004860
:101E7000CDF83C8033EA08031AD1139AC8F313084B
:101E800042F20F7358EA0608136000F06C85239B3A
:101E900053B9964B21E0964B00930833239A136075
:101EA000009819B0BDE8F08F904B00930333F5E72D
:101EB0009DED0E7B002251EC170B00238DED067B70
:101EC000FEF7E2FD824650B1139A01231360239B73
:101ED00013B1239A874B1360874B0093E0E79DED86
:101EE000060B16AA17A9484601F05CFA5FEA1854D7
:101EF000169D019079D0079BCDF850A0C3F3130332
:101F0000DDE9060143F07F5343F44013A4F2FF34AC
:101F100019460022794BFEF797F96BA3D3E900230A
:101F2000FEF74AFB6AA3D3E90023FEF78FF90646C2
:101F300020460F46FEF7D6FA67A3D3E90023FEF743
:101F40003BFB02460B4630463946FEF77FF9064614
:101F50000F46FEF7E1FD0022804600233046394659
:101F6000FEF79CFD48B14046FEF7BCFA32463B46C0
:101F7000FEF78AFD08B908F1FF38B8F1160F51D8FD
:101F80005F4B03EBC803D3E90023DDE90601FEF74D
:101F900085FD002848D008F1FF38002312932D1B3F
:101FA0006B1E089343BF0023C5F101070893002768
:101FB000B8F1000F3ADB089BCDF834804344089316
:101FC000002309930A9B092B64D8052BC4BF043B4B
:101FD0000A930A9BA3F10203CCBF00240124032B24
:101FE00064D8DFE803F05355362B179C2C4404F2D9
:101FF0003243202BC1BFC3F1400308FA03F804F2B7
:10200000124326FA03F3D6BFC3F1200348EA0300C4
:1020100006FA03F0FEF756FA0122A1F1F873013C2B
:10202000149275E70123B9E71290B8E7C8F10003ED
:1020300009930023A7EB08070D93C3E701230B9334
:102040000C9B434405930133012B0493B8BF012338
:1020500006E001230B930C9B002B2ADDCDE9043312
:10206000D9F81C000021042202F114059D4201F15F
:10207000010623D94160484600F0AAFD00900028DF
:1020800042D1204B024640F2AF11D0E60023E1E7F7
:102090000023D4E701240023CDE90A344FF0FF33B5
:1020A000CDE90433002212230C92D9E701230B93CC
:1020B000F4E70123CDE904331A46F5E7520031462F
:1020C000D2E700BFAFF3008061436F63A787D23FC1
:1020D000B3C8608B288AC63FFB799F501344D33F17
:1020E0004C090108630901080000F07F4809010854
:1020F0003F090108F60A0108F50A01080000F83F47
:10210000300B0108BC090108D9F81C30009A1A608C
:10211000049B0E2B00F2A180002C00F09E80B8F1F1
:10212000000F36DD9E4B08F00F0203EBC20318F4DC
:10213000807FD3E900AB4FEA281516D0994BDDE933
:102140000601D3E90823FEF761FBCDE9020105F0A2
:102150000F050324934E75B9DDE9020152465B4633
:10216000FEF754FB82468B462DE09DED067B022454
:102170008DED027BEEE7E90708D550465946D6E9D2
:102180000023FEF719FA013482468B466D1008369B
:10219000E1E700F0AD80C8F10005814B814E05F00C
:1021A0000F0203EBC203D3E90023DDE90601FEF7CA
:1021B00003FA2D1182468B4600230224002D40F0A5
:1021C0008C80002BCED1129B002B00F09580764B9B
:1021D000002250465946FEF761FC002800F08C8032
:1021E000049B002B00F08880059B002B35DD08F157
:1021F000FF330293504659466C4B0022FEF7DCF940
:10220000059E82468B4601342046FEF76BF9524606
:102210005B46FEF7D1F9664B0022FEF717F804463D
:10222000A1F15075CDE91045002E69D1614B002216
:1022300050465946FEF708F822462B4682468B4602
:10224000FEF74AFC002840F09482224605F1004344
:1022500050465946FEF722FC20BB179B002BC0F2CC
:102260006081B8F10E0F00F35C814D4B03EBC803A6
:10227000D3E900AB0C9B002B80F2EE80049B002B7B
:1022800000F3EA800ED14B4B002250465946FEF730
:1022900093F902460B46DDE90601FEF709FC00282A
:1022A00000F06A8200252C460C9B009EDB430293C3
:1022B000274600242946484600F0C8FC002F00F0BD
:1022C000C1802CB1BC4203D02146484600F0BEFC80
:1022D0003946484600F0BAFCB4E0EA0705D5D6E92D
:1022E0000023FEF769F9013401236D10083665E714
:1022F000DDE906AB022466E7049ECDF8088083E79B
:10230000274B03EBC60353E902010B9B002B55D06F
:1023100002460B4600202849FEF778FADDE9102333
:10232000FDF792FF009BCDE910019D191E4659460D
:102330005046FEF7F1FB0446FEF7D4F802460B4682
:1023400050465946FDF780FF3034DDE9102306F88A
:10235000014B82468B46FEF7A1FB002872D1524604
:102360005B4611490020FDF76FFFDDE91023FEF702
:1023700095FB002840F0B680AE423FF46EAFDDE939
:1023800010010A4B0022FEF717F9084BCDE91001A6
:10239000002250465946FEF70FF982468B46C6E7A3
:1023A000300B0108080B01080000F03F000024403A
:1023B00000001C40000014400000E03FDDE9102355
:1023C000FEF7FAF8009B009DCDE910013344159308
:1023D00059465046FEF7A0FB0446FEF783F830341A
:1023E0000B46024659465046FDF72EFF05F8014BB5
:1023F000159B9D4282468B4627D1009B0022DDE93A
:1024000010011E44B34BFDF721FF02460B46504618
:102410005946FEF761FB002864D1DDE91023AD4980
:102420000020FDF711FF02460B4650465946FEF7C5
:1024300035FB00283FF411AF334616F8012D302A42
:10244000FAD01E46DDF808803AE0A34B0022FEF7E2
:10245000B3F882468B46BBE7009E52465B46DDE9F9
:102460000601FEF7D3F9FEF757FB0746FEF73AF8E9
:1024700052465B46FEF7A0F802460B46DDE9060130
:10248000FDF7E2FE07F1300C009C06F801CBA6EB4D
:10249000040C049C644502460B4633D1FDF7D6FE7E
:1024A00052465B4604460D46FEF716FBC0B952463F
:1024B0005B4620462946FEF7E7FA08B1FB070FD432
:1024C0000199484600F0C2FB0023139A337008F1CB
:1024D00001031360239B002B3FF4E2AC1E60DFE49A
:1024E000CDF8088033461E4613F8012D392A06D14F
:1024F000009A9A42F7D1029A0132029230220132B6
:102500001A709FE7744B0022FEF756F802460B46FE
:10251000CDE9062300220023FEF7B6FA00289CD05E
:10252000CEE70B9A002A00F0E3800A9A012A00F312
:10253000C280149A002A00F0BA8003F23343099D46
:102540003E46089A01211A4448461F44089200F06A
:102550007BFC044656B1089B002B07DDB342089A6A
:10256000A8BF3346FF1AF61AD31A0893099B0BB378
:102570000B9B002B00F0C380002D00F0BD80214696
:102580002A46484600F020FD019A01460446484686
:1025900000F070FC01998246484600F057FB099B09
:1025A0005B1B099300F0AE80099A5146484600F043
:1025B0000BFD01900121484600F046FC0D9B0546AD
:1025C000002B00F0D7811A460146484600F0FCFC7B
:1025D0000A9B012B054600F39D800E9B002B40F0CB
:1025E00094800F9BC3F31303002B40F08E800F9B4E
:1025F00023F000431B0D1B05002B00F08980089B76
:102600000133013708934FF0010A0D9B002B00F0B6
:10261000B7812B6905EB8303186900F0C9FBC0F192
:102620002000089B184410F01F007ED0C0F120034A
:10263000042B72DD089BC0F11C00034407440644D0
:102640000893002F05DD01993A46484600F018FD31
:102650000190089B002B05DD29461A46484600F0EC
:102660000FFD0546129B002B61D00198294600F012
:1026700075FD00285BDA08F1FF330293019900230E
:102680000A22484600F004FB0B9B0190002B00F04F
:102690007981002321460A22484600F0F9FA059B79
:1026A000002B044672DC0A9B022B49DC6EE0169B71
:1026B000C3F1360343E7049B5D1E099BAB420DDB70
:1026C0005D1B049B002BBFF63BAF049BFE1A00234F
:1026D00037E700BF0000E03F00002440099B0D9A4F
:1026E0000995EB1A1A440D92049B3E46002528E7F3
:1026F000099D0B9C3E462DE7DDF804A054E7099A9E
:10270000019953E7CDF804A054E74FF0000A7CE7A5
:102710009A467AE74FF0000A7BE792D0089A1C337A
:102720001A441F441E4408928BE70346F6E7049BB5
:10273000CDF80880002B23DC05930A9B022B21DDBA
:10274000059B002B7FF4B0AD29460522484600F0DA
:102750009FFA01460546019800F000FD00287FF72A
:10276000A3AD009E312306F8013B029B0133029387
:102770009EE535462C46F4E7049DCDF80880F9E740
:10278000049B05930B9B002B00F00081002E05DDC0
:1027900021463246484600F073FC0446BAF1000F69
:1027A0005AD06168484600F013FA064628B9824BB1
:1027B000024640F2EF21FFF73ABB22690232920053
:1027C00004F10C010C3001F081FF01223146484632
:1027D00000F056FC0746009B009A03F1010B059B95
:1027E000134406930E9B03F0010308930BF1FF3390
:1027F000294601980493FFF77BFA2146059000F1E2
:10280000300A019800F0AAFC3A468046294648461C
:1028100000F0C0FCC268064602BB0146019800F009
:102820009DFC024631464846099200F00FFADDE968
:10283000092342EA0301089B19435E4610D1BAF10D
:10284000390F2BD0B8F1000F02DD059B03F1310ADF
:10285000049B83F800A02DE52746BCE70122E1E7B1
:10286000B8F1000F06DB0A9B48EA0308089B58EA08
:10287000030820D1002AEBDD01990122484600F02F
:10288000FFFB2946019000F069FC002803DCDFD142
:102890001AF0010FDCD0BAF1390FD6D1049A3923DE
:1028A000137033461E46013B16F8012C392A52D0CC
:1028B00001321A70FEE4002A07DDBAF1390FEDD0BB
:1028C000049A0AF101031370F4E4069B0BF801ACBF
:1028D0005B452AD0019900230A22484600F0D8F926
:1028E000BC4201904FF000034FF00A0221464846D7
:1028F00006D100F0CDF9044607460BF1010B75E750
:1029000000F0C6F93946044600230A22484600F082
:10291000BFF90746F1E7059B5E1E002B009BD8BF61
:1029200000265A1C274616440024019901224846D5
:1029300000F0A6FB2946019000F010FC0028B0DC56
:1029400002D11AF0010FACD133461E4613F8012D07
:10295000302AFAD0AEE4009A9A42A3D1029B013306
:1029600002933123AFE7239B002B7FF494AA134BF0
:10297000FFF7B3BA0A9B012B7FF72FAEDDF834A027
:1029800001204EE6059B002B7FF7D7AE009E0198F5
:102990002946FFF7ADF900F1300A009B06F801ABBC
:1029A000F21A059B9342B6DD019900230A2248469C
:1029B00000F06EF90190EAE7BC0901083F0901083F
:1029C00038B50546002941D051F8043C0C1F002BB6
:1029D000B8BFE41800F0F0F81D4A136833B963601B
:1029E00014602846BDE8384000F0ECB8A34208D98E
:1029F000206821188B4201BF19685B6809182160A3
:102A0000EDE71A465B680BB1A342FAD9116850187A
:102A1000A0420BD120680144501883421160E0D1DC
:102A200018685B68536008441060DAE702D90C2329
:102A30002B60D6E7206821188B4204BF19685B68B9
:102A4000636004BF091821605460CAE738BD00BF45
:102A50003C040020024B0146186800F02DB800BF6E
:102A60000C000020024B01461868FFF7A9BF00BF09
:102A70000C00002070B50F4E0C463168054611B9A8
:102A800001F00EFE30602146284601F009FE431C8D
:102A900003D14FF0FF34204670BDC41C24F0030462
:102AA000A042F8D0211A284601F0FAFD0130F2D1F7
:102AB000EFE700BF380400202DE9F843CD1C25F0D6
:102AC000030508350C2D38BF0C25002D064601DB0B
:102AD000A94204D90C2333600020BDE8F883DFF855
:102AE000D48000F069F8D8F800301C4644BB294671
:102AF0003046FFF7BFFF431C044658D1D8F80040CA
:102B00002746002F43D1002C4BD02368394630464E
:102B100004EB030901F0C4FD814542D121686D1A1F
:102B200029463046FFF7A6FF01303AD023682B44F0
:102B30002360D8F800305A6862BBC8F800700FE014
:102B40002268521B20D40B2A17D96119A342256091
:102B500018BF5960636808BFC8F8001062514B6025
:102B6000304600F02FF804F10B00231D20F0070081
:102B7000C21A1CBF1B1AA350AFE76268A3420CBF66
:102B8000C8F800205A60EBE723466468AEE73C468D
:102B90007F68B6E71A465B68A342FBD10023536007
:102BA000DEE70C233360304600F00CF894E7056054
:102BB000D6E700BF3C0400200148FFF790B800BFF3
:102BC000340400200148FFF78BB800BF3404002014
:102BD00070B5C46905460E4684B91020FFF73AFF68
:102BE0000446E86128B90246164B17486B2101F0EC
:102BF00083FD0023C0E901330360C360E36853B978
:102C000021220421284601F095FDEB69E060DB6894
:102C10000BB9002070BD53F8260030B1026843F8AC
:102C200026200023C0E90333F4E7012101FA06F46A
:102C3000621D9200284601F07DFD0028E9D0C0E920
:102C40000164EEE74C090108CD09010870B5C669B9
:102C500005460C4676B91020FFF7FCFE0246E861F7
:102C600020B9094B09488F2101F046FDC0E90166F2
:102C70000660C6603CB1EB696268DB6853F82210FD
:102C8000216043F8224070BD4C090108CD090108BC
:102C90002DE9F0410D6907460C461E4601F1140C62
:102CA0000020DCF8003099B202FB01611E0C0B0C15
:102CB00002FB063389B2013001EB034185424CF837
:102CC000041B4FEA1346ECDC0EB3A368AB4219DCDD
:102CD000616838460131FFF77BFF804628B902461C
:102CE0000C4B0D48BA2101F007FD2269023204F1B4
:102CF0000C0192000C3001F0E9FC21463846FFF748
:102D0000A5FF444604EB850301355E61256120463D
:102D1000BDE8F081BC090108CD0901082DE9F8439F
:102D20000C4615461F4609220833064693FBF2F36C
:102D3000002101229A4209DB3046FFF749FF40B9E2
:102D40000246194B1948D32101F0D6FC520001313B
:102D5000F0E7089B4361092D4FF00103036116DD85
:102D600004F10908C1462C4419F8013B0146303BE7
:102D70000A223046FFF78CFFA145F5D1A844A8F1FF
:102D800008042D1B63199F4204DCBDE8F8830A3454
:102D90000925F6E714F8013B0146303B0A2230468C
:102DA000FFF776FFEEE700BFBC090108CD09010877
:102DB000B0F5803F034636BF030400201020B3F176
:102DC000807F3CBF1B020830B3F1805F3CBF1B011A
:102DD0000430B3F1804F3CBF9B000230002B05DB79
:102DE00013F0804F00F1010008BF202070470368F6
:102DF000024613F007000BD0D90721D4980749BF2A
:102E00005B089B08012013605CBF136002207047C1
:102E100099B209B91B0C1020D9B209B908301B0AA4
:102E2000190704BF1B090430990704BF9B0802302F
:102E3000D90703D45B0800F1010003D01360704789
:102E4000002070472020704710B50C460121FFF785
:102E5000BFFE024628B9054B054840F2451101F076
:102E60004BFC01234461036110BD00BFBC09010894
:102E7000CD0901082DE9F04FD1F81090D2F810A03B
:102E8000D14585B08846144604DB53460C46CA46F5
:102E900090469946A36861680AEB0906B342B8BF39
:102EA0000131FFF795FE30B90246454B45484FF4D6
:102EB000B17101F021FC00F1140505EB86072B46EA
:102EC0000022BB421FD304F1140C08F114010CEBD7
:102ED0008A0301EB890202921A1B153A22F00302BF
:102EE00015349C4288BF00220192029A03918A42C3
:102EF0000CD8002E03DD57F8043D002B5DD0066191
:102F000005B0BDE8F08F43F8042BDAE7B1F800A074
:102F1000BAF1000F24D0E046A9464FF0000E58F851
:102F2000042BD9F800401FFA82FBA4B20AFB0B4421
:102F30004FEA124BD9F8002074444FEA124E0AFBB4
:102F40000BE202EB1442A4B244EA0244434549F8BE
:102F5000044B4FEA124EE2D8019AAA18C2F804E0D4
:102F6000039AB2F802800431B8F1000F23D02A6826
:102F7000E6469146AA464FF0000BBEF8004008FB1B
:102F800004B404EB194492B242EA04424AF8042B16
:102F90005EF8042BDAF800904FEA124B1FFA89F220
:102FA00008FB0B2202EB144273454FEA124BE4D8A4
:102FB000019C2C196260043597E7013E99E700BF38
:102FC000BC090108CD0901082DE9F843174612F0A4
:102FD000030280460D4607D0264C013A002354F8E0
:102FE0002220FFF755FE0546BF103FD0D8F81C4001
:102FF00094B91020FFF72EFD0446C8F81C0030B924
:1030000002461D4B1D4840F2B31101F075FB002331
:10301000C0E901330360C360A66846B940F271217C
:103020004046FFF711FF0023A060064603602C46D0
:103030004FF0000907F001037F1053B129463246D3
:103040004046FFF717FF214605464046FFF7FEFDC5
:1030500067B1306838B9324631464046FFF70AFF5B
:103060003060C0F8009006462C46E3E72846BDE8ED
:10307000F88300BFFC0A01084C090108CD090108CA
:103080002DE9F84F0C464968236903EB6218A368E1
:10309000074615464FEA621A08F101094B450BDB5A
:1030A0003846FFF795FD064648B90246294B2A489F
:1030B0004FF4EF7101F020FB01315B00EEE70023DC
:1030C00000F1140C00F110021946534535DB22695A
:1030D0002AEAEA7A0CEB8A0C04F1140315F01F0EAD
:1030E000614603EB82022CD0CEF1200A002518683D
:1030F0008B4600FA0EF02843CBF8000053F8045B2F
:103100009A4201F1040125FA0AF5F0D8131B153B88
:1031100023F0030304F115018A4238BF00239C44C5
:10312000CCF8045005B9C1463846C6F8109021467F
:10313000FFF78CFD3046BDE8F88F42F8041F0133DD
:10314000C3E753F8045B0D609A4201F10401F8D81B
:10315000E9E700BFBC090108CD0901080A69034677
:103160000069801A30B50ED11433143103EB820498
:1031700001EB820154F8045D51F8042D954203D00F
:1031800005D24FF0FF3030BDA342F3D3FBE701205F
:10319000F9E700002DE9F74F8A46064611465046EA
:1031A0001446FFF7DBFF051E12D129463046FFF714
:1031B0000FFD024628B9414B40F23721404801F04B
:1031C0009BFA0123C0E90435104603B0BDE8F08F37
:1031D000BCBF5346A2463046DAF80410BABF1C46BC
:1031E00001250025FFF7F4FC024618B9334B40F2E5
:1031F0004521E3E7DAF810702669C5600AF1140981
:1032000004F1140E00F114050AF1100309EB87080C
:103210000EEB86060193AB464FF0000C019B5EF867
:10322000040B53F804AF01931FFA8AF3194683B2D3
:10323000CB1A000C6344C0EB1A4000EB23409BB256
:1032400043EA004376454BF8043B4FEA204CE5D86F
:10325000331B153B153423F00303A64238BF00236C
:10326000E8184B441C1D04302646A5EB09054645CD
:1032700006EB050E0ED308F10301091B21F0030133
:103280000133984538BF0021014451F8043D9BB1FA
:10329000176199E756F8041BE2464FEA11491CFAF8
:1032A00081FC514409EB2C4989B241EA09414FEABA
:1032B000294CCEF80010DAE7013FE6E7BC09010827
:1032C000CD09010882B08DED000B019A0F4B134020
:1032D000A3F15073002B08DC5B42B3F1A07F4FEAEF
:1032E000235204DA4FF400231341002208E0A2F134
:1032F00014031E2BDABF4FF00042DA4001220023F4
:103300001946104641EC100B02B070470000F07FE8
:103310002DE9F041066900F1140808EB8606371F15
:1033200056F8042C1046FFF743FDC0F120030A288D
:103330000B601B4915DCC0F10B0C22FA0CF3B845ED
:1033400043EA010534BF56F8083C0023153002FA61
:1033500000F023FA0CF303431C4645EC104BBDE888
:10336000F081B8453ABF56F8083CA6F1080700239B
:103370000B3812D0C0F1200123FA01F4824022431D
:10338000474542F07F558CBF57F8042C00228340FC
:10339000CA4045F440151343DEE742EA0105DBE786
:1033A0000000F03F2DE9F7430F46012159EC108B47
:1033B0001646FFF70DFC044630B90246234B24485D
:1033C00040F20F3101F098F9C9F30A55C9F313031C
:1033D0000DB143F480130193B8F1000323D0684684
:1033E0000093FFF704FD0099D8B1019AC0F12003C2
:1033F00002FA03F30B43C24063610192019BA36194
:10340000002B0CBF012202222261A5B1A5F2334597
:1034100005443D60C0F135003060204603B0BDE892
:10342000F0836161EAE701A8FFF7E1FC019B6361BA
:1034300020300122E8E704EB8203A0F2324038603A
:103440001869FFF7B5FCC0EB4210E5E7BC090108BD
:10345000CD0901082DE9F04F85B0CDE9001002A992
:10346000FFF756FF009803A955EC104BFFF750FFEC
:10347000019B1969009B1B69C91ADDE902329B1A7D
:103480005BEC10AB03EB4113002BCEBF2A46C3EB22
:1034900003335A462F46D946CCBF02EB035702EB03
:1034A00003594B46524620463946FDF7AFF941ECE9
:1034B000100B05B0BDE8F08F013970B549111469E2
:1034C000013102F1140300EB810103EB8404051FB9
:1034D000A3420CD3A31A113B23F0030311329442ED
:1034E00038BF002318440023884205D370BD53F829
:1034F000046B45F8046FEBE740F8043BF4E700F198
:10350000140200694B11984210B511DB0ADD11F06D
:103510001F0107D052F8234024FA01F000FA01F10C
:103520008C420BD102EB8303934203D8002010BDE1
:103530000346F7E753F8041D0029F5D00120F6E70C
:1035400070B504460D4645EC104B1646FFF7BAFE23
:1035500051EC100B7EB1C5F30A53C3F16B03002B82
:1035600009DD1B0503F17F55002405F540152246B2
:103570002B46FDF721F841EC100B70BD0000000058
:103580002DE9F04F9DB00E4615920022049018923E
:103590004FF000084FF0000917910A782B2A0D46CA
:1035A00001F101011DD00BD80D2A06D8082AF3D845
:1035B0007AB100230B939A4683E0202AECD0F8E7F7
:1035C0002D2A10D10122691C17910B926A78002ACA
:1035D00037D1159B1796002B40F0958542464B46F8
:1035E0002AE00022EFE700210B91302A40F09B8077
:1035F0006A7802F0DF02582A5AD102930B9B01939A
:1036000018AB0093814A049819AB17A901F00EF981
:1036100010F00F06044605D0062E14D10135002304
:1036200017950B93159B002B40F06F850B9B002B80
:10363000D4D0424609F1004343EC102B1DB0BDE845
:10364000F08F0D46D1E7189A3AB135211AA8FFF745
:1036500033FF18990498FFF7F9FA013E042E06D8B3
:10366000DFE806F014031E211400DDE91A89E005E5
:1036700048BF49F0004929F000431B0D1B05002BF2
:10368000D0D101F01DF822230360CBE7DDE91A83D6
:10369000199A23F4801302F2334243EA0259E6E70F
:1036A000DFF87091E3E76FF000494FF0FF38DEE795
:1036B000013517952B78302BFAD0002BB2D04FF074
:1036C000010A00272B460E97BB460A21184613F81D
:1036D000014BA4F13002092A28D94D49012200F0FA
:1036E000CCFF002834D00020CDE9060022465C46FD
:1036F000652A01D0452A14D124B95AEA00033FF4BF
:1037000068AF0024179E731C179372782B2A73D00E
:103710002D2A77D04FF0000CA2F13003092B7FD96E
:10372000179600239EE04FF0000ACAE7BBF1080F8E
:10373000D8BF0E9A1793DBBF01FB0242303A01FB60
:1037400007420E92C8BFA2F130070BF1010BBDE793
:10375000179B5A1C17925A78BBF1000F34D0069071
:103760005C46A2F13003092B12D901230793BFE76E
:10377000179B5A1C17925A780130302AF8D0A2F1C0
:103780003103082B00F2C6840690179D00200446E2
:10379000303A00F1010311D00699194406912346ED
:1037A00020440A21834203F101040FD1082B18DCC5
:1037B0000E990A2303FB01230E930023179A511C31
:1037C000179152781846CCE75846D6E7082B04DC08
:1037D0000E9C4C430E940133E4E7102CD8BF4F43AA
:1037E000F9E70F2BDCBF0A2303FB0727E5E70021DE
:1037F0000123CDE9061380E74FF0000CB31C1793AB
:10380000B27889E74FF0010CF8E700BF0C0C010813
:10381000270A01080000F07F179B5A1C17925A785C
:10382000302AF9D0A2F13103082B3FF67AAF179B6B
:103830000593A2F1300E013317931A78A2F13001EB
:1038400009293CD905995B1A082B44F61F633CDC17
:103850009E457146A8BF19460591BCF1000F02D0E4
:10386000059B5B420593002C50D15AEA00007FF47F
:10387000D9AE079B002B7FF4ACAE692A29D026DC99
:10388000492A26D04E2A7FF4A4AEA14917A801F0F8
:10389000EFF900283FF49DAE179B1B78282B2FD102
:1038A0009C491AAA17A801F0F7F9052828D11B9BF3
:1038B000DDF8688043F0FF4949F4E009B2E60A21E7
:1038C00001FB0E22A2F1300EB5E70593C5E76E2A83
:1038D000D9E7914917A801F0CBF900283FF479AE58
:1038E000179B8E49013B17A8179301F0C1F910B936
:1038F000179B01331793DFF834924FF0000891E6DD
:10390000874800F0F1FE59EC108B8BE6DDE90532BB
:103910000E989B1ABBF1000F08BFA346102C0A9308
:10392000A246A8BF4FF0100AFCF7CCFD092C804638
:10393000894613DC0A9B002B3FF474AE0A9B73DDAF
:10394000162B5ADC774901EBC301D1E9000142464D
:103950004B46FCF731FE8046894663E6714B03EB2C
:10396000CA0353E91223FCF727FE804638468946EE
:10397000FCF7A8FD02460B4640464946FCF766FCAC
:103980000F2C80468946D5DD0A9BA4EB0A0A9A448F
:10399000BAF1000F40F397802AF00F061AF00F0AD1
:1039A00051D1B6F59A7F5EDC0023DFF87CA1361199
:1039B000404649461F46012E79D10BB180468946C3
:1039C0005949A9F1547901EBC70142464B46D1E967
:1039D0000001FCF7F1FD554B0A460B4054498B4260
:1039E000804640D8A1F580118B4286BFDFF8449114
:1039F0004FF0FF3802F1547932E00A9AC4F12503FE
:103A00009342C1DB474DC4F10F0405EBC4014246AC
:103A10004B46D1E90001FCF7CFFD0A9B1C1B05EBCF
:103A2000C405D5E9002394E71633ADDBDDE90523B2
:103A30009A1A3C4B03EBC203D3E9002340464946A4
:103A4000FCF7E4FE87E7374901EBCA0142464B46E3
:103A5000D1E90001FCF7B0FD80468946002EA0D1D7
:103A600000230793A0E0002405940E940694049A82
:103A7000DFF8B890222313604FF000080E9B002B54
:103A80003FF4D0AD18990498FFF7E0F80699049830
:103A9000FFF7DCF8DDE90401FFF7D8F80E99049888
:103AA000FFF7D4F804982146FFF7D0F8BAE5F207FB
:103AB00004D5DAE90023FCF77FFD012301377610F6
:103AC0000AF1080A77E7CBD0CAF1000A4FEA2A16B2
:103AD0001AF00F0A0DD11F2E2EDD002405940E942E
:103AE0000694049A22234FF000084FF00009136057
:103AF000C4E70C4B03EBCA0340464946D3E9002315
:103B0000FCF784FE80468946002EA9D0E3E700BF7B
:103B100015090108F80B01080D09010842090108FF
:103B20007D0A0108300B0108080B01080000F07F36
:103B30000000A07CFFFFEF7F16F0100318BF6A2380
:103B4000764F0793404649460023F20704D5D7E94C
:103B50000023FCF731FD0123761007F10807F4D1AB
:103B60000BB180468946079BB3B1C9F30A52C2F133
:103B70006B03002B49460FDD1F2B57DD342BDEBFB7
:103B80004FF0FF33C2F14B0293404FF00008CCBF1F
:103B90004FF05C7903EA01090022002340464946C0
:103BA000FCF772FF002898D10E9B009304982346DF
:103BB0005A462946FFF7B2F80E9000283FF453AF5B
:103BC000DDE905239B1A0A9A002AA8BF0023129355
:103BD000002422EAE273149305940E9B049859681A
:103BE000FEF7F6FF069000283FF441AF0E9B1A69DE
:103BF000023203F10C0192000C3000F067FD49EC39
:103C0000108B04981AAA19A9CDE90C89FFF7CAFBF1
:103C1000189000283FF42BAF04980121FFF714F906
:103C20000590034648B90023059320E74FF0FF3283
:103C300002FA03F303EA0808AEE7199D1A9A002D69
:103C4000ABBF129B149B149E129FACBFEF185E1B60
:103C5000079BED1A1544324B013D9D42C2F13602DD
:103C60004FDA5B1B1F2BA2EB03024FF001013CDC80
:103C700001FA03FA4FF0000BBD18079BAF42164440
:103C80001E443B46A8BF2B46B342A8BF3346002B79
:103C9000C2BFED1AF61AFF1A129B002B16DDDDE9E2
:103CA00004011A46FFF790F905900028BBD00146A1
:103CB000189A0498FFF7DEF80F9000283FF4D7AE6B
:103CC00018990498FEF7C2FF0F9B1893002D1BDC78
:103CD0000A9B002B26DD149A06990498FFF774F9C5
:103CE0000690F8B900230693C1E6C5F17F4505F5B6
:103CF0007F0505F57B45E23501FA05FB4FF0010A2A
:103D0000BAE74FF0000BF9E7189904982A46FFF735
:103D1000B7F918900028DBD1A9E600BF200C0108F4
:103D200002FCFFFF002E07DD069904983246FFF7DC
:103D3000A7F906900028D5D0002F08DDDDE90401A1
:103D40003A46FFF79DF9059000283FF490AE069A99
:103D500018990498FFF71EFA044600283FF487AE2E
:103D6000C3680F9300230599C360FFF7F7F9002894
:103D70003CDA0F9B53EA08035ED1C9F313034D46A7
:103D8000002B59D129F000431B0D1B05B3F1D66F51
:103D900052D9636913B92369012B4DDD21460122F4
:103DA0000498FFF76DF905990446FFF7D7F9002845
:103DB00042DDAD4B079A2B40002A5FD0B3F1D66F9E
:103DC0005CD8B3F15C7F7FF68CAEA84B4046494689
:103DD0000022FCF7F1FBA44B0B4080468946002BE8
:103DE0007FF450AE049A222313604BE64D4662D115
:103DF0000F9AC9F3130342B39D4A934228D1079BFC
:103E00004146EBB1984B2B40B3F1D46F4FF0FF32EA
:103E100019D81B0DC3F16B0302FA03F3994217D1B2
:103E2000944B9D4202D101313FF421AE8E4B2B4089
:103E300003F580194FF00008079B002BC5D121E640
:103E40004FF0FF33EAE71346E8E753EA0803B0D040
:103E5000BBF1000F1BD01BEA050FEDD00F9B079A9B
:103E600040464946B3B1FFF76BFBDDE90C0153EC6B
:103E7000102BFCF7EBF980468946DDE7A3F58013AC
:103E80006FEA13596FEA09594FF0FF38D4E71AEA7D
:103E9000080FE2E7FFF754FBDDE90C0153EC102BB0
:103EA000FCF7D2F90022002380468946FCF7ECFD9E
:103EB0000028C1D015E605992046FFF7CBFA57EC4C
:103EC000106B00224FF0804330463946FCF7F0FD7E
:103ED000002870D00F9B002B7BD1B8F1000F56D17A
:103EE000C9F31303002B58D1634B002230463946E7
:103EF000FCF7D4FD002859D1604B002230463946EA
:103F0000FCF75AFB82468B460BF10043CDF820A00C
:103F10000993554B544A2B401393594B2A409A42CC
:103F2000DDE9086740F0B080A5F1547949EC108BC9
:103F3000FFF7C8F9DDE9082351EC100BFCF73CFB57
:103F400042464B46FCF782F9474D4E4A0D4095429A
:103F5000804645D90D9A474B9A4203D10C9B0133B9
:103F60003FF485ADDFF80C914FF0FF3818990498B5
:103F7000FEF76CFE06990498FEF768FEDDE9040181
:103F8000FEF764FE04982146FEF760FE25E6B8F1D0
:103F9000010F02D1002D3FF4A4AD9FED2B7BDFF884
:103FA000D8B08DED087B4FF0000AB2E7DFF8CCB057
:103FB0004FF0000AA8E7314B002230463946FCF7A3
:103FC000FBFA0F9B82468B46002B9DD0CDE908ABB8
:103FD0009FE79FED1F7B8DED087B5BEC17AB98E7B0
:103FE00001F15479079B002BC0D129F00043139AAB
:103FF0001B0D1B059A42B9D1504659460BF0F6FEEF
:10400000FCF7ACFA02460B4650465946FCF71CF941
:104010000F9AC9F3130343EA0803134306460F46F6
:104020006BD00DA3D3E90023FCF738FD00287FF403
:1040300029AD0BA3D3E9002330463946FCF74CFDEC
:10404000002893D01EE500BF000000000000F0BF74
:10405000000000000000F03F9535A094FFFFDF3F17
:1040600035E5AF350000E03F0000F07F000050393B
:10407000FFFF0F00FFFFEF7F0000F03F0000E03F79
:104080000000E07FFFFF9F7C079B13B3139BB3F1FE
:10409000D46F1ED824A3D3E9002350465946FCF719
:1040A00007FD90B159465046FCF75EFD012838BF28
:1040B0000120FCF707FA0F9B82468B46D3B901F12A
:1040C000004310901193DDE91067139A07F1D6634E
:1040D0009F1A9DED0C0BFFF7F5F8304653EC102BB3
:1040E0003946FCF769FADDE90C23FCF7AFF88046A6
:1040F000894677E7CDE910ABE5E70DA3D3E90023C7
:10410000FCF7CCFC9CE700230B93159A179B1360DC
:10411000FFF78CBA652A3FF46AAB452A3FF467ABD8
:1041200001230793FFF7A1BB0000C0FFFFFFDF41A2
:104130009535A094FFFFCF3F014BFFF721BA00BF99
:104140005C000020242B2DE9F0478646904601D8DC
:10415000012B06D100F0B4FA162303600020BDE85D
:10416000F08734480D462A4615F8014B065D16F0D7
:104170000806F8D12D2C10D12C780126951C33F08F
:10418000100215D1302C0DD12A7802F0DF02582A06
:1041900008D16C78023510230AE02B2C04BF2C7850
:1041A000951CECE7002BF6D1302C14BF0A23082312
:1041B00006F1004C0CF1FF3C0022BCFBF3F9104669
:1041C00003FB19CAA4F13007092F0FD83C46A342BC
:1041D0001BDD571C07D0814514D301D1A24511DB4B
:1041E00000FB0340012215F8014BEBE7A4F1410766
:1041F000192F01D8373CEAE7A4F16107192F04D839
:10420000573CE4E74FF0FF32EDE7531C08D122237F
:10421000CEF800306046B8F1000FA0D0691E06E06D
:1042200006B14042B8F1000F99D0002AF6D1C8F883
:10423000001094E7490C0108FFF784BF2DE9F0470F
:104240008E681F46BE4282460C469046334653D87F
:10425000B1F90C0010F4906F2BD0656923680969DF
:1042600005EB4505A3EB010905EBD5757B1C6D102E
:104270004B44AB422A4684BF1D462A46430527D5F8
:1042800011465046FEF718FC064658B321694A46C7
:1042900000F01CFAA38923F4906343F08003A38108
:1042A000266165614E44A5EB09052660A5603E4682
:1042B0003B461F4620683A46414600F0C5F9A368D0
:1042C0009B1BA36023683B4423600020BDE8F0876C
:1042D000504600F090FD06460028E1D12169504685
:1042E000FEF76EFB0C23CAF80030A38943F04003AD
:1042F000A3814FF0FF30E9E73E46DBE72DE9F04FC1
:1043000098468B891B069DB007460D46144610D56E
:104310000B6973B94021FEF7CFFB2860286130B9E3
:104320000C233B604FF0FF301DB0BDE8F08F402301
:104330006B610023099320238DF82930CDF80C8080
:104340003023DFF89C818DF82A304FF00109234695
:104350009A4613F8012B0AB1252AF9D1BAEB040BBE
:104360000BD05B46224629463846FFF767FF0130EF
:1043700000F0A780099A5A4409929AF80030002B5D
:1043800000F09F8000234FF0FF32CDE905230AF1B2
:10439000010A049307938DF853301A93544605226B
:1043A00014F8011B4E48FBF7F3FE049AD8B9D00667
:1043B00044BF20238DF85330110744BF2B238DF8C1
:1043C00053309AF800302A2B15D0079A5446002013
:1043D0004FF00A0C214611F8013B303B092B4BD919
:1043E000B0B1079214E0A0EB080309FA03F31343FA
:1043F0000493A246D2E7039B191D1B680391002B6F
:10440000BBBF5B4242F0020207930793B8BF04921E
:1044100023782E2B0AD163782A2B32D1039B1A1DC5
:104420001B68039243EAE37302340593DFF8C0A0EC
:10443000217803225046FBF7ABFE38B1049BA0EB7A
:104440000A004022824013430134049314F8011BF4
:1044500024488DF828100622FBF79AFE002836D053
:10446000214B1BBB039B073323F007030833039344
:10447000099B334409936AE70CFB02320C46012086
:10448000A8E700230134059319464FF00A0C204693
:1044900010F8012B303A092A03D9002BC6D0059118
:1044A000C4E70CFB012104460123F0E703AB0093B2
:1044B0002A460E4B04A93846FCF7ACFC421C0646C3
:1044C000D6D1AB895B063FF52DAF09982CE703AB3E
:1044D00000932A46054B04A93846FCF731FFEDE767
:1044E000290A0108330A0108150E00083D42000898
:1044F0002F0A0108B1F90C202DE9F04116070546F5
:104500000C4651D44B68002B02DC0B6C002B49DDB0
:10451000E66A002E46D0002312F480522F682B60EA
:1045200031D0626DA389590705D56368D21A636BD0
:104530000BB1236CD21A0023E66A216A2846B047E1
:10454000421CB4F90C3006D129681D2946D8294AE5
:10455000CA40D60742D500226260D904226922608F
:1045600004D5421C01D12B6803B96065616B2F60D3
:10457000C1B104F14403994202D02846FEF720FA63
:10458000002363630EE0216A01232846B0470246F8
:10459000501CC7D12B68002BC4D01D2B01D0162B6B
:1045A0001AD12F6000201EE00F69002FFAD0930768
:1045B0000E6808BF4B690F6018BF0023A6EB070801
:1045C0008B60B8F1000FEDDD216AA66A43463A46DA
:1045D0002846B047002808DCB4F90C3043F040030B
:1045E000A3814FF0FF30BDE8F0810744A8EB00083D
:1045F000E7E700BF0100402038B50B6905460C46CF
:1046000013B90025284638BD18B1036A0BB9FDF768
:1046100051FAB4F90C30002BF3D0626ED00704D4F9
:10462000990502D4A06DFDF75AFB28462146FFF7F5
:1046300061FF636EDA070546E4D4A3899B05E1D4E4
:10464000A06DFDF74DFBDDE7884210B501EB0204DC
:1046500002D98442234607D8431EA14207D011F84D
:10466000012B03F8012FF8E70244824200D110BD6C
:1046700013F8011D02F8011DF7E710B56AB1013901
:10468000841810F8012B11F8013F9A4203D1A0427F
:1046900001D0002AF5D1D01A10BD1046FCE7000069
:1046A00038B5064D0023044608462B600BF0AEFAE1
:1046B000431C02D12B6803B1236038BD30040020B5
:1046C000014B1868704700BF0C0000200A4491425B
:1046D00000F1FF3300D1704710B511F8014B03F81A
:1046E000014F9142F9D110BD9FED010B704700BF02
:1046F000000000000000F87F1FB514461A46094B61
:104700001B680546D8684CB1074B0091CDE90134D0
:1047100006492B4600F0AAFB00F0BAFB044B1C46EE
:10472000F3E700BF0C000020420A01084F0A01080D
:104730007D0A010870B5A1FB025434B92946FEF781
:10474000BBF9064628B9304670BD0C22026000262F
:10475000F9E72A462146FDF74BFAF4E70369B3EB84
:10476000611F2DE9F0434FEA611200F1140445DDA9
:1047700011F01F0104EB830604EB82050CD100F15C
:1047800010072946B14234D39B1A9B00EA1E964279
:1047900038BF0023234415E054F82270C1F12008EB
:1047A000CF4005F1040EA1467645F44615D89A1A75
:1047B0009200043A0135AE4238BF0022A318A75038
:1047C00007B104331A1BA3424FEAA20208BF002319
:1047D000026108BF4361BDE8F083DCF800C00CFA59
:1047E00008FC4CEA070749F8047B5EF8047BCF40DD
:1047F000DAE751F804CB47F804CFC3E72346E1E7F3
:10480000A0F13003092B02D82038C0B27047A0F1C4
:104810006103052B01D84738F7E7A0F14103052BC9
:1048200001D82738F1E70020704700002DE9F04F4C
:1048300085B08A4602930B68019090469C1CA14665
:1048400014F8010B3028FAD0A9EB0303A3F1020BF3
:10485000FFF7D6FF0546002868D1A0490122484647
:10486000FFF70BFF0746002867D199F8010026469D
:10487000FFF7C6FF002862D02346187830289946F3
:1048800003F10103F9D0FFF7BBFFB0FA80F56D0922
:104890004FF0010B4A46164601323078FFF7B0FF61
:1048A0000028F8D18D4901223046FFF7E6FE0028A6
:1048B0003FD144B9741C2246164601323078FFF7C6
:1048C0009FFF0028F8D1A41BA700337803F0DF0373
:1048D000502B3ED173782B2B33D02D2B34D0711C21
:1048E00000240878FFF78CFF431EDBB2182B30D86A
:1048F000A0F1100211F8010FFFF782FF00F1FF3C59
:104900005FFA8CFCBCF1180F4FF00A031ED904B1FA
:1049100052421744CAF80010EDB1BBF1000F0CBFB2
:1049200006250025284605B0BDE8F08F00252C4659
:10493000B0E7002CC7D12746C7E74E462F460125D2
:10494000C3E70024B11CCCE70124FBE703FB020012
:10495000CEE73146DEE7A6EB0903013B2946072BEC
:104960000ADC0198FEF734F9044640B95C4B024674
:10497000E4215C48FFF7C0FE01315B10EFE700F176
:10498000140A002355469B46B14537D345F804BB6E
:10499000A5EB0A05AD1025615846FEF709FA6D0131
:1049A000D8F800602D1AB54254DDAD1B29462046CB
:1049B000FEF7A5FD814678B16B1E591103F01F0269
:1049C0005AF821104FF0010909FA02F20A4203D005
:1049D0004B4536DC4FF0020929462046FFF7BEFE64
:1049E0002F44D8F80830BB4242DA01982146FEF73E
:1049F0002DF90E9A00231360A32593E716F8012DD5
:104A00002E2A12D0202B04D145F804BB4FF0000B06
:104A10005B4630780393FFF7F3FE039B00F00F0033
:104A200098404BEA000B0433AEE7B145EAD82B4976
:104A3000039301223046FFF720FE039B0028E1D1BB
:104A4000A2E7A91E2046FEF75AFD0028C2D04FF06B
:104A50000309C1E709DA751B214601982A46FEF7CA
:104A60000FFB7F1B044600F1140A4FF00009B8E762
:104A7000D8F80450BD426FDDED1BAE4234DCD8F8EF
:104A80000C30022B22D0032B24D0012B15D1AE42A7
:104A900013D1012E0BD1029AD8F8043013600123F0
:104AA0002361CAF800300E9B62251C603AE7711E34
:104AB0002046FEF724FD0028EDD101982146FEF79F
:104AC000C5F80E9A0023136050252BE70F9B002B8F
:104AD000F3D1E0E70F9B002BDDD1EEE7270A0108B9
:104AE000BC0901087E0A01086F1EB9F1000F30D120
:104AF00027B139462046FEF702FD81467A1101238F
:104B00005AF8222007F01F07BB40134229462046CF
:104B100018BF49F00209FFF721FED8F80470761B90
:104B20000225B9F1000F47D0D8F80C30022B15D070
:104B3000032B17D0012B09D119F0020F06D0DAF898
:104B4000003049EA030919F0010F0ED145F01005B4
:104B500032E04FF00109D1E70125E2E70F9BC3F1F5
:104B600001030F930F9B002BF0D0D4F810B004F189
:104B700014034FEA8B0A03EB8B014FF0000C18462D
:104B800053F8042BB2F1FF3F1BD001320260022D1B
:104B900004F114033CD1D8F80020013AB24209D103
:104BA0007111012253F8213006F01F0602FA06F6B1
:104BB0001E423AD145F020050E9B1C60029B1F60EF
:104BC000B0E6994243F804CCD9D8A3689B4517DBDB
:104BD000616801980131FDF7FBFF814618B91A4B56
:104BE00002468421C5E62269023204F10C019200DA
:104BF0000C30FFF76BFD21460198FEF727F84C4675
:104C000023695A1C04EB8303226101225A61BEE727
:104C100022695A450BDD01212046FFF79FFDD8F898
:104C200008300137BB42FFF6E0AE0125C2E716F0BF
:104C30001F06FAD05344C6F1200653F8040CFEF7C1
:104C4000B7F8B042E7DBF0E7BC090108C2F108029F
:104C5000920070B5C2F120064368046803FA06F5B5
:104C60002C43D340046040F8043F8842F4D370BD25
:104C700030B50368013311F8014B14B9036001200A
:104C800030BD13F8012BA2F14105192D98BF203238
:104C9000A242F0D00020F3E72DE9F04F0B68016845
:104CA0005E1102EB860613F01F0387B018BF0436AF
:104CB0000025371F82469046019346F8045CB946AA
:104CC0003C460295AB464A784B1C039342B31046D0
:104CD00005910492FFF794FD002853D1049A059999
:104CE000202A18D8029B9B4513DD4C4506D2072D80
:104CF00004DC2A4649462046FFF7A8FF444554D91C
:104D00000023A4F1040944F8043CCDF808B04C4653
:104D10001D460399D7E7292A59D10231CAF8001054
:104D2000BBF1000F53D04C4506D2072D04DC2A46B8
:104D300049462046FFF78AFF444538D9A8F10402C6
:104D4000234653F8041B42F8041F9F42F9D23B1B31
:104D500023F003030134033EB44288BF002308F16B
:104D60000402134400211A4604339F421160FAD210
:104D70003B681BB9474528D101233B60052007B09C
:104D8000BDE8F08F0135082D0BF1010B06DD444520
:104D9000BFD9002344F8043C0125043C226800F0FC
:104DA0000F0040EA02102060B3E70825B1E7019B3D
:104DB000002BDDD0C3F120034FF0FF32DA4056F86C
:104DC000043C134046F8043CD2E7043FD0E70420FB
:104DD000D5E782B001B901A942B14BB113780B609C
:104DE0001278101E18BF012002B070471046FBE772
:104DF0006FF00100F8E72DE9F041074614460D4633
:104E000021B9BDE8F0411146FDF756BE2AB9FDF7BC
:104E1000D7FD25462846BDE8F08100F040F88442E1
:104E2000064602D8B4EB500FF4D821463846FDF7B9
:104E300043FE804608B94546ECE7B442224629467F
:104E400028BF3246FFF742FC29463846FDF7B8FD39
:104E5000F1E70346084641B1FF2A04D98A221A60C5
:104E60004FF0FF3070470A70012070470EB403B551
:104E7000014603AB054853F8042B0068019300F08A
:104E80003FF802B05DF804EB03B070470C0000205F
:104E900008B5062000F006FA01200AF005FF51F8D7
:104EA000043C181F002BBCBF0B58C01870479368F8
:104EB000013B002B10B4936008DA9469A34201DB34
:104EC0000A2903D15DF8044B00F032B91368581C6D
:104ED0001060197008465DF8044B7047F8B5064637
:104EE0000F461446D518AC4201D1002007E014F853
:104EF000011B3A463046FFF7DAFF431CF3D1F8BDF9
:104F00002DE9F04F0D469DB014469846064618B15F
:104F1000036A0BB9FCF7CEFD6B6ED90705D4AB89DC
:104F20009A0502D4A86DFCF7DAFEAB891B0701D500
:104F30002B699BB92946304600F038F970B16B6E89
:104F4000DC0704D54FF0FF301DB0BDE8F08FAB8912
:104F50009805F7D4A86DFCF7C3FEF3E70023099387
:104F600020238DF82930CDF80C803023DFF8AC8178
:104F70008DF82A304FF0010923469A4613F8012B89
:104F80000AB1252AF9D1BAEB040B0BD05B462246B5
:104F900029463046FFF7A2FF013000F0A780099AAA
:104FA0005A4409929AF80030002B00F09F800023A9
:104FB0004FF0FF32CDE905230AF1010A049307936C
:104FC0008DF853301A935446052214F8011B5348A8
:104FD000FBF7DEF8049AD8B9D10644BF20238DF838
:104FE0005330130744BF2B238DF853309AF8003009
:104FF0002A2B15D0079A544600204FF00A0C214660
:1050000011F8013B303B092B4BD9B0B1079214E0AA
:10501000A0EB080309FA03F313430493A246D2E773
:10502000039B191D1B680391002BBBBF5B4242F021
:10503000020207930793B8BF049223782E2B0AD15C
:1050400063782A2B32D1039B1A1D1B68039243EA13
:10505000E37302340593DFF8D4A02178032250468D
:10506000FBF796F838B1049BA0EB0A00402282407F
:1050700013430134049314F8011B29488DF82810B8
:105080000622FBF785F800283FD0264B1BBB039B6D
:10509000073323F0070308330393099B3B44099329
:1050A0006AE70CFB02320C460120A8E7002301341A
:1050B000059319464FF00A0C204610F8012B303AA0
:1050C000092A03D9002BC6D00591C4E70CFB0121A6
:1050D00004460123F0E703AB00932A46124B04A9D0
:1050E0003046FBF797FE0746781CD6D16B6ED90782
:1050F00005D4AB899A0502D4A86DFCF7F1FDAB8904
:105100005B063FF51FAF09981EE703AB00932A46E5
:10511000054B04A93046FCF713F9E4E7290A010816
:10512000330A0108150E0008DD4E00082F0A010899
:10513000F8B50E461446054618B1036A0BB9FCF7DC
:10514000B9FCA369A360A3891A0701D5236943B9F0
:105150002146284600F02AF818B14FF0FF373846AC
:10516000F8BD23682269981A6369F6B2834237460C
:1051700005DC21462846FFF73FFA0028EDD1A36859
:10518000013BA36023685A1C22601E706269431CA5
:105190009A4204D0A389DB07E1D50A2EDFD121464C
:1051A0002846FFF729FA0028D9D0D6E738B5284B8A
:1051B000054618680C4618B1036A0BB9FCF77AFC6F
:1051C000B4F90C301A0721D4D80607D409222A6072
:1051D00043F04003A3814FF0FF3030E0590712D570
:1051E000616B41B104F14403994202D02846FDF7B6
:1051F000E7FB002363630022B4F90C30626022698C
:10520000226023F0240343F00803A38122693AB902
:105210009A0501D5180603D52146284600F082F8E4
:10522000B4F90C3013F001020AD00022A2606269C6
:105230005242A261226942B913F08000C8D138BD40
:10524000990758BF6269A260F4E70020F7E700BF42
:105250000C0000201F2938B505460C4604D916233A
:1052600003604FF0FF3038BDC26B12B152F82130ED
:105270004BB9284600F030F8224601462846BDE8E2
:10528000384000F017B8012B0AD0591C03D116235F
:1052900003600120E7E7002142F8241020469847E8
:1052A0000020E0E7024B01461868FFF7D3BF00BFBC
:1052B0000C00002038B5074D00230446084611466F
:1052C0002B600AF0E1FC431C02D12B6803B1236080
:1052D00038BD00BF300400200AF0CEBC70B50C46CB
:1052E000B1F90E10002996B015461E460ADAA189BA
:1052F00011F0800113D14FF48062002031602A60E8
:1053000016B070BD6A4600F047F80028EFDB01993F
:1053100001F47041A1F5005359425941EBE70021D6
:105320004022EAE78B8973B59E0705460C4607D5F0
:1053300004F14703236023610123636102B070BD60
:1053400001AB6A46FFF7CAFF009E28463146FDF7CB
:10535000B3FBB4F90C3038B99A05EFD423F003034A
:1053600043F00203A381E3E743F08003A381019BA1
:105370002060C4E90406002BE0D0B4F90E102846E2
:1053800000F01CF80028D9D0A38923F0030343F0D0
:105390000103A381D2E7000038B5074D002304467E
:1053A000084611462B600AF0CFFC431C02D12B6843
:1053B00003B1236038BD00BF3004002038B5064D6E
:1053C0000023044608462B600AF0CEFC431C02D1A1
:1053D0002B6803B1236038BD300400200FB480B5C2
:1053E00088B000AF07F12C037B607B683B607B6873
:1053F000BA6A002100200AF0A3FD03460133BB6115
:10540000BB691846FDF726FB03467B617B69002BD1
:105410002AD0B9693B68BA6A78690AF091FD052318
:10542000FB740523FB600123FB720023FB77F86804
:1054300005F01EF8BB699BB2013B9BB21946786927
:1054400001F0A0FA0346FB72FB7F0133FB77FA7F82
:10545000FB7C9A4203D8FB7A012BE8D000E000BF26
:105460007869FDF7FFFA00E000BF2037BD46BDE8D0
:10547000804004B0704700002DE9B04F8EB006AFF9
:105480003A4B1B78002B05D1394B00221A70374B51
:1054900001221A70364B1B78002B62D034493548F4
:1054A000FFF79CFF4FF000033B614FF00003FB60F0
:1054B0004FF00003BB604FF000037B6007F1100169
:1054C00007F114023B1D029307F10803019307F152
:1054D0000C0300930B46284925480AF0D7FCF861D5
:1054E0003B691846FBF710F882468B46FB68184666
:1054F000FBF70AF804460D46BB681846FBF704F8AC
:10550000804689467B681846FAF7FEFF02460B463E
:1055100007F11401CDE90423CDE90289CDE9004565
:1055200052465B461548FFF759FF3B7D1A067B7DC7
:105530001B041A43BB7D1B021343FA7D1343BB615B
:10554000BB690F4A934208D10E48FFF747FF0A2074
:1055500004F08EFF00F018F800E000BF044B0022BA
:105560001A7000BF2037BD46BDE8B08F4004002050
:10557000240F0020F007010804080108140801089E
:10558000007566642C08010880B584B000AF13482C
:1055900008F028FC114808F0A5FB72B600BF104BBC
:1055A0009B6D0F4A23F0806393650D4B9B6D0C4AF6
:1055B00043F0806393650B4BFB60FB681B687B606B
:1055C0007B6883F3088800BFFB6804331B68BB60FB
:1055D000BB68984700BF1037BD4680BD4805002016
:1055E000001002400000FF1F80B500AF04F0CCFEA9
:1055F00000F028F800F082F800F0A6FB00F0ECF8CC
:1056000000F004FA00F09CFA4FF47A7004F030FFD6
:105610000A48FFF7E3FE01224FF480614FF090400B
:1056200006F062F901220221054806F05DF90A2020
:1056300004F01EFFFFF720FF00BFF8E74008010855
:105640000004004880B596B000AF07F1140344226F
:1056500000211846FCF7CCFA3B4600221A605A603B
:105660009A60DA601A614FF4007006F095FA03460A
:10567000002B01D000F03BF812237B614FF48073C4
:105680003B6240237B6201233B6300237B63B023A7
:10569000BB6302233B6402237B640123BB640A23B4
:1056A000FB6402233B6502237B6507F11403184664
:1056B00004F002FF0346002B01D000F018F80F237E
:1056C0003B6003237B600023BB600023FB6000235F
:1056D0003B613B460421184605F050FB0346002B76
:1056E00001D000F004F800BF5837BD4680BD80B43B
:1056F00000AF72B600BF00BFFDE7000080B588B004
:1057000000AF07F10C0300221A605A609A60DA6059
:105710001A612F4BDB6C2E4A43F08003D3642C4B71
:10572000DB6C03F08003BB60BB68294BDB6C284A51
:1057300043F00103D364264BDB6C03F001037B6071
:105740007B68234BDB6C224A43F00203D364204B7B
:10575000DB6C03F002033B603B68012202211D4821
:1057600006F0C2F800224FF480614FF0904006F03E
:10577000BBF84023FB600B233B6100237B6107F1F7
:105780000C0319464FF0904005F06AFE0223FB60BF
:1057900001233B6100237B610023BB6107F10C0304
:1057A00019460C4805F05CFE4FF48063FB60012352
:1057B0003B6100237B610023BB6107F10C031946A9
:1057C0004FF0904005F04CFE00BF2037BD4680BD35
:1057D000001002400004004880B58AB000AF07F115
:1057E0001C0300221A605A609A603B1D00221A6056
:1057F0005A609A60DA601A615A615C4B5C4A1A60BE
:105800005A4B00225A60594B00229A60574B002293
:10581000DA60564B01221A61544B04225A61534BF1
:1058200000221A76514B00225A76504B0722DA6139
:105830004E4B002283F820204C4B00229A624B4BA7
:105840000022DA62494B002283F83020474B0022C5
:105850005A63464B002283F83820444806F0E6FCA1
:105860000346002B01D0FFF742FF0023FB6107F145
:105870001C0319463D4807F045FA0346002B01D0AA
:10588000FFF735FF3B4B7B600623BB600323FB60C8
:105890007F233B6104237B610023BB613B1D1946D1
:1058A000324806F00DFE0346002B01D0FFF71FFF24
:1058B000314B7B600C23BB600023FB603B1D194612
:1058C0002A4806F0FDFD0346002B01D0FFF70FFF2D
:1058D0002A4B7B601223BB603B1D1946234806F010
:1058E000EFFD0346002B01D0FFF701FF244B7B6047
:1058F0001823BB603B1D19461C4806F0E1FD03461A
:10590000002B01D0FFF7F3FE1E4B7B604FF480733A
:10591000BB603B1D1946154806F0D2FD0346002B1F
:1059200001D0FFF7E4FE184B7B604FF48373BB603C
:105930003B1D19460D4806F0C3FD0346002B01D060
:10594000FFF7D5FE114B7B604FF48673BB603B1DA8
:105950001946064806F0B4FD0346002B01D0FFF7B8
:10596000C6FE00BF2837BD4680BD00BF44040020EE
:10597000000004502000F014400020198000501D49
:10598000000180210002B0250004002A0008302E0A
:1059900080B58AB000AF786007F1140300221A6066
:1059A0005A609A60DA601A617B681B68154A9342F4
:1059B00024D1154BDB6C144A43F40053D364124BCF
:1059C000DB6C03F400533B613B690F4BDB6C0E4A0D
:1059D00043F00103D3640C4BDB6C03F00103FB6069
:1059E000FB687F237B610B23BB610023FB6107F115
:1059F000140319464FF0904005F032FD00BF2837E0
:105A0000BD4680BD000004500010024080B500AFCC
:105A10001B4B1C4A1A601A4B1B4A5A60184B002237
:105A20009A60174B0122DA60154B00221A61144B61
:105A300000225A61124B00229A61114B0022DA6156
:105A40000F4B00221A620E4805F066FF0346002B3A
:105A500001D0FFF74CFE0021094805F0F8FF03468E
:105A6000002B01D0FFF743FE0021054806F03AF86D
:105A70000346002B01D0FFF73AFE00BF80BD00BFF8
:105A8000A804002000540040E49CD11080B596B0DA
:105A900000AF786007F1440300221A605A609A60F0
:105AA000DA601A6107F11003342200211846FCF76E
:105AB0009FF87B681B681F4A934236D140233B61A5
:105AC00000237B6207F11003184605F043FB0346F1
:105AD000002B01D0FFF70BFE174BDB6C164A43F08F
