:020000040800F2
:100000000080002081DF0008DB4B0008E34B000884
:10001000EB4B0008F34B0008FB4B0008000000000E
:10002000000000000000000000000000034C000879
:10003000114C0008000000001F4C00082D4C000867
:10004000D1DF0008D1DF0008D1DF0008D1DF0008D0
:10005000D1DF0008D1DF0008D1DF0008D1DF0008C0
:10006000D1DF0008D1DF0008D1DF0008D1DF0008B0
:10007000D1DF0008D1DF0008D1DF0008D1DF0008A0
:10008000D1DF0008D1DF0008D1DF00080000000048
:10009000000000000000000000000000D1DF0008A8
:1000A000D1DF0008D1DF0008D1DF0008D1DF000870
:1000B000D1DF00080000000000000000D1DF0008D0
:1000C000D1DF0008D1DF0008D1DF0008D1DF000850
:1000D000D1DF0008D1DF0008D1DF0008D1DF000840
:1000E000D1DF0008D1DF00080000000000000000A0
:1000F0000000000000000000000000000000000000
:1001000000000000000000000000000000000000EF
:100110000000000000000000D1DF00080000000027
:10012000D1DF0008D1DF0008D1DF0008D1DF0008EF
:10013000D1DF000800000000000000000000000007
:10014000D1DF0008D1DF0008D1DF0008394C0008FA
:10015000D1DF0008D1DF0008D1DF0008D1DF0008BF
:10016000D1DF0008D1DF000800000000000000001F
:1001700000000000D1DF00080000000000000000C7
:10018000D1DF0008D1DF0008D1DF00080000000047
:1001900001F0FF01102A2BDB10F0070F08D010F838
:1001A000013B013A8B422DD010F0070F42B3F6D13C
:1001B000F0B441EA012141EA014122F007047FF055
:1001C00000070023F0E80256083C85EA010586EAAC
:1001D000010685FA47F5A3FA87F586FA47F6A5FAE8
:1001E00087F68EB9EED1F0BC01F0FF0102F00702F4
:1001F00032B110F8013B013A83EA010313B1F8D19F
:100200000020704701387047002D06BF354603387F
:10021000073815F0010F07D1013015F4807F02BFB8
:10022000013015F4C03F0130F0BC0138704700BF09
:10023000034613F8012B002AFBD1181A0138704726
:1002400081F0004102E000BF83F0004330B54FEA87
:1002500041044FEA430594EA050F08BF90EA020FF4
:100260001FBF54EA000C55EA020C7FEA645C7FEA87
:10027000655C00F0E2804FEA5454D4EB5555B8BFAA
:100280006D420CDD2C4480EA020281EA030382EA1B
:10029000000083EA010180EA020281EA0303362DAD
:1002A00088BF30BD11F0004F4FEA01314FF4801C80
:1002B0004CEA113102D0404261EB410113F0004F92
:1002C0004FEA03334CEA133302D0524263EB430349
:1002D00094EA050F00F0A780A4F10104D5F1200EE7
:1002E0000DDB02FA0EFC22FA05F2801841F1000142
:1002F00003FA0EF2801843FA05F359410EE0A5F116
:1003000020050EF1200E012A03FA0EFC28BF4CF046
:10031000020C43FA05F3C01851EBE37101F00045FC
:1003200007D54FF0000EDCF1000C7EEB00006EEB09
:100330000101B1F5801F1BD3B1F5001F0CD3490893
:100340005FEA30004FEA3C0C04F101044FEA4452EA
:1003500012F5800F80F09A80BCF1004F08BF5FEA71
:10036000500C50F1000041EB045141EA050130BD51
:100370005FEA4C0C404141EB0101013C28BFB1F563
:10038000801FE9D291F0000F04BF01460020B1FAAE
:1003900081F308BF2033A3F10B03B3F120020CDA81
:1003A0000C3208DD02F1140CC2F10C0201FA0CF05F
:1003B00021FA02F10CE002F11402D8BFC2F1200CC4
:1003C00001FA02F120FA0CFCDCBF41EA0C0190407A
:1003D000E41AA2BF01EB0451294330BD6FEA0404C3
:1003E0001F3C1CDA0C340EDC04F11404C4F12002AE
:1003F00020FA04F001FA02F340EA030021FA04F3C0
:1004000045EA030130BDC4F10C04C4F1200220FA16
:1004100002F001FA04F340EA0300294630BD21FA54
:1004200004F0294630BD94F0000F83F4801306BF1A
:1004300081F480110134013D4EE77FEA645C18BF0E
:100440007FEA655C29D094EA050F08BF90EA020FA5
:1004500005D054EA000C04BF1946104630BD91EA9D
:10046000030F1EBF0021002030BD5FEA545C05D1A0
:100470004000494128BF41F0004130BD14F58004DF
:100480003CBF01F5801130BD01F0004545F0FE4153
:1004900041F470014FF0000030BD7FEA645C1ABF88
:1004A000194610467FEA655C1CBF0B46024650EABF
:1004B000013406BF52EA033591EA030F41F40021EB
:1004C00030BD00BF90F0000F04BF0021704730B571
:1004D0004FF4806404F132044FF000054FF0000146
:1004E00050E700BF90F0000F04BF0021704730B507
:1004F0004FF4806404F1320410F0004548BF4042DC
:100500004FF000013EE700BF42004FEAE2014FEA30
:1005100031014FEA02701FBF12F07F4393F07F4F0B
:1005200081F06051704732F07F4208BF704793F00E
:100530007F4F04BF41F40021704730B54FF4607421
:1005400001F0004521F000411CE700BF50EA010224
:1005500008BF704730B54FF000050AE050EA0102CD
:1005600008BF704730B511F0004502D5404261EB3D
:1005700041014FF4806404F132045FEA915C3FF47E
:10058000D8AE4FF003025FEADC0C18BF03325FEA1B
:10059000DC0C18BF033202EBDC02C2F1200300FACC
:1005A00003FC20FA02F001FA03FE40EA0E0021FAF1
:1005B00002F11444BDE600BF70B54FF0FF0C4CF4DF
:1005C000E06C1CEA11541DBF1CEA135594EA0C0F91
:1005D00095EA0C0F00F0DEF82C4481EA030621EACC
:1005E0004C5123EA4C5350EA013518BF52EA033507
:1005F00041F4801143F4801338D0A0FB02CE4FF0B9
:100600000005E1FB02E506F00042E0FB03E54FF0E8
:100610000006E1FB03569CF0000F18BF4EF0010EE0
:10062000A4F1FF04B6F5007F64F5407404D25FEADC
:100630004E0E6D4146EB060642EAC62141EA55518F
:100640004FEAC52040EA5E504FEACE2EB4F1FD0CD1
:1006500088BFBCF5E06F1ED8BEF1004F08BF5FEA4F
:10066000500E50F1000041EB045170BD06F0004601
:1006700046EA010140EA020081EA0301B4EB5C04AE
:10068000C2BFD4EB0C0541EA045170BD41F48011A6
:100690004FF0000E013C00F3AB8014F1360FDEBFCB
:1006A000002001F0004170BDC4F10004203C35DAA7
:1006B0000C341BDC04F11404C4F1200500FA05F32A
:1006C00020FA04F001FA05F240EA020001F00042CB
:1006D00021F0004110EBD37021FA04F642EB060141
:1006E0005EEA430E08BF20EAD37070BDC4F10C046B
:1006F000C4F1200500FA04F320FA05F001FA04F22F
:1007000040EA020001F0004110EBD37041F100011A
:100710005EEA430E08BF20EAD37070BDC4F1200525
:1007200000FA05F24EEA020E20FA04F301FA05F28D
:1007300043EA020321FA04F001F0004121FA04F235
:1007400020EA020000EBD3705EEA430E08BF20EA05
:10075000D37070BD94F0000F0FD101F0004640003F
:1007600041EB010111F4801F08BF013CF7D041EAC1
:10077000060195F0000F18BF704703F000465200C5
:1007800043EB030313F4801F08BF013DF7D043EA96
:100790000603704794EA0C0F0CEA135518BF95EA4C
:1007A0000C0F0CD050EA410618BF52EA4306D1D1D3
:1007B00081EA030101F000414FF0000070BD50EAF2
:1007C000410606BF1046194652EA430619D094EA7C
:1007D0000C0F02D150EA013613D195EA0C0F05D166
:1007E00052EA03361CBF104619460AD181EA0301BA
:1007F00001F0004141F0FE4141F470014FF0000072
:1008000070BD41F0FE4141F4780170BD70B54FF00C
:10081000FF0C4CF4E06C1CEA11541DBF1CEA13558C
:1008200094EA0C0F95EA0C0F00F0A7F8A4EB05046E
:1008300081EA030E52EA03354FEA013100F0888065
:100840004FEA03334FF0805545EA131343EA12632E
:100850004FEA022245EA111545EA10654FEA0026E3
:100860000EF000419D4208BF964244F1FD0404F59C
:10087000407402D25B084FEA3202B61A65EB0305F8
:100880005B084FEA32024FF480104FF4002CB6EBB5
:10089000020E75EB030E22BFB61A754640EA0C0035
:1008A0005B084FEA3202B6EB020E75EB030E22BF75
:1008B000B61A754640EA5C005B084FEA3202B6EBB6
:1008C000020E75EB030E22BFB61A754640EA9C0075
:1008D0005B084FEA3202B6EB020E75EB030E22BF45
:1008E000B61A754640EADC0055EA060E18D04FEA03
:1008F000051545EA16754FEA06164FEAC30343EAA3
:1009000052734FEAC2025FEA1C1CC0D111F4801F6F
:100910000BD141EA00014FF000004FF0004CB6E768
:1009200011F4801F04BF01430020B4F1FD0C88BF07
:10093000BCF5E06F3FF6AFAEB5EB030C04BFB6EB12
:10094000020C5FEA500C50F1000041EB045170BD05
:100950000EF0004E4EEA113114EB5C04C2BFD4EB32
:100960000C0541EA045170BD41F480114FF0000EB6
:10097000013C90E645EA060E8DE60CEA135594EA32
:100980000C0F08BF95EA0C0F3FF43BAF94EA0C0F35
:100990000AD150EA01347FF434AF95EA0C0F7FF4AA
:1009A00025AF104619462CE795EA0C0F06D152EAFE
:1009B00003353FF4FDAE1046194622E750EA4106E2
:1009C00018BF52EA43067FF4C5AE50EA41047FF4F3
:1009D0000DAF52EA43057FF4EBAE12E74FF0FF3C58
:1009E00006E000BF4FF0010C02E000BF4FF0010C29
:1009F0004DF804CD4FEA410C7FEA6C5C4FEA430CA2
:100A000018BF7FEA6C5C1BD001B050EA410C0CBFF0
:100A100052EA430C91EA030F02BF90EA020F002052
:100A2000704710F1000F91EA030F58BF994208BFB9
:100A300090422CBFD8176FEAE37040F00100704776
:100A40004FEA410C7FEA6C5C02D150EA013C07D1CD
:100A50004FEA430C7FEA6C5CD6D152EA033CD3D018
:100A60005DF8040B704700BF8446104662468C4612
:100A70001946634600E000BF01B5FFF7B7FF002845
:100A800048BF10F1000F01BD4DF808EDFFF7F4FF6E
:100A90000CBF012000205DF808FB00BF4DF808EDF9
:100AA000FFF7EAFF34BF012000205DF808FB00BF1C
:100AB0004DF808EDFFF7E0FF94BF012000205DF83E
:100AC00008FB00BF4DF808EDFFF7CEFF94BF0120F3
:100AD00000205DF808FB00BF4DF808EDFFF7C4FFEC
:100AE00034BF012000205DF808FB00BF4FEA410C35
:100AF0007FEA6C5C02D150EA013C0AD14FEA430C18
:100B00007FEA6C5C02D152EA033C02D14FF0000054
:100B100070474FF0010070474FEA410212F5001292
:100B200015D211D56FF47873B3EB625212D94FEA34
:100B3000C12343F0004343EA505311F0004F23FA1E
:100B400002F018BF404270474FF00000704750EA73
:100B5000013005D111F0004008BF6FF00040704730
:100B60004FF00000704700BF0348044B834202D09F
:100B7000034B03B118477047D8020020D802002069
:100B8000000000000548064B1B1AD90F01EBA3011A
:100B9000491002D0034B03B118477047D802002018
:100BA000D80200200000000010B5064C237843B99D
:100BB000FFF7DAFF044B13B10448AFF300800123C1
:100BC000237010BDD8020020000000000CED0008CA
:100BD00008B5054B1BB105490548AFF30080BDE8DA
:100BE0000840FFF7CFBF00BF00000000DC0200207C
:100BF0000CED00082DE9FF4757EC106B002F0C4659
:100C000019463B46BBBF07F100431F4600232D2377
:100C10000B700D9BDDF830A0914623F02008BCBF7F
:100C200032461646B8F1460F05D0B8F1450F00D14F
:100C30000134022100E0032103AB019302AB0093D6
:100C400047EC106B5346224600F036FEB8F1470FD2
:100C5000054619D119F0010F0ED000EB040900224E
:100C6000002330463946FFF70FFF08B1CDF80C904E
:100C70003022039B4B451ED3039B0E9A5B1B2846D9
:100C8000136004B0BDE8F087B8F1460F00EB04092B
:100C9000E5D10378302B0AD10022002330463946B3
:100CA000FFF7F2FE18B9C4F10104CAF80040DAF8FF
:100CB00000309944D3E7591C03911A70D9E7F7B56E
:100CC0000029BABF49422D232B2309290270437002
:100CD00029DD0DF1070425460A272246B1FBF7F668
:100CE00007FB1613303302F8013C0B46632B04F16B
:100CF000FF343146F1DC3031931E04F8011C411CF5
:100D00001C46AB420AD30DF109039B1AA54238BF1A
:100D10000023821C1344181A03B0F0BD13F8016BB2
:100D200001F8016FEDE7302330318370C170031D8E
:100D3000F1E700002DE9F04F8DB00C46DDF858804A
:100D400016461F46054600F0BDFC0368069318468C
:100D5000FFF76EFA00230A93D8F8003094F818A031
:100D6000D4F800B00790073323F00703B3EC027BFD
:100D70008DED047BC8F80030DDE9048323F00049E1
:100D800084ED127B9C4B4FF0FF3240464946FFF703
:100D9000ADFE70BB984B4FF0FF3240464946FFF71F
:100DA00087FE30BBDDE9040100220023FFF776FE59
:100DB00010B12D2384F84330904A914BBAF1470F7C
:100DC0008CBF90469846032323612BF004032360D5
:100DD0004FF00009009733460BAA2146284600F041
:100DE000D1F9013040F08C804FF0FF300DB0BDE8FC
:100DF000F08FDDE9042310461946FFF777FE40B176
:100E0000059B804A002BBCBF2D2384F843307E4BCA
:100E1000D4E763685A1C0AF0DF093BD106236360FC
:100E20004BF480620023226003930AABCDE901A357
:100E300009AB009361689DED040B0DF12303284677
:100E4000FFF7D8FEB9F1470F0999804629D1C81C90
:100E500002DB63688B4241DAAAF1020A5FFA8AFA7E
:100E60000139524604F150000991FFF728FF0A9A10
:100E70001318012A8146236102DC2268D20701D5BA
:100E8000013323619DF82330002BA3D02D2384F858
:100E900043309FE7B9F1470FC2D1002BC0D10123E6
:100EA000BDE7BAF1650FDBD9BAF1660F18D1002999
:100EB00063680BDD216113B92268D00702D50133C5
:100EC0000B442361A1654FF00009DBE713B92268E9
:100ED000D20701D50233F4E70123F2E74FF0670AA6
:100EE0000A9B8B4205DC23682161D807EAD54B1C9D
:100EF000E7E70029D4BFC1F1020201221344E0E771
:100F000023685A0507D42369424631462846B84724
:100F100001302BD168E7BAF1650F40F2DD80D4E9EA
:100F2000120100220023FFF7AFFD002833D0374A1B
:100F3000012331462846B84701303FF455AFDDE97B
:100F40000938434502DB2368D8070FD5DDE90623BE
:100F500031462846B84701303FF446AF4FF000090C
:100F600008F1FF3804F11A0AC84509DC23689B0719
:100F700000F10381E0680B9B9842B8BF184635E743
:100F80000123524631462846B84701303FF42CAF82
:100F900009F10109E8E7099B002B39DC1B4A012311
:100FA00031462846B84701303FF41EAFDDE9093924
:100FB00059EA030302D12368D907D7D5DDE906230F
:100FC00031462846B84701303FF40EAF4FF0000AD3
:100FD00004F11A0B099B5B42534501DC4B4693E736
:100FE00001235A4631462846B84701303FF4FCAE4B
:100FF0000AF1010AEEE700BFFFFFEF7F54EE0008A1
:1010000050EE00085CEE000858EE0008D7EF00082C
:10101000A36DDDF828A05345A8BF5346002B994681
:1010200036DC4FF0000B29EAE97904F11A02A36DCE
:101030000493A3EB09035B4531DC099B9A453ADC39
:101040002368DA0737D4099BAAEB0309049BAAEBB0
:1010500003039945A8BF9946B9F1000F33DC4FF05F
:10106000000829EAE97904F11A0B099BAAEB0303AA
:10107000A3EB090343457FF779AF01235A46314675
:101080002846B84701303FF4AFAE08F10108ECE75D
:10109000424631462846B8470130C2D1A4E6012372
:1010A000314628460492B84701303FF49DAE049A79
:1010B0000BF1010BBBE7DDE9062331462846B847B3
:1010C0000130C0D190E6049A4B464244314628464E
:1010D000B8470130C3D187E6DDF828A0BAF1010F87
:1010E00001DCDB0736D50123424631462846B847A6
:1010F00001303FF479AEDDE9062331462846B84792
:1011000001303FF471AED4E91201002200230AF14C
:10111000FF3AFFF7B9FCC0B9534608F10102314666
:101120002846B84701300CD15EE601235A463146C5
:101130002846B84701303FF457AE08F10108D045C2
:10114000F3DB4B4604F15002DFE64FF0000804F1F8
:101150001A0BF4E701234246E1E701234A463146F0
:101160002846B84701303FF43FAE08F10108E36874
:101170000B995B1A4345F0DCFCE64FF0000804F1E4
:101180001909F4E72DE9F047164698468A680B6975
:10119000DDF820909342B8BF1346336091F84320A6
:1011A00007460C460AB1013333602368990642BFF3
:1011B000336802333360256815F0060506D104F163
:1011C000190AE36832689B1AAB4226DC94F8433074
:1011D0002268003B18BF012392062BD404F143027E
:1011E00041463846C84701301ED02368226903F0C3
:1011F0000603042B02BFE5683368ED1AA3680CBF31
:1012000025EAE57500259342C4BF9B1AED18002618
:101210001A34B5421AD1002008E001235246414653
:101220003846C847013003D14FF0FF30BDE8F087A2
:101230000135C6E7E1185A1C302081F843002244EA
:1012400094F8451082F843100233C7E70123224681
:1012500041463846C8470130E6D00136D9E700009C
:101260002DE9FF470F7E0C9E782F914680460C4655
:101270009A4601F1430207D8622F0AD8002F00F0E6
:10128000D280582F00F0B78004F1420684F84270F3
:101290003AE0A7F16303152BF6D801A151F823F02A
:1012A000F91200080D1300088912000889120008BD
:1012B00089120008891200080D130008891200081D
:1012C0008912000889120008891200080D1400080C
:1012D00037130008C3130008891200088912000898
:1012E0002F1400088912000837130008891200081B
:1012F00089120008CB13000833681A1D1B6832607E
:1013000004F1420684F8423001239DE033682068EE
:10131000191D3160060601D51D6803E04506FBD5A1
:10132000B3F90050002D03DA2D236D4284F84330C9
:1013300059480A2310E021683368080653F8045B13
:1013400002D4490648BFADB26F2F5348336059D11C
:101350000823002184F843106668A660002E05DB90
:1013600021682E4321F0040121604DD01646B5FBC3
:10137000F3F103FB1157C75D06F8017D2F46BB4211
:101380000D46F4D9082B0BD12368DF0708D5236954
:1013900061689942DEBF302306F8013C06F1FF3652
:1013A000921B2261CDF800A04B4603AA214640467D
:1013B000FFF7E8FE01304CD14FF0FF3004B0BDE83C
:1013C000F087236843F0200323603448782784F8AB
:1013D0004570236831681F0651F8045B02D45F062C
:1013E00048BFADB23160D90744BF43F0200323604A
:1013F0001DB11023ADE72848E9E7236823F0200357
:101400002360F6E70A23A4E71646BBE7336825689E
:101410006169181D30602E061B6801D5196002E055
:101420006806FBD51980002323611646BAE73368A6
:101430001A1D32601E68626800213046FEF7A8FE61
:1014400008B1801B606063682361002384F8433027
:10145000A8E72369324649464046D0470130ABD021
:1014600023689B0713D4E068039B9842B8BF1846D3
:10147000A4E70123324649464046D04701309BD07D
:101480000135E36803995B1AAB42F2DCEBE7002518
:1014900004F11906F5E700BF60EE000871EE0008E0
:1014A000002310B50446C0E90033C0E9043383606B
:1014B00081814366C2818361194608225C3000F055
:1014C000F9F80D4B63620D4BA3620D4BE3620D4BBC
:1014D00023630D4B24629C4206D003F168029442C0
:1014E00002D0D0339C4205D104F15800BDE8104031
:1014F00000F056B910BD00BF291600084F160008AD
:1015000087160008AD160008F4020020024A0349BD
:10151000034800F06BB800BF000000209D2E0008BB
:101520001000002041680C4B994210B5044601D0D0
:1015300001F0B4FCA168094B994202D0204601F0A9
:10154000ADFCE168064B994204D02046BDE810404E
:1015500001F0A4BC10BD00BFF40200205C03002019
:10156000C40300200C4B0D4A0D4810B504211A602D
:101570000022FFF795FF0A4B01221C46092103F1C7
:101580006800FFF78DFF04F1D0000222BDE8104093
:101590001221FFF785BF00BF2C0400200D150008A5
:1015A000F4020020014800F0FCB800BF3504002020
:1015B000014800F0F7B800BF3504002010B504461C
:1015C000FFF7F0FF236A1BB1BDE81040FFF7F0BF43
:1015D000044B2362044B1B68002BF5D1FFF7C2FFBD
:1015E000F2E700BF251500082C0400202DE9F84380
:1015F0000746884614460026D4E90195B9F1010949
:1016000005D52468002CF7D13046BDE8F883AB89B6
:10161000012B07D9B5F90E30013303D029463846DE
:10162000C04706436835E9E710B50C46B1F90E101E
:1016300000F06EF80028ABBF636DA3891B1823F47C
:101640008053ACBF6365A38110BD002070472DE9B6
:10165000F0411F468B89DB0505460C46164605D52D
:10166000B1F90E100223002200F040F8A389B4F96A
:101670000E1023F48053A38132463B462846BDE832
:10168000F04100F057B810B50C46B1F90E1000F05B
:101690002DF8B4F90C30421C0BBF23F4805343F4F3
:1016A0008053A381A38118BF606510BDB1F90E10EE
:1016B00000F00CB802440346934200D1704703F88F
:1016C000011BF9E7004870474C01002038B5064D72
:1016D0000023044608462B600CF01EFC431C02D17C
:1016E0002B6803B1236038BD3004002038B5074DA6
:1016F00004460846114600222A601A460CF033FCC4
:10170000431C02D12B6803B1236038BD3004002094
:1017100038B5074D04460846114600222A601A468D
:101720000CF0C1FB431C02D12B6803B1236038BD10
:101730003004002038B5074D044608461146002203
:101740002A601A460CF0CCFB431C02D12B6803B173
:10175000236038BD3004002070B50D4B0D4D5B1B70
:101760009C100026A64209D10DF0D0FA0A4D0B4B71
:101770005B1B9C100026A64205D170BD55F8043BAA
:1017800098470136EEE755F8043B98470136F2E7F3
:1017900028F2000828F2000828F200082CF20008BD
:1017A0007047704770472DE9F74F03690C69A342F2
:1017B00007467EDB013C01F11408A30000F114058B
:1017C000009305EB8403019358F8243055F8242046
:1017D00001339A4208EB8409B2FBF3F62ED34FF0A3
:1017E000000AC446AE46D3465CF8043B98B206FBFA
:1017F00000A0020C1B0C06FB0323DEF8002080B2C5
:1018000092B2121A5A44DEF800004FEA134A9BB211
:10181000C3EB224303EB104392B242EA0342E14599
:101820004EF8042B4FEA234BDED2009BEB582BB92A
:10183000019B043B9D421A462FD33C61384601F080
:101840009FF9002825DB2946002058F8042BD1F801
:1018500000C01FFA82FE1FFA8CF3A3EB0E030344B1
:10186000120CC2EB234202EB1C429BB243EA02433E
:10187000C14541F8043B4FEA2240E6D255F8242006
:1018800005EB840322B9043B9D421A460BD33C610D
:101890000136304603B0BDE8F08F1268043B002AE1
:1018A000CBD1013CC6E71268043B002AEFD1013CD2
:1018B000EAE70020EEE700002DE9F04F99B08DED4A
:1018C0000E0B0C92C269229C0A9157EC106B814658
:1018D000139382B9102000F019FE0246C9F81C00CB
:1018E00020B9AD4BEF21AD4801F01EFB0023C0E94C
:1018F00001330360C360116859B152684A60012323
:1019000093408B60484600F0FDFED9F81C30002261
:101910001A60B7F10008B5BF0123002323602360DC
:101920009F4BBCBF28F00048CDF83C8033EA080349
:101930001AD1139AC8F3130842F20F7358EA060833
:10194000136000F06C85239B53B9964B21E0964BB6
:1019500000930833239A1360009819B0BDE8F08F04
:10196000904B00930333F5E79DED0E7B002251EC85
:10197000170B00238DED067BFFF786F8824650B1EA
:10198000139A01231360239B13B1239A874B13608F
:10199000874B0093E0E79DED060B16AA17A9484672
:1019A00001F0A2F95FEA1854169D019079D0079BC7
:1019B000CDF850A0C3F31303DDE9060143F07F53D4
:1019C00043F44013A4F2FF3419460022794BFEF78A
:1019D0003BFC6BA3D3E90023FEF7EEFD6AA3D3E93A
:1019E0000023FEF733FC064620460F46FEF77AFD3D
:1019F00067A3D3E90023FEF7DFFD02460B4630461E
:101A00003946FEF723FC06460F46FFF785F800220D
:101A10008046002330463946FFF740F848B140463B
:101A2000FEF760FD32463B46FFF72EF808B908F195
:101A3000FF38B8F1160F51D85F4B03EBC803D3E959
:101A40000023DDE90601FFF729F8002848D008F156
:101A5000FF38002312932D1B6B1E089343BF0023F6
:101A6000C5F1010708930027B8F1000F3ADB089B86
:101A7000CDF8348043440893002309930A9B092B33
:101A800064D8052BC4BF043B0A930A9BA3F102034D
:101A9000CCBF00240124032B64D8DFE803F05355A6
:101AA000362B179C2C4404F23243202BC1BFC3F1C8
:101AB000400308FA03F804F2124326FA03F3D6BFF0
:101AC000C3F1200348EA030006FA03F0FEF7FAFC2C
:101AD0000122A1F1F873013C149275E70123B9E7E3
:101AE0001290B8E7C8F1000309930023A7EB080799
:101AF0000D93C3E701230B930C9B434405930133E0
:101B0000012B0493B8BF012306E001230B930C9B28
:101B1000002B2ADDCDE90433D9F81C000021042272
:101B200002F114059D4201F1010623D941604846A6
:101B300000F0AAFD0090002842D1204B024640F25E
:101B4000AF11D0E60023E1E70023D4E7012400230E
:101B5000CDE90A344FF0FF33CDE9043300221223DC
:101B60000C92D9E701230B93F4E70123CDE9043369
:101B70001A46F5E752003146D2E700BFAFF30080C6
:101B800061436F63A787D23FB3C8608B288AC63F83
:101B9000FB799F501344D33F8FEE0008A6EE000858
:101BA0000000F07F8BEE000882EE0008D8EF0008FE
:101BB000D7EF00080000F83F10F00008FFEE000823
:101BC000D9F81C30009A1A60049B0E2B00F2A180F9
:101BD000002C00F09E80B8F1000F36DD9E4B08F01F
:101BE0000F0203EBC20318F4807FD3E900AB4FEA86
:101BF000281516D0994BDDE90601D3E90823FEF735
:101C000005FECDE9020105F00F050324934E75B9D9
:101C1000DDE9020152465B46FEF7F8FD82468B463F
:101C20002DE09DED067B02248DED027BEEE7E907BA
:101C300008D550465946D6E90023FEF7BDFC0134CD
:101C400082468B466D100836E1E700F0AD80C8F1A2
:101C50000005814B814E05F00F0203EBC203D3E96F
:101C60000023DDE90601FEF7A7FC2D1182468B4615
:101C700000230224002D40F08C80002BCED1129B3B
:101C8000002B00F09580764B002250465946FEF717
:101C900005FF002800F08C80049B002B00F088805A
:101CA000059B002B35DD08F1FF3302935046594662
:101CB0006C4B0022FEF780FC059E82468B46013469
:101CC0002046FEF70FFC52465B46FEF775FC664B5E
:101CD0000022FEF7BBFA0446A1F15075CDE910458C
:101CE000002E69D1614B002250465946FEF7ACFAEE
:101CF00022462B4682468B46FEF7EEFE002840F039
:101D00009482224605F1004350465946FEF7C6FE2E
:101D100020BB179B002BC0F26081B8F10E0F00F3BF
:101D20005C814D4B03EBC803D3E900AB0C9B002B4C
:101D300080F2EE80049B002B00F3EA800ED14B4B27
:101D4000002250465946FEF737FC02460B46DDE9B5
:101D50000601FEF7ADFE002800F06A8200252C4641
:101D60000C9B009EDB4302932746002429464846ED
:101D700000F0C8FC002F00F0C1802CB1BC4203D0A1
:101D80002146484600F0BEFC3946484600F0BAFC01
:101D9000B4E0EA0705D5D6E90023FEF70DFC0134CF
:101DA00001236D10083665E7DDE906AB022466E71E
:101DB000049ECDF8088083E7274B03EBC60353E965
:101DC00002010B9B002B55D002460B4600202849F0
:101DD000FEF71CFDDDE91023FEF736FA009BCDE986
:101DE00010019D191E4659465046FEF795FE0446C1
:101DF000FEF778FB02460B4650465946FEF724FA9A
:101E00003034DDE9102306F8014B82468B46FEF79D
:101E100045FE002872D152465B4611490020FEF76C
:101E200013FADDE91023FEF739FE002840F0B680F2
:101E3000AE423FF46EAFDDE910010A4B0022FEF71F
:101E4000BBFB084BCDE91001002250465946FEF776
:101E5000B3FB82468B46C6E710F00008E8EF0008A7
:101E60000000F03F0000244000001C40000014402F
:101E70000000E03FDDE91023FEF79EFB009B009D84
:101E8000CDE910013344159359465046FEF744FE00
:101E90000446FEF727FB30340B46024659465046AF
:101EA000FEF7D2F905F8014B159B9D4282468B4601
:101EB00027D1009B0022DDE910011E44B34BFEF741
:101EC000C5F902460B4650465946FEF705FE002866
:101ED00064D1DDE91023AD490020FEF7B5F90246D3
:101EE0000B4650465946FEF7D9FD00283FF411AF86
:101EF000334616F8012D302AFAD01E46DDF8088048
:101F00003AE0A34B0022FEF757FB82468B46BBE725
:101F1000009E52465B46DDE90601FEF777FCFEF7C0
:101F2000FBFD0746FEF7DEFA52465B46FEF744FB32
:101F300002460B46DDE90601FEF786F907F1300C93
:101F4000009C06F801CBA6EB040C049C64450246F9
:101F50000B4633D1FEF77AF952465B4604460D46EE
:101F6000FEF7BAFDC0B952465B4620462946FEF749
:101F70008BFD08B1FB070FD40199484600F0C2FB66
:101F80000023139A337008F101031360239B002B85
:101F90003FF4E2AC1E60DFE4CDF8088033461E4615
:101FA00013F8012D392A06D1009A9A42F7D1029AE4
:101FB00001320292302201321A709FE7744B0022E4
:101FC000FEF7FAFA02460B46CDE90623002200236B
:101FD000FEF75AFD00289CD0CEE70B9A002A00F0AD
:101FE000E3800A9A012A00F3C280149A002A00F0C2
:101FF000BA8003F23343099D3E46089A01211A44F0
:1020000048461F44089200F031FC044656B1089B34
:10201000002B07DDB342089AA8BF3346FF1AF61A11
:10202000D31A0893099B0BB30B9B002B00F0C380C2
:10203000002D00F0BD8021462A46484600F0D6FC1F
:10204000019A01460446484600F026FC0199824662
:10205000484600F057FB099B5B1B099300F0AE80DC
:10206000099A5146484600F0C1FC019001214846BA
:1020700000F0FCFB0D9B0546002B00F0D7811A46B3
:102080000146484600F0B2FC0A9B012B054600F3CE
:102090009D800E9B002B40F094800F9BC3F3130395
:1020A000002B40F08E800F9B23F000431B0D1B057F
:1020B000002B00F08980089B0133013708934FF013
:1020C000010A0D9B002B00F0B7812B6905EB830300
:1020D000186900F07FFBC0F12000089B184410F045
:1020E0001F007ED0C0F12003042B72DD089BC0F1DD
:1020F0001C000344074406440893002F05DD0199A2
:102100003A46484600F0CEFC0190089B002B05DDC6
:1021100029461A46484600F0C5FC0546129B002B8E
:1021200061D00198294600F02BFD00285BDA08F108
:10213000FF330293019900230A22484600F004FB72
:102140000B9B0190002B00F07981002321460A228D
:10215000484600F0F9FA059B002B044672DC0A9B06
:10216000022B49DC6EE0169BC3F1360343E7049B68
:102170005D1E099BAB420DDB5D1B049B002BBFF674
:102180003BAF049BFE1A002337E700BF0000E03F8F
:1021900000002440099B0D9A0995EB1A1A440D92F0
:1021A000049B3E46002528E7099D0B9C3E462DE7F3
:1021B000DDF804A054E7099A019953E7CDF804A08B
:1021C00054E74FF0000A7CE79A467AE74FF0000A9E
:1021D0007BE792D0089A1C331A441F441E4408928D
:1021E0008BE70346F6E7049BCDF80880002B23DC41
:1021F00005930A9B022B21DD059B002B7FF4B0ADDC
:1022000029460522484600F09FFA014605460198F6
:1022100000F0B6FC00287FF7A3AD009E312306F83E
:10222000013B029B013302939EE535462C46F4E7C1
:10223000049DCDF80880F9E7049B05930B9B002BC8
:1022400000F00081002E05DD21463246484600F0B0
:1022500029FC0446BAF1000F5AD06168484600F0E4
:1022600013FA064628B9824B024640F2EF21FFF7E7
:102270003ABB22690232920004F10C010C3000F0EA
:1022800045FE01223146484600F00CFC0746009B03
:10229000009A03F1010B059B134406930E9B03F078
:1022A000010308930BF1FF33294601980493FFF7CC
:1022B0007AFA2146059000F1300A019800F060FC9E
:1022C0003A4680462946484600F076FCC2680646F3
:1022D00002BB0146019800F053FC024631464846D5
:1022E000099200F00FFADDE9092342EA0301089B95
:1022F00019435E4610D1BAF1390F2BD0B8F1000F57
:1023000002DD059B03F1310A049B83F800A02DE553
:102310002746BCE70122E1E7B8F1000F06DB0A9B84
:1023200048EA0308089B58EA030820D1002AEBDD9D
:1023300001990122484600F0B5FB2946019000F0C2
:102340001FFC002803DCDFD11AF0010FDCD0BAF14A
:10235000390FD6D1049A3923137033461E46013BF8
:1023600016F8012C392A52D001321A70FEE4002AE4
:1023700007DDBAF1390FEDD0049A0AF101031370A9
:10238000F4E4069B0BF801AC5B452AD001990023CD
:102390000A22484600F0D8F9BC4201904FF00003F1
:1023A0004FF00A022146484606D100F0CDF9044616
:1023B00007460BF1010B75E700F0C6F939460446F4
:1023C00000230A22484600F0BFF90746F1E7059BC3
:1023D0005E1E002B009BD8BF00265A1C27461644C1
:1023E000002401990122484600F05CFB2946019037
:1023F00000F0C6FB0028B0DC02D11AF0010FACD10E
:1024000033461E4613F8012D302AFAD0AEE4009A66
:102410009A42A3D1029B013302933123AFE7239B5E
:10242000002B7FF494AA134BFFF7B3BA0A9B012B3E
:102430007FF72FAEDDF834A001204EE6059B002B80
:102440007FF7D7AE009E01982946FFF7ACF900F15F
:10245000300A009B06F801ABF21A059B9342B6DDE9
:10246000019900230A22484600F06EF90190EAE73C
:10247000FFEE000882EE000838B50546002941D07D
:1024800051F8043C0C1F002BB8BFE41800F0F0F822
:102490001D4A136833B9636014602846BDE83840AC
:1024A00000F0ECB8A34208D9206821188B4201BF84
:1024B00019685B6809182160EDE71A465B680BB183
:1024C000A342FAD911685018A0420BD120680144E8
:1024D000501883421160E0D118685B68536008446B
:1024E0001060DAE702D90C232B60D6E720682118A8
:1024F0008B4204BF19685B68636004BF09182160E0
:102500005460CAE738BD00BF3C040020024B0146BE
:10251000186800F02DB800BF0C000020024B0146E7
:102520001868FFF7A9BF00BF0C00002070B50F4E60
:102530000C463168054611B900F0D8FC30602146E0
:10254000284600F0D3FC431C03D14FF0FF34204653
:1025500070BDC41C24F00304A042F8D0211A284600
:1025600000F0C4FC0130F2D1EFE700BF38040020D6
:102570002DE9F843CD1C25F0030508350C2D38BF97
:102580000C25002D064601DBA94204D90C2333603B
:102590000020BDE8F883DFF8D48000F069F8D8F8AF
:1025A00000301C4644BB29463046FFF7BFFF431CA2
:1025B000044658D1D8F800402746002F43D1002CBC
:1025C0004BD023683946304604EB030900F08EFCFB
:1025D000814542D121686D1A29463046FFF7A6FF92
:1025E00001303AD023682B442360D8F800305A6871
:1025F00062BBC8F800700FE02268521B20D40B2A7F
:1026000017D96119A342256018BF5960636808BFD4
:10261000C8F8001062514B60304600F02FF804F10A
:102620000B00231D20F00700C21A1CBF1B1AA35069
:10263000AFE76268A3420CBFC8F800205A60EBE71E
:1026400023466468AEE73C467F68B6E71A465B6897
:10265000A342FBD100235360DEE70C2333603046F6
:1026600000F00CF894E70560D6E700BF3C040020BA
:102670000148FFF796B800BF340400200148FFF777
:1026800091B800BF3404002070B5C46905460E46F9
:1026900084B91020FFF73AFF0446E86128B90246E2
:1026A000164B17486B2100F03FFC0023C0E90133B3
:1026B0000360C360E36853B921220421284600F077
:1026C00051FCEB69E060DB680BB9002070BD53F88A
:1026D000260030B1026843F826200023C0E9033306
:1026E000F4E7012101FA06F4621D9200284600F089
:1026F00039FC0028E9D0C0E90164EEE78FEE00085C
:1027000010EF000870B5C66905460C4676B9102072
:10271000FFF7FCFE0246E86120B9094B09488F210A
:1027200000F002FCC0E901660660C6603CB1EB69DE
:102730006268DB6853F82210216043F8224070BDC4
:102740008FEE000810EF00082DE9F0410D690746F3
:102750000C461E4601F1140C0020DCF8003099B242
:1027600002FB01611E0C0B0C02FB063389B2013027
:1027700001EB034185424CF8041B4FEA1346ECDCA5
:102780000EB3A368AB4219DC616838460131FFF72C
:102790007BFF804628B902460C4B0D48BA2100F059
:1027A000C3FB2269023204F10C0192000C3000F0EC
:1027B000ADFB21463846FFF7A5FF444604EB8503F1
:1027C00001355E6125612046BDE8F081FFEE00081D
:1027D00010EF0008B0F5803F034636BF0304002029
:1027E0001020B3F1807F3CBF1B020830B3F1805F43
:1027F0003CBF1B010430B3F1804F3CBF9B00023053
:10280000002B05DB13F0804F00F1010008BF2020F2
:1028100070470368024613F007000BD0D90721D494
:10282000980749BF5B089B08012013605CBF1360D9
:102830000220704799B209B91B0C1020D9B209B90E
:1028400008301B0A190704BF1B090430990704BF8D
:102850009B080230D90703D45B0800F1010003D0C4
:1028600013607047002070472020704710B50C4659
:102870000121FFF709FF024628B9054B054840F240
:10288000451100F051FB01234461036110BD00BFFD
:10289000FFEE000810EF00082DE9F04FD1F810907E
:1028A000D2F810A0D14585B08846144604DB5346C3
:1028B0000C46CA4690469946A36861680AEB090629
:1028C000B342B8BF0131FFF7DFFE30B90246454BD6
:1028D00045484FF4B17100F027FB00F1140505EBFA
:1028E00086072B460022BB421FD304F1140C08F1CB
:1028F00014010CEB8A0301EB890202921A1B153AB0
:1029000022F0030215349C4288BF00220192029AF1
:1029100003918A420CD8002E03DD57F8043D002BAA
:102920005DD0066105B0BDE8F08F43F8042BDAE70F
:10293000B1F800A0BAF1000F24D0E046A9464FF04C
:10294000000E58F8042BD9F800401FFA82FBA4B2FD
:102950000AFB0B444FEA124BD9F8002074444FEAAB
:10296000124E0AFB0BE202EB1442A4B244EA024408
:10297000434549F8044B4FEA124EE2D8019AAA188F
:10298000C2F804E0039AB2F802800431B8F1000FF3
:1029900023D02A68E6469146AA464FF0000BBEF8BF
:1029A000004008FB04B404EB194492B242EA04422A
:1029B0004AF8042B5EF8042BDAF800904FEA124B29
:1029C0001FFA89F208FB0B2202EB144273454FEA0F
:1029D000124BE4D8019C2C196260043597E7013E44
:1029E00099E700BFFFEE000810EF00082DE9F8435B
:1029F000174612F0030280460D4607D0264C013AD6
:102A0000002354F82220FFF79FFE0546BF103FD059
:102A1000D8F81C4094B91020FFF778FD0446C8F898
:102A20001C0030B902461D4B1D4840F2B31100F0A6
:102A30007BFA0023C0E901330360C360A66846B98E
:102A400040F271214046FFF711FF0023A0600646C7
:102A500003602C464FF0000907F001037F1053B1CB
:102A6000294632464046FFF717FF214605464046B5
:102A7000FFF748FE67B1306838B932463146404604
:102A8000FFF70AFF3060C0F8009006462C46E3E7E7
:102A90002846BDE8F88300BFDCEF00088FEE000891
:102AA00010EF00082DE9F84F0C464968236903EB45
:102AB0006218A368074615464FEA621A08F1010931
:102AC0004B450BDB3846FFF7DFFD064648B90246AB
:102AD000294B2A484FF4EF7100F026FA01315B00D0
:102AE000EEE7002300F1140C00F1100219465345E3
:102AF00035DB22692AEAEA7A0CEB8A0C04F114032A
:102B000015F01F0E614603EB82022CD0CEF1200A95
:102B1000002518688B4600FA0EF02843CBF8000019
:102B200053F8045B9A4201F1040125FA0AF5F0D842
:102B3000131B153B23F0030304F115018A4238BF30
:102B400000239C44CCF8045005B9C1463846C6F869
:102B500010902146FFF7D6FD3046BDE8F88F42F8C9
:102B6000041F0133C3E753F8045B0D609A4201F17F
:102B70000401F8D8E9E700BFFFEE000810EF0008F5
:102B80000A6903460069801A30B50ED11433143136
:102B900003EB820401EB820154F8045D51F8042D2B
:102BA000954203D005D24FF0FF3030BDA342F3D39E
:102BB000FBE70120F9E700002DE9F74F8A460646BA
:102BC000114650461446FFF7DBFF051E12D1294679
:102BD0003046FFF759FD024628B9414B40F23721F4
:102BE000404800F0A1F90123C0E90435104603B0C4
:102BF000BDE8F08FBCBF5346A2463046DAF8041059
:102C0000BABF1C4601250025FFF73EFD024618B954
:102C1000334B40F24521E3E7DAF810702669C560CE
:102C20000AF1140904F1140E00F114050AF110035D
:102C300009EB87080EEB86060193AB464FF0000CBC
:102C4000019B5EF8040B53F804AF01931FFA8AF35B
:102C5000194683B2CB1A000C6344C0EB1A4000EB58
:102C600023409BB243EA004376454BF8043B4FEACE
:102C7000204CE5D8331B153B153423F00303A64243
:102C800038BF0023E8184B441C1D04302646A5EB32
:102C90000905464506EB050E0ED308F10301091B95
:102CA00021F003010133984538BF0021014451F858
:102CB000043D9BB1176199E756F8041BE2464FEAC1
:102CC00011491CFA81FC514409EB2C4989B241EAB3
:102CD00009414FEA294CCEF80010DAE7013FE6E758
:102CE000FFEE000810EF00082DE9F7430F46012121
:102CF00059EC108B1646FFF7C7FC044630B9024664
:102D0000234B244840F20F3100F00EF9C9F30A5565
:102D1000C9F313030DB143F480130193B8F1000319
:102D200023D068460093FFF774FD0099D8B1019A4B
:102D3000C0F1200302FA03F30B43C2406361019226
:102D4000019BA361002B0CBF012202222261A5B1CD
:102D5000A5F2334505443D60C0F1350030602046A2
:102D600003B0BDE8F0836161EAE701A8FFF751FD18
:102D7000019B636120300122E8E704EB8203A0F2AB
:102D8000324038601869FFF725FDC0EB4210E5E7D7
:102D9000FFEE000810EF0008B1F90C202DE9F0411A
:102DA000160705460C4651D44B68002B02DC0B6C11
:102DB000002B49DDE66A002E46D0002312F4805233
:102DC0002F682B6031D0626DA389590705D56368E0
:102DD000D21A636B0BB1236CD21A0023E66A216A04
:102DE0002846B047421CB4F90C3006D129681D2989
:102DF00046D8294ACA40D60742D500226260D90483
:102E00002269226004D5421C01D12B6803B9606598
:102E1000616B2F60C1B104F14403994202D028468E
:102E2000FFF72AFB002363630EE0216A0123284693
:102E3000B0470246501CC7D12B68002BC4D01D2BB5
:102E400001D0162B1AD12F6000201EE00F69002F31
:102E5000FAD093070E6808BF4B690F6018BF0023B4
:102E6000A6EB07088B60B8F1000FEDDD216AA66ABA
:102E700043463A462846B047002808DCB4F90C30EF
:102E800043F04003A3814FF0FF30BDE8F0810744D9
:102E9000A8EB0008E7E700BF0100402038B50B6948
:102EA00005460C4613B90025284638BD18B1036AFB
:102EB0000BB9FEF783FBB4F90C30002BF3D0626E34
:102EC000D00704D4990502D4A06DFEF76AFC284609
:102ED0002146FFF761FF636EDA070546E4D4A38954
:102EE0009B05E1D4A06DFEF75DFCDDE738B5064D2E
:102EF0000023044608462B600AF07CFF431C02D1E5
:102F00002B6803B1236038BD300400200A4491428D
:102F100000F1FF3300D1704710B511F8014B03F8F1
:102F2000014F9142F9D110BD1FB514461A46094B05
:102F30001B680546D8684CB1074B0091CDE90134B8
:102F400006492B4600F042F800F052F8044B1C46AC
:102F5000F3E700BF0C00002074EF000881EF0008C9
:102F6000AFEF000870B5A1FB025434B92946FFF752
:102F7000FFFA064628B9304670BD0C2202600026D2
:102F8000F9E72A462146FEF795FBF4E782B001B93E
:102F900001A942B14BB113780B601278101E18BF13
:102FA000012002B070471046FBE76FF00100F8E720
:102FB0000346084641B1FF2A04D98A221A604FF01D
:102FC000FF3070470A700120704700000EB403B54F
:102FD000014603AB054853F8042B0068019300F049
:102FE00037F802B05DF804EB03B070470C00002026
:102FF00008B5062000F018FA01200AF049FF93688E
:10300000013B002B10B4936008DA9469A34201DB02
:103010000A2903D15DF8044B00F032B91368581C3B
:103020001060197008465DF8044B7047F8B5064605
:103030000F461446D518AC4201D1002007E014F821
:10304000011B3A463046FFF7DAFF431CF3D1F8BDC7
:103050002DE9F04F0D469DB014469846064618B12E
:10306000036A0BB9FEF7AAFA6B6ED90705D4AB89D0
:103070009A0502D4A86DFEF794FBAB891B0701D516
:103080002B699BB92946304600F038F970B16B6E58
:10309000DC0704D54FF0FF301DB0BDE8F08FAB89E1
:1030A0009805F7D4A86DFEF77DFBF3E7002309939D
:1030B00020238DF82930CDF80C803023DFF8AC8147
:1030C0008DF82A304FF0010923469A4613F8012B58
:1030D0000AB1252AF9D1BAEB040B0BD05B46224684
:1030E00029463046FFF7A2FF013000F0A780099A79
:1030F0005A4409929AF80030002B00F09F80002378
:103100004FF0FF32CDE905230AF1010A049307933A
:103110008DF853301A935446052214F8011B534876
:10312000FDF736F8049AD8B9D10644BF20238DF8AC
:103130005330130744BF2B238DF853309AF80030D7
:103140002A2B15D0079A544600204FF00A0C21462E
:1031500011F8013B303B092B4BD9B0B1079214E079
:10316000A0EB080309FA03F313430493A246D2E742
:10317000039B191D1B680391002BBBBF5B4242F0F0
:10318000020207930793B8BF049223782E2B0AD12B
:1031900063782A2B32D1039B1A1D1B68039243EAE2
:1031A000E37302340593DFF8D4A02178032250465C
:1031B000FCF7EEFF38B1049BA0EB0A0040228240EE
:1031C00013430134049314F8011B29488DF8281087
:1031D0000622FCF7DDFF00283FD0264B1BBB039BDC
:1031E000073323F0070308330393099B3B440993F8
:1031F0006AE70CFB02320C460120A8E700230134E9
:10320000059319464FF00A0C204610F8012B303A6E
:10321000092A03D9002BC6D00591C4E70CFB012174
:1032200004460123F0E703AB00932A46124B04A99E
:103230003046FDF77FFD0746781CD6D16B6ED90767
:1032400005D4AB899A0502D4A86DFEF7ABFAAB8919
:103250005B063FF51FAF09981EE703AB00932A46B4
:10326000054B04A93046FDF7FBFFE4E7B0EF00088B
:10327000BAEF0008350D00082D300008B6EF000841
:10328000F8B50E461446054618B1036A0BB9FEF7A9
:1032900095F9A369A360A3891A0701D5236943B9E6
:1032A0002146284600F02AF818B14FF0FF3738467B
:1032B000F8BD23682269981A6369F6B283423746DB
:1032C00005DC21462846FFF7E9FD0028EDD1A3687B
:1032D000013BA36023685A1C22601E706269431C74
:1032E0009A4204D0A389DB07E1D50A2EDFD121461B
:1032F0002846FFF7D3FD0028D9D0D6E738B5284BAC
:10330000054618680C4618B1036A0BB9FEF756F962
:10331000B4F90C301A0721D4D80607D409222A6040
:1033200043F04003A3814FF0FF3030E0590712D53E
:10333000616B41B104F14403994202D02846FFF782
:103340009BF8002363630022B4F90C3062602269A9
:10335000226023F0240343F00803A38122693AB9D1
:103360009A0501D5180603D52146284600F0CAF86B
:10337000B4F90C3013F001020AD00022A260626995
:103380005242A261226942B913F08000C8D138BD0F
:10339000990758BF6269A260F4E70020F7E700BF11
:1033A0000C000020884210B501EB020402D98442CF
:1033B000234607D8431EA14207D011F8012B03F87A
:1033C000012FF8E70244824200D110BD13F8011D1D
:1033D00002F8011DF7E71F2938B505460C4604D948
:1033E000162303604FF0FF3038BDC26B12B152F8A4
:1033F00021304BB9284600F031F8224601462846D4
:10340000BDE8384000F018B8012B0AD0591C03D190
:10341000162303600120E7E7002142F8241020462C
:1034200098470020E0E70000024B01461868FFF7CC
:10343000D2BF00BF0C00002038B5074D0023044662
:10344000084611462B600AF013FD431C02D12B687D
:1034500003B1236038BD00BF300400200AF000BD76
:103460002DE9F041074614460D4621B9BDE8F0416B
:103470001146FFF77DB82AB9FEF7FEFF254628461C
:10348000BDE8F08100F09AF88442064602D8B4EB19
:10349000500FF4D821463846FFF76AF8804608B93D
:1034A0004546ECE7B4422246294628BF3246FFF79C
:1034B0002DFD29463846FEF7DFFFF1E770B50C46D3
:1034C000B1F90E10002996B015461E460ADAA189F8
:1034D00011F0800113D14FF48062002031602A6026
:1034E00016B070BD6A4600F047F80028EFDB01997E
:1034F00001F47041A1F5005359425941EBE7002115
:103500004022EAE78B8973B59E0705460C4607D52E
:1035100004F14703236023610123636102B070BD9E
:1035200001AB6A46FFF7CAFF009E28463146FFF707
:103530001FF8B4F90C3038B99A05EFD423F003031F
:1035400043F00203A381E3E743F08003A381019BDF
:103550002060C4E90406002BE0D0B4F90E10284620
:1035600000F01CF80028D9D0A38923F0030343F00E
:103570000103A381D2E7000038B5074D00230446BC
:10358000084611462B600AF0D3FC431C02D12B687D
:1035900003B1236038BD00BF3004002038B5064DAC
:1035A0000023044608462B600AF0D2FC431C02D1DB
:1035B0002B6803B1236038BD3004002051F8043C6F
:1035C000181F002BBCBF0B58C01870470FB480B534
:1035D00088B000AF07F12C037B607B683B607B68A1
:1035E000BA6A002100200AF069FD03460133BB617D
:1035F000BB691846FEF78AFF03467B617B69002B97
:103600002AD0B9693B68BA6A78690AF057FD052380
:10361000FB740523FB600123FB720023FB77F86832
:1036200005F01AF8BB699BB2013B9BB21946786959
:1036300001F09CFA0346FB72FB7F0133FB77FA7FB4
:10364000FB7C9A4203D8FB7A012BE8D000E000BF54
:103650007869FEF763FF00E000BF2037BD46BDE894
:10366000804004B0704700002DE9B04F8EB006AF27
:10367000374B1B78002B05D1364B00221A70344B88
:1036800001221A70334B1B78002B5CD03248FFF7B5
:103690009DFF4FF00003FB604FF00003BB604FF055
:1036A00000037B604FF000033B6007F10C0107F162
:1036B00010023B4602933B1D019307F10803009360
:1036C0000B46264923480AF09FFCF861FB68184620
:1036D000FCF71AFF82468B46BB681846FCF714FFBE
:1036E00004460D467B681846FCF70EFF8046894667
:1036F0003B681846FCF708FF02460B4607F110012D
:10370000CDE90423CDE90289CDE9004552465B4667
:103710001348FFF75BFFF9691248FFF757FF3B7C3F
:10372000642B0DD17B7C662B0AD1BB7C752B07D11A
:103730000D48FFF74BFF0A2004F08EFF00F016F84B
:10374000044B00221A7000BF2037BD46BDE8B08F81
:1037500040040020240F002028ED00083CED000864
:103760004CED000864ED000874ED000880B584B0ED
:1037700000AF134808F02AFC114808F0A7FB72B606
:1037800000BF104B9B6D0F4A23F0806393650D4B78
:103790009B6D0C4A43F0806393650B4BFB60FB68A9
:1037A0001B687B607B6883F3088800BFFB68043379
:1037B0001B68BB60BB68984700BF1037BD4680BD23
:1037C00048050020001002400000FF1F80B500AF38
:1037D00004F0CEFE00F02AF800F084F800F0A8FB18
:1037E00000F0EEF800F006FA00F09EFA4FF47A705E
:1037F00004F032FF0B48FFF7E9FE01224FF480612D
:103800004FF0904006F064F901220221064806F0CC
:103810005FF94FF47A7004F01FFFFFF725FF00BF38
:10382000F7E700BF88ED00080004004880B596B0B7
:1038300000AF07F11403442200211846FDF73AFFB8
:103840003B4600221A605A609A60DA601A614FF4AF
:10385000007006F095FA0346002B01D000F03BF80B
:1038600012237B614FF480733B6240237B62012310
:103870003B6300237B63B023BB6302233B640223CF
:103880007B640123BB640A23FB6402233B650223A0
:103890007B6507F11403184604F002FF0346002B72
:1038A00001D000F018F80F233B6003237B60002356
:1038B000BB600023FB6000233B613B4604211846AC
:1038C00005F050FB0346002B01D000F004F800BFC8
:1038D0005837BD4680BD80B400AF72B600BF00BF90
:1038E000FDE7000080B588B000AF07F10C030022AF
:1038F0001A605A609A60DA601A612F4BDB6C2E4AAC
:1039000043F08003D3642C4BDB6C03F08003BB607B
:10391000BB68294BDB6C284A43F00103D364264B78
:10392000DB6C03F001037B607B68234BDB6C224A7A
:1039300043F00203D364204BDB6C03F002033B60D3
:103940003B68012202211D4806F0C2F800224FF414
:1039500080614FF0904006F0BBF84023FB600B23E2
:103960003B6100237B6107F10C0319464FF0904047
:1039700005F06AFE0223FB6001233B6100237B61AB
:103980000023BB6107F10C0319460C4805F05CFEEF
:103990004FF48063FB6001233B6100237B610023C4
:1039A000BB6107F10C0319464FF0904005F04CFE47
:1039B00000BF2037BD4680BD001002400004004813
:1039C00080B58AB000AF07F11C0300221A605A606C
:1039D0009A603B1D00221A605A609A60DA601A6190
:1039E0005A615C4B5C4A1A605A4B00225A60594B30
:1039F00000229A60574B0022DA60564B01221A616E
:103A0000544B04225A61534B00221A76514B002228
:103A10005A76504B0722DA614E4B002283F8202061
:103A20004C4B00229A624B4B0022DA62494B002237
:103A300083F83020474B00225A63464B002283F81C
:103A40003820444806F0E6FC0346002B01D0FFF77F
:103A500042FF0023FB6107F11C0319463D4807F0B4
:103A600045FA0346002B01D0FFF735FF3B4B7B6047
:103A70000623BB600323FB607F233B6104237B6140
:103A80000023BB613B1D1946324806F00DFE03467C
:103A9000002B01D0FFF71FFF314B7B600C23BB6075
:103AA0000023FB603B1D19462A4806F0FDFD034636
:103AB000002B01D0FFF70FFF2A4B7B601223BB6066
:103AC0003B1D1946234806F0EFFD0346002B01D0AD
:103AD000FFF701FF244B7B601823BB603B1D194699
:103AE0001C4806F0E1FD0346002B01D0FFF7F3FE72
:103AF0001E4B7B604FF48073BB603B1D194615481D
:103B000006F0D2FD0346002B01D0FFF7E4FE184B70
:103B10007B604FF48373BB603B1D19460D4806F074
:103B2000C3FD0346002B01D0FFF7D5FE114B7B6090
:103B30004FF48673BB603B1D1946064806F0B4FD82
:103B40000346002B01D0FFF7C6FE00BF2837BD4655
:103B500080BD00BF44040020000004502000F01489
:103B6000400020198000501D000180210002B02576
:103B70000004002A0008302E80B58AB000AF7860BB
:103B800007F1140300221A605A609A60DA601A6121
:103B90007B681B68154A934224D1154BDB6C144A91
:103BA00043F40053D364124BDB6C03F400533B61CA
:103BB0003B690F4BDB6C0E4A43F00103D3640C4BA3
:103BC000DB6C03F00103FB60FB687F237B610B234D
:103BD000BB610023FB6107F1140319464FF09040CD
:103BE00005F032FD00BF2837BD4680BD00000450FF
:103BF0000010024080B500AF1B4B1C4A1A601A4BE4
:103C00001B4A5A60184B00229A60174B0122DA6057
:103C1000154B00221A61144B00225A61124B0022EC
:103C20009A61114B0022DA610F4B00221A620E4892
:103C300005F066FF0346002B01D0FFF74CFE002184
:103C4000094805F0F8FF0346002B01D0FFF743FEBB
:103C50000021054806F03AF80346002B01D0FFF793
:103C60003AFE00BF80BD00BFA80400200054004001
:103C7000E49CD11080B596B000AF786007F14403A2
:103C800000221A605A609A60DA601A6107F1100324
:103C9000342200211846FDF70DFD7B681B681F4A82
:103CA000934236D140233B6100237B6207F110032E
:103CB000184605F043FB0346002B01D0FFF70BFE2F
:103CC000174BDB6C164A43F00203D364144BDB6CD6
:103CD00003F00203FB60FB684FF440737B64122324
:103CE000BB640023FB6403233B6504237B6507F16E
:103CF000440319460B4805F0A7FC094B9B6D084A85
:103D000043F400139365064B9B6D03F40013BB60F3
:103D1000BB6800BF5837BD4680BD00BF005400409F
:103D2000001002400004004880B59AB000AF07F1CF
:103D3000580300221A605A609A60DA6007F14C0357
:103D400000221A605A609A6007F1300300221A605C
:103D50005A609A60DA601A615A619A613B1D2C229E
:103D600000211846FDF7A6FC434B444A1A60424B1B
:103D700000225A60404B00229A603F4B4FF6FF7280
:103D8000DA603D4B00221A613B4B00225A613A4BEC
:103D900000229A61384807F04DF90346002B01D004
:103DA000FFF799FD4FF48053BB6507F1580319469F
:103DB000314807F00BFB0346002B01D0FFF78BFDCA
:103DC0002D4807F08EF90346002B01D0FFF783FD45
:103DD0000023FB6400233B6500237B6507F14C0354
:103DE0001946254807F044FF0346002B01D0FFF792
:103DF00072FD60233B6300237B630023BB630023CE
:103E0000FB6300233B6400237B640023BB6407F156
:103E1000300300221946184807F0C4F90346002B66
:103E200001D0FFF758FD00237B600023BB60002317
:103E3000FB6000233B6100237B614FF40053BB61B7
:103E40000023FB6100233B624FF000737B62002381
:103E5000BB620023FB623B1D1946074807F06EFF5B
:103E60000346002B01D0FFF736FD034800F028F889
:103E700000BF6837BD4680BDFC040020002C014017
:103E800080B485B000AF78607B681B680A4A9342B3
:103E90000BD10A4B1B6E094A43F400631366074BB0
:103EA0001B6E03F40063FB60FB6800BF1437BD4664
:103EB0005DF8047B704700BF002C014000100240F9
:103EC00080B588B000AF786007F10C0300221A605B
:103ED0005A609A60DA601A617B681B68124A9342E2
:103EE0001DD1124BDB6C114A43F00103D3640F4B1D
:103EF000DB6C03F00103BB60BB684FF4C073FB6075
:103F000002233B6100237B610023BB610123FB6132
:103F100007F10C0319464FF0904005F095FB00BFE8
:103F20002037BD4680BD00BF002C0140001002407C
:103F300080B500AF00221249124807F089FF0346FE
:103F4000002B01D0FFF7C7FC0F490E4807F0EEFF2A
:103F50000346002B01D0FFF7BEFC0C49094809F0CD
:103F600079FE0346002B01D0FFF7B5FC054808F0A9
:103F700021F80346002B01D0FFF7ADFC00BF80BD48
:103F8000C80100204805002054020020280200201B
:103F900080B596B000AF786007F1440300221A6044
:103FA0005A609A60DA601A6107F110033422002126
:103FB0001846FDF77FFB7B681B68244A934241D17A
:103FC0004FF400533B614FF04063BB6307F11003B4
:103FD000184605F0B3F90346002B01D0FFF77BFC30
:103FE0001B4BDB6C1A4A43F00103D364184BDB6CA8
:103FF00003F00103FB60FB684FF4C0537B640223B2
:10400000BB640023FB6403233B650A237B6507F144
:10401000440319464FF0904005F016FB0C4B9B6D86
:104020000B4A43F080639365094B9B6D03F08063FB
:10403000BB60BB6800220021432006F006F8432045
:1040400006F01FF800BF5837BD4680BD006800402D
:104050000010024080B582B000AF78607B681B68BA
:104060000A4A93420ED10A4B9B6D094A23F08063A2
:1040700093654FF4C0514FF0904005F057FC43203A
:1040800006F00DF800BF0837BD4680BD006800404F
:104090000010024080B582B000AF78607B68D3F832
:1040A000DC227B6803F526731946104607F0EAFF09
:1040B00000BF0837BD4680BD80B582B000AF7860D4
:1040C0000B46FB707B68D3F8DC02FA7879681346FC
:1040D0009B001344DB000B4403F5B2731A68FB78B2
:1040E000194608F024F800BF0837BD4680BD80B5EA
:1040F00082B000AF78600B46FB707B68D3F8DC02BF
:10410000FA78796813469B001344DB000B44243390
:104110001A68FB78194608F0BDF800BF0837BD469D
:1041200080BD80B582B000AF78607B68D3F8DC32A8
:10413000184608F0F7F900BF0837BD4680BD80B5C6
:1041400084B000AF78600123FB737B689B79022BFE
:1041500001D0FFF7C0FB7B68D3F8DC32FA7B114655
:10416000184608F09BF97B68D3F8DC32184608F053
:1041700043F900BF1037BD4680BD000080B582B056
:1041800000AF78607B68D3F8DC32184608F096F907
:104190007B689B7A002B05D0044B1B69034A43F0D4
:1041A0000603136100BF0837BD4680BD00ED00E087
:1041B00080B582B000AF78607B689B7A002B07D017
:1041C000084B1B69074A23F00603136100F018FB34
:1041D0007B68D3F8DC32184608F08CF900BF08374A
:1041E000BD4680BD00ED00E080B582B000AF7860D4
:1041F00005F01CFE2B4A7B68C2F8DC327B68294A3A
:10420000C3F8C822274B284A1A60264B08221A7185
:10421000244B02229A71234B02221A72214B002254
:104220005A72204B00229A721E4B0022DA721D4BEA
:1042300000221A731B4800F02DFD0346002B01D00D
:10424000FFF749FB7B68D3F8C8021823002200213E
:1042500002F036FA7B68D3F8C80258230022802186
:1042600002F02EFA7B68D3F8C802C0230022812115
:1042700002F026FA7B68D3F8C8024FF48873002254
:10428000012102F01DFA7B68D3F8C8024FF4807355
:104290000022822102F014FA002318460837BD4696
:1042A00080BD00BF240800200068004080B584B0B5
:1042B00000AF78600023BB730023FB737B68D3F8E7
:1042C000C832184600F0E3FD0346BB73BB7B032BEB
:1042D00016D801A252F823F0E9420008EF42000884
:1042E000F5420008FB4200080023FB730BE00323A8
:1042F000FB7308E00123FB7305E00323FB7302E07B
:104300000323FB7300BFFB7B18461037BD4680BDFF
:1043100080B584B000AF78600023BB730023FB73CB
:104320007B68D3F8C832184600F0D4FD0346BB734F
:10433000BB7B032B16D801A252F823F04D43000893
:1043400053430008594300085F4300080023FB73F0
:104350000BE00323FB7308E00123FB7305E0032359
:10436000FB7302E00323FB7300BFFB7B184610378F
:10437000BD4680BD80B584B000AF78600023BB73BC
:104380000023FB737B68D3F8C832184600F0C4FDE5
:104390000346BB73BB7B032B16D801A252F823F054
:1043A000B1430008B7430008BD430008C3430008F9
:1043B0000023FB730BE00323FB7308E00123FB7373
:1043C00005E00323FB7302E00323FB7300BFFB7BC9
:1043D00018461037BD4680BD80B584B000AF786008
:1043E000084611461A460346FB700B46BB7013463F
:1043F0003B800023BB730023FB737B68D3F8C802A8
:10440000BB783A88F97800F0F4FE0346BB73BB7BB7
:10441000032B17D801A252F823F000BF2D44000847
:1044200033440008394400083F4400080023FB736C
:104430000BE00323FB7308E00123FB7305E0032378
:10444000FB7302E00323FB7300BFFB7B18461037AE
:10445000BD4680BD80B584B000AF78600B46FB7070
:104460000023BB730023FB737B68D3F8C832FA7850
:104470001146184600F01CFF0346BB73BB7B032BA1
:1044800016D801A252F823F0994400089F4400086E
:10449000A5440008AB4400080023FB730BE0032392
:1044A000FB7308E00123FB7305E00323FB7302E0C9
:1044B0000323FB7300BFFB7B18461037BD4680BD4E
:1044C00080B584B000AF78600B46FB700023BB73EF
:1044D0000023FB737B68D3F8C832FA78114618467C
:1044E00000F0AEFF0346BB73BB7B032B16D801A2C3
:1044F00052F823F0054500080B4500081145000857
:10450000174500080023FB730BE00323FB7308E04F
:104510000123FB7305E00323FB7302E00323FB731A
:1045200000BFFB7B18461037BD4680BD80B584B008
:1045300000AF78600B46FB700023BB730023FB7356
:104540007B68D3F8C832FA781146184600F0D8FFD5
:104550000346BB73BB7B032B16D801A252F823F092
:1045600071450008774500087D450008834500082F
:104570000023FB730BE00323FB7308E00123FB73B1
:1045800005E00323FB7302E00323FB7300BFFB7B07
:1045900018461037BD4680BD80B485B000AF786046
:1045A0000B46FB707B68D3F8C832FB6097F9033089
:1045B000002B0BDAFB7803F07F02F96813469B00AF
:1045C0001344DB000B4412331B780BE0FB7803F041
:1045D0007F02F96813469B001344DB000B4403F58C
:1045E000A9731B7818461437BD465DF8047B7047E5
:1045F00080B584B000AF78600B46FB700023BB73BE
:104600000023FB737B68D3F8C832FA78114618464A
:1046100000F0CBFD0346BB73BB7B032B16D801A276
:1046200052F823F0354600083B4600084146000892
:10463000474600080023FB730BE00323FB7308E0ED
:104640000123FB7305E00323FB7302E00323FB73E9
:1046500000BFFB7B18461037BD4680BD80B586B0D5
:1046600000AFF8607A603B600B46FB720023BB75BD
:104670000023FB75FB68D3F8C802F97A3B687A68B7
:1046800000F0A7FE0346BB75BB7D032B16D801A225
:1046900052F823F0A5460008AB460008B1460008D2
:1046A000B74600080023FB750BE00323FB7508E009
:1046B0000123FB7505E00323FB7502E00323FB7573
:1046C00000BFFB7D18461837BD4680BD80B586B05B
:1046D00000AFF8607A603B600B46FB720023BB754D
:1046E0000023FB75FB68D3F8C802F97A3B687A6847
:1046F00000F026FE0346BB75BB7D032B16D801A236
:1047000052F823F0154700081B470008214700080E
:10471000274700080023FB750BE00323FB7508E027
:104720000123FB7505E00323FB7502E00323FB7502
:1047300000BFFB7D18461837BD4680BD80B582B0EE
:1047400000AF78600B46FB707B68D3F8C832FA780C
:104750001146184600F025FE034618460837BD46A8
:1047600080BD000080B582B000AF78600B46FB7062
:10477000FB78002B02D0012B13D023E07B689B7ABF
:10478000002B07D000F03CF8104B1B690F4A23F0B8
:10479000060313617B68D3F8DC32184607F0AAFEE3
:1047A00010E07B68D3F8DC32184607F087FE7B68A0
:1047B0009B7A002B05D0054B1B69044A43F0060386
:1047C000136100BF00BF0837BD4680BD00ED00E0AB
:1047D00080B483B000AF7860034B18460C37BD46F9
:1047E0005DF8047B704700BF040B002080B483B0E9
:1047F00000AF786000BF0C37BD465DF8047B7047A2
:1048000080B500AFFFF712F800BF80BD80B483B061
:1048100000AF03463960FB713B6812221A80034BDC
:1048200018460C37BD465DF8047B7047E801002050
:1048300080B483B000AF03463960FB713B6804224B
:104840001A80034B18460C37BD465DF8047B704751
:104850000802002080B582B000AF03463960FB71CA
:10486000FB79002B05D13A680749084808F006FD96
:1048700004E03A680449054808F000FD024B184678
:104880000837BD4680BD00BF240D0020C4ED0008E0
:1048900080B582B000AF03463960FB713A680449C5
:1048A000044808F0EBFC024B18460837BD4680BDB3
:1048B000240D0020DCED000880B582B000AF034677
:1048C0003960FB713B681A221A8000F055F8024BE0
:1048D00018460837BD4680BD0C02002080B582B066
:1048E00000AF03463960FB71FB79002B05D13A68B4
:1048F0000749084808F0C2FC04E03A680449054842
:1049000008F0BCFC024B18460837BD4680BD00BF0E
:10491000240D0020F0ED000880B582B000AF034602
:104920003960FB71FB79002B05D13A6807490848CB
:1049300008F0A4FC04E03A680449054808F09EFC2D
:10494000024B18460837BD4680BD00BF240D00202D
:10495000FCED000880B483B000AF03463960FB7102
:104960003B680C221A80034B18460C37BD465DF895
:10497000047B7047FC01002080B584B000AF0F4B72
:104980001B68FB600E4B1B68BB600E4B1B687B609B
:10499000FA687B681344FB60FB68002B09D008228F
:1049A0000949F86800F014F804220849B86800F0D2
:1049B0000FF800BF1037BD4680BD00BF9075FF1FC8
:1049C0009475FF1F9875FF1F0E0200201E02002025
:1049D00080B487B000AFF860B9601346FB71002364
:1049E000FB750023FB7527E0FB681B0F092B0BD819
:1049F000FB681B0FDAB2FB7D5B001946BB680B44FA
:104A00003032D2B21A700AE0FB681B0FDAB2FB7DBB
:104A10005B001946BB680B443732D2B21A70FB6890
:104A20001B01FB60FB7D5B000133BA68134400226D
:104A30001A70FB7D0133FB75FA7DFB799A42D3D363
:104A400000BF00BF1C37BD465DF8047B7047000007
:104A500080B500AF00220549054809F015F9054960
:104A6000034809F033F90023184680BD24130020C1
:104A700048050020240F002080B400AF0023184612
:104A8000BD465DF8047B704780B483B000AF034639
:104A90003960FB711346BB80FB79232B4AD801A2F6
:104AA00052F823F0354B0008354B0008354B000811
:104AB000354B0008354B0008354B0008354B0008D6
:104AC000354B0008354B0008354B0008354B0008C6
:104AD000354B0008354B0008354B0008354B0008B6
:104AE000354B0008354B0008354B0008354B0008A6
:104AF000354B0008354B0008354B0008354B000896
:104B0000354B0008354B0008354B0008354B000885
:104B1000354B0008354B0008354B0008354B000875
:104B2000354B0008354B0008354B0008354B000865
:104B3000354B000800BF002318460C37BD465DF812
:104B4000047B704780B582B000AF786039607968C7
:104B5000054809F0BBF8044809F016F90023184687
:104B60000837BD4680BD00BF4805002080B584B031
:104B700000AF78600B467B800023FB730D4BD3F8AE
:104B8000BC32BB60BB68D3F81432002B01D00123C8
:104B90000BE07B881A467968064809F075F80548E5
:104BA00009F0B2F80346FB73FB7B18461037BD468D
:104BB00080BD00BF4805002080B487B000AFF8601A
:104BC000B9601346FB710023FB7597F9173018463F
:104BD0001C37BD465DF8047B704780B400AF00BF52
:104BE000FDE780B400AF00BFFDE780B400AF00BFB9
:104BF000FDE780B400AF00BFFDE780B400AF00BFA9
:104C0000FDE780B400AF00BFBD465DF8047B704790
:104C100080B400AF00BFBD465DF8047B704780B430
:104C200000AF00BFBD465DF8047B704780B500AFA4
:104C300003F0F2FC00BF80BD80B500AF024800F079
:104C40008DF900BF80BD00BF2408002080B483B070
:104C500000AF0F4B1B6E0E4A43F0010313660C4B63
:104C60001B6E03F001037B607B68094B9B6D084A58
:104C700043F080539365064B9B6D03F080533B607C
:104C80003B6800BF0C37BD465DF8047B704700BF32
:104C90000010024080B584B000AF78607B68002BC4
:104CA00001D10123EFE07B6893F89132DBB2002B56
:104CB00006D17B68002283F890227868FFF768F9B4
:104CC0007B68032283F891227B6800225A717B68FB
:104CD0001B68184601F086FD7B6818687B68043302
:104CE0000ECB01F05AFD0346002B05D07B68022253
:104CF00083F891220123C6E07B681B6800211846D7
:104D000001F08BFD0346002B05D07B68022283F85F
:104D100091220123B7E00023FB733EE0FA7B796820
:104D200013469B001344DB000B44113301221A701D
:104D3000FA7B796813469B001344DB000B44103365
:104D4000FA7B1A70FA7B796813469B001344DB00E8
:104D50000B44133300221A70FA7B796813469B00C8
:104D60001344DB000B44203300221A60FA7B79687D
:104D700013469B001344DB000B44243300221A60CB
:104D8000FB7B79685A1C13469B001344DB000B44E1
:104D900000221A60FB7B0133FB737B681B79FA7B73
:104DA0009A42BBD30023FB7344E0FA7B7968134635
:104DB0009B001344DB000B4403F2511300221A70D2
:104DC000FA7B796813469B001344DB000B4403F520
:104DD000A873FA7B1A70FA7B796813469B00134418
:104DE000DB000B4403F2531300221A70FA7B79683C
:104DF00013469B001344DB000B4403F5B073002201
:104E00001A60FA7B796813469B001344DB000B445D
:104E100003F5B27300221A60FA7B796813469B008F
:104E20001344DB000B4403F5B47300221A60FB7BD0
:104E30000133FB737B681B79FA7B9A42B5D37B689D
:104E400018687B6804330ECB01F0F4FC0346002B9A
:104E500005D07B68022283F89122012313E07B684E
:104E600000225A737B68012283F891227B68DB7AE7
:104E7000012B02D1786801F066FC7B681B6818463C
:104E800003F0B6FA002318461037BD4680BD80B542
:104E900082B000AF78607B68002B01D1012315E060
:104EA0007B68032283F891227B681B68184603F015
:104EB0005DFA0346002B01D0012307E07868FFF775
:104EC000C9F87B68002283F891220023184608372E
:104ED000BD4680BD80B582B000AF78607B6893F836
:104EE0009032012B01D1022312E07B68012283F86A
:104EF00090227B681B68184601F05DFC7B681B688C
:104F0000184603F05EFA7B68002283F890220023A3
:104F100018460837BD4680BD80B582B000AF7860C6
:104F20007B6893F89032012B01D1022312E07B6859
:104F3000012283F890227B681B68184601F052FC1E
:104F40007B681B68184603F053FA7B68002283F8DD
:104F50009022002318460837BD4680BD80B584B036
:104F600000AF78607B681B68184603F056FAF8605B
:104F7000FB6803F40043002B03D0786800F014FBB7
:104F800010E1FB6803F48063002B13D07B681B687F
:104F9000B3F844309AB27B681B6822F4806292B204
:104FA000A3F844207868FFF7CAF80021786800F079
:104FB000FCF8F7E0FB6803F48043002B0CD07B681F
:104FC0001B68B3F844309AB27B681B6822F48042B5
:104FD00092B2A3F84420E5E0FB6803F40053002BF1
:104FE0000CD07B681B68B3F844309AB27B681B68AE
:104FF00022F4005292B2A3F84420D3E0FB6803F4F9
:105000008053002B34D07B681B68B3F840309AB2D1
:105010007B681B6822F0040292B2A3F840207B68F0
:105020001B68B3F840309AB27B681B6822F0080214
:1050300092B2A3F840207B6893F8C832012B07D1C5
:105040007B68002283F8C82200217868FFF78AFB7A
:105050007868FFF7ADF87B681B68B3F844309AB204
:105060007B681B6822F4805292B2A3F8442099E036
:10507000FB6803F40063002B27D07B681B68B3F840
:1050800040309AB27B681B6842F0080292B2A3F8E3
:1050900040207B681B68B3F844309AB27B681B6879
:1050A00022F4006292B2A3F844207B681B68B3F834
:1050B00040309AB27B681B6842F0040292B2A3F8B7
:1050C00040207868FFF75AF86CE0FB6803F0800333
:1050D000002B40D07B681B68B3F844309AB27B68E1
:1050E0001B6822F0800292B2A3F844207B6893F8F8
:1050F000C832002B2BD17B681B68B3F840309AB2C2
:105100007B681B6842F0040292B2A3F840207B68DF
:105110001B68B3F840309AB27B681B6842F0080203
:1051200092B2A3F840207B68012283F8C8227B68F2
:105130001B68B3F854309BB29B0803F03C027B68B9
:10514000C3F8CC2201217868FFF70CFB2AE07868CD
:10515000FFF714F826E0FB6803F40073002B0FD070
:105160007B681B68B3F844309AB27B681B6822F4F2
:10517000007292B2A3F844207868FEF7D2FF11E0E3
:10518000FB6803F48073002B0CD07B681B68B3F8BA
:1051900044309AB27B681B6822F4807292B2A3F802
:1051A000442000BF1037BD4680BD80B582B000AF3F
:1051B00078600B46FB707B6893F89032012B01D12D
:1051C000022312E07B68012283F890227B68FA7840
:1051D0005A737B681B68FA781146184603F0DDF8AD
:1051E0007B68002283F89022002318460837BD46CA
:1051F00080BD80B584B000AF7860084611461A467D
:105200000346FB700B463B801346BB700023FB72CA
:1052100097F90330002B0EDAFB7803F007021346F0
:105220009B001344DB0010337A681344FB60FB6877
:1052300001225A700EE0FB7803F0070213469B0030
:105240001344DB0003F5A8737A681344FB60FB6822
:1052500000225A70FB7803F00703DAB2FB681A7079
:105260003B88C3F30A02FB681A61FB68BA78DA70FC
:10527000BB78022B02D1FB6800221A717B6893F87D
:105280009032012B01D102230EE07B68012283F8CA
:1052900090227B681B68F968184601F0E9FA7B6880
:1052A000002283F89022FB7A18461037BD4680BD55
:1052B00080B584B000AF78600B46FB7097F903307F
:1052C000002B0EDAFB7803F0070213469B00134411
:1052D000DB0010337A681344FB60FB6801225A70CC
:1052E0000EE0FB7803F0070213469B001344DB003B
:1052F00003F5A8737A681344FB60FB6800225A70B8
:10530000FB7803F00703DAB2FB681A707B6893F846
:105310009032012B01D102230EE07B68012283F839
:1053200090227B681B68F968184601F089FF7B684A
:10533000002283F89022002318461037BD4680BD16
:1053400080B586B000AFF8607A603B600B46FB72B8
:10535000FB7A03F0070213469B001344DB0003F5BE
:10536000A873FA6813447B617B697A685A617B6928
:105370003A689A617B690022DA617B6900225A707F
:10538000FB7A03F00703DAB27B691A70FB681B68CB
:105390007969184602F041F9002318461837BD46CE
:1053A00080BD80B483B000AF78600B46FB70FB78A3
:1053B00003F00702796813469B001344DB000B449B
:1053C00003F5B6731B6818460C37BD465DF8047BC1
:1053D000704780B586B000AFF8607A603B600B46DE
:1053E000FB72FB7A03F0070213469B001344DB00B9
:1053F0001033FA6813447B617B697A685A617B6970
:105400003A689A617B69012283F824207B693A68B3
:105410001A627B690022DA617B6901225A70FB7A89
:1054200003F00703DAB27B691A70FB681B687969BD
:10543000184602F0F2F8002318461837BD4680BD22
:1054400080B584B000AF78600B46FB70FB7803F04A
:1054500007037A681279934201D901234CE097F946
:105460000330002B0EDAFB7803F0070213469B0093
:105470001344DB0010337A681344FB60FB6801229D
:105480005A700CE0FA7813469B001344DB0003F5D6
:10549000A8737A681344FB60FB6800225A70FB68AB
:1054A00001229A70FB7803F00703DAB2FB681A70E6
:1054B0007B6893F89032012B01D102231CE07B68BA
:1054C000012283F890227B681B68F968184602F075
:1054D00053FEFB7803F00703002B08D17B681A68A2
:1054E0007B6803F526731946104602F0A6FF7B6819
:1054F000002283F89022002318461037BD4680BD55
:1055000080B584B000AF78600B46FB70FB7803F089
:105510000F037A681279934201D9012340E097F989
:105520000330002B0EDAFB7803F0070213469B00D2
:105530001344DB0010337A681344FB60FB680122DC
:105540005A700EE0FB7803F0070213469B001344E9
:10555000DB0003F5A8737A681344FB60FB68002244
:105560005A70FB6800229A70FB7803F00703DAB2E6
:10557000FB681A707B6893F89032012B01D10223EB
:105580000EE07B68012283F890227B681B68F96833
:10559000184602F042FE7B68002283F89022002326
:1055A00018461037BD4680BD80B592B000AF786018
:1055B00033E37B681B68B3F844307B877B8FDBB2B7
:1055C00003F00F0387F8393097F83930002B40F09B
:1055D00008817B8F03F01003002B4CD17B681B6884
:1055E0001B889BB223F4E14323F070033B817B686B
:1055F0001A683B896FEA43436FEA53439BB21380B7
:105600007B6810333B647B681B68B3F850309BB2F7
:105610001A463B6C1B78DB0013447A68126813440B
:1056200003F202431B88C3F309023B6CDA613B6C53
:105630005A693B6CDB691A443B6C5A6100217868FB
:10564000FEF755FD7B685B7BDBB2002B00F0E5824B
:105650003B6C9B69002B40F0E0827B685B7BDBB29C
:1056600063F07F03DAB27B681B68A3F84C207B6889
:1056700000225A73D1E27B6803F5A8733B647B6810
:105680001B681B88FB86FB8E03F40063002B32D063
:105690007B681B68B3F850309BB21A463B6C1B7892
:1056A000DB0013447A681268134403F206431B8834
:1056B000C3F309023B6CDA617B6818687B6803F509
:1056C00026713B6CDA883B6CDB699BB202F004FF0D
:1056D0007B681B681B889AB240F68F7313407B81EE
:1056E0007B681B687A8942F0800292B21A807868DF
:1056F000FEF7D0FC91E2B7F93630002B80F28D82B4
:105700007B681B681B889AB240F68F731340FB813D
:105710007B681B68FA8942F0800292B21A807B682B
:105720001B68B3F850309BB21A463B6C1B78DB0009
:1057300013447A681268134403F206431B88C3F3C8
:1057400009023B6CDA613B6CDB69002B19D03B6CC6
:105750005B69002B15D07B6818683B6C59693B6C02
:10576000DA883B6CDB699BB202F0B6FE3B6C5A698F
:105770003B6CDB691A443B6C5A6100217868FEF788
:105780009BFC7B681B681B88FB86FB8E03F4006315
:10579000002B40F04282FB8E03F44053B3F5405F90
:1057A00000F03B827B681B681B889BB223F480431C
:1057B00023F07003BB81BB8983F48053BB81BB8919
:1057C00083F40053BB817B681A68BB8943F07F4335
:1057D00043F47F0343F4004343F080039BB2138000
:1057E0001BE27B681B681A4697F839309B0013440C
:1057F0001B88FB86B7F93630002B80F2F1807B687E
:105800001B681A4697F839309B0013441B889AB2DC
:1058100040F68F731340BB867B681B681A4697F867
:1058200039309B001344BA8E42F0800292B21A8043
:1058300097F8392013469B001344DB0003F5A87347
:105840007A6813443B643B6C1B7B002B23D17B6841
:105850001B68B3F850309BB21A463B6C1B78DB00D8
:1058600013447A681268134403F206431B88C3F397
:105870000903A7F84630B7F84630002B00F08B80BC
:105880007B6818683B6C59693B6CDA88B7F846301E
:1058900002F022FE7FE03B6CDB78022B09D1FB8E0D
:1058A0001A46396C786800F0C6F90346A7F8463006
:1058B00071E07B681B681A463B6C1B789B001344A5
:1058C0001B889BB223F4E04323F07003BB877B6803
:1058D0001B681A463B6C1B789B001A44BB8F43F035
:1058E0007F4343F47F0343F4004343F0C0039BB280
:1058F00013807B681B681A463B6C1B789B00134423
:105900001B889BB203F48043002B22D07B681B686A
:10591000B3F850309BB21A463B6C1B78DB00134443
:105920007A681268134403F202431B88C3F3090325
:10593000A7F84630B7F84630002B2CD07B681868A3
:105940003B6C59693B6C1A89B7F8463002F0C4FDCC
:1059500021E07B681B68B3F850309BB21A463B6C61
:105960001B78DB0013447A681268134403F2064381
:105970001B88C3F30903A7F84630B7F84630002B5D
:1059800009D07B6818683B6C59693B6C5A89B7F839
:10599000463002F0A1FD3B6CDA69B7F846301A4494
:1059A0003B6CDA613B6C5A69B7F846301A443B6C81
:1059B0005A613B6C9B69002B05D0B7F846203B6CC5
:1059C0001B699A4206D23B6C1B7819467868FEF731
:1059D00073FB05E07B681B68396C184601F01DFEFF
:1059E000FB8E03F08003002B00F0178197F839201D
:1059F00013469B001344DB0010337A6813443B6466
:105A00007B681B681A4697F839309B0013441B8843
:105A10009BB223F4E14323F07003FB877B681B6890
:105A20001A4697F839309B001A44FB8F6FEA4343BC
:105A30006FEA53439BB213803B6CDB78012B40F041
:105A4000A1803B6C00229A613B6C1B7B002B00F019
:105A50009280FB8E03F04003002B46D03B6C5B78BA
:105A6000002B26D17B681B687B617B681B68B3F8C1
:105A700050309BB21A467B6913447B613B6C1B78A8
:105A8000DA007B69134403F202433B613B691B88E4
:105A90009BB2C3F309039AB23B691A803B691B8826
:105AA0009BB26FEA43436FEA53439AB23B691A8051
:105AB00061E03B6C5B78012B5DD17B681B68FB610F
:105AC0007B681B68B3F850309BB21A46FB691344DD
:105AD000FB613B6C1B78DA00FB69134403F2024361
