:020000040800F2
:100000000080002071950008F93D0008FD3D0008C2
:10001000013E0008053E0008093E000800000000FF
:100020000000000000000000000000000D3E00087D
:10003000113E000800000000153E0008193E0008AF
:10004000C1950008C1950008C1950008C195000838
:10005000C1950008C1950008C1950008C195000828
:10006000C1950008C1950008C1950008C195000818
:10007000C1950008C1950008C1950008C195000808
:10008000C1950008C1950008C19500080000000056
:10009000000000000000000000000000C195000802
:1000A000C1950008C1950008C1950008C1950008D8
:1000B000C19500080000000000000000C195000884
:1000C000C1950008C1950008C1950008C1950008B8
:1000D0001D3E0008C1950008C1950008C1950008A3
:1000E000C1950008C1950008000000000000000054
:1000F0000000000000000000000000000000000000
:1001000000000000000000000000000000000000EF
:100110000000000000000000C19500080000000081
:10012000C1950008C1950008C1950008C195000857
:10013000C195000800000000000000000000000061
:10014000C1950008C1950008C1950008293E000826
:10015000C1950008C1950008C1950008C195000827
:10016000C1950008C19500080000000000000000D3
:1001700000000000C1950008000000000000000021
:0C018000C1950008C1950008C195000859
:1001900010B5054C237833B9044B13B10448AFF3C1
:1001A00000800123237010BDC40200200000000065
:1001B0002897000808B5034B1BB103490348AFF368
:1001C000008008BD00000000C80200202897000839
:1001D00001F0FF01102A2BDB10F0070F08D010F8F8
:1001E000013B013A8B422DD010F0070F42B3F6D1FC
:1001F000F0B441EA012141EA014122F007047FF015
:1002000000070023F0E80256083C85EA010586EA6B
:10021000010685FA47F5A3FA87F586FA47F6A5FAA7
:1002200087F68EB9EED1F0BC01F0FF0102F00702B3
:1002300032B110F8013B013A83EA010313B1F8D15E
:100240000020704701387047002D06BF354603383F
:10025000073815F0010F07D1013015F4807F02BF78
:10026000013015F4C03F0130F0BC0138704700BFC9
:10027000034613F8012B002AFBD1181A01387047E6
:1002800081F0004102E000BF83F0004330B54FEA47
:1002900041044FEA430594EA050F08BF90EA020FB4
:1002A0001FBF54EA000C55EA020C7FEA645C7FEA47
:1002B000655C00F0E2804FEA5454D4EB5555B8BF6A
:1002C0006D420CDD2C4480EA020281EA030382EADB
:1002D000000083EA010180EA020281EA0303362D6D
:1002E00088BF30BD11F0004F4FEA01314FF4801C40
:1002F0004CEA113102D0404261EB410113F0004F52
:100300004FEA03334CEA133302D0524263EB430308
:1003100094EA050F00F0A780A4F10104D5F1200EA6
:100320000DDB02FA0EFC22FA05F2801841F1000101
:1003300003FA0EF2801843FA05F359410EE0A5F1D5
:1003400020050EF1200E012A03FA0EFC28BF4CF006
:10035000020C43FA05F3C01851EBE37101F00045BC
:1003600007D54FF0000EDCF1000C7EEB00006EEBC9
:100370000101B1F5801F1BD3B1F5001F0CD3490853
:100380005FEA30004FEA3C0C04F101044FEA4452AA
:1003900012F5800F80F09A80BCF1004F08BF5FEA31
:1003A000500C50F1000041EB045141EA050130BD11
:1003B0005FEA4C0C404141EB0101013C28BFB1F523
:1003C000801FE9D291F0000F04BF01460020B1FA6E
:1003D00081F308BF2033A3F10B03B3F120020CDA41
:1003E0000C3208DD02F1140CC2F10C0201FA0CF01F
:1003F00021FA02F10CE002F11402D8BFC2F1200C84
:1004000001FA02F120FA0CFCDCBF41EA0C01904039
:10041000E41AA2BF01EB0451294330BD6FEA040482
:100420001F3C1CDA0C340EDC04F11404C4F120026D
:1004300020FA04F001FA02F340EA030021FA04F37F
:1004400045EA030130BDC4F10C04C4F1200220FAD6
:1004500002F001FA04F340EA0300294630BD21FA14
:1004600004F0294630BD94F0000F83F4801306BFDA
:1004700081F480110134013D4EE77FEA645C18BFCE
:100480007FEA655C29D094EA050F08BF90EA020F65
:1004900005D054EA000C04BF1946104630BD91EA5D
:1004A000030F1EBF0021002030BD5FEA545C05D160
:1004B0004000494128BF41F0004130BD14F580049F
:1004C0003CBF01F5801130BD01F0004545F0FE4113
:1004D00041F470014FF0000030BD7FEA645C1ABF48
:1004E000194610467FEA655C1CBF0B46024650EA7F
:1004F000013406BF52EA033591EA030F41F40021AB
:1005000030BD00BF90F0000F04BF0021704730B530
:100510004FF4806404F132044FF000054FF0000105
:1005200050E700BF90F0000F04BF0021704730B5C6
:100530004FF4806404F1320410F0004548BF40429B
:100540004FF000013EE700BF42004FEAE2014FEAF0
:1005500031014FEA02701FBF12F07F4393F07F4FCB
:1005600081F06051704732F07F4208BF704793F0CE
:100570007F4F04BF41F40021704730B54FF46074E1
:1005800001F0004521F000411CE700BF50EA0102E4
:1005900008BF704730B54FF000050AE050EA01028D
:1005A00008BF704730B511F0004502D5404261EBFD
:1005B00041014FF4806404F132045FEA915C3FF43E
:1005C000D8AE4FF003025FEADC0C18BF03325FEADB
:1005D000DC0C18BF033202EBDC02C2F1200300FA8C
:1005E00003FC20FA02F001FA03FE40EA0E0021FAB1
:1005F00002F11444BDE600BF70B54FF0FF0C4CF49F
:10060000E06C1CEA11541DBF1CEA135594EA0C0F50
:1006100095EA0C0F00F0DEF82C4481EA030621EA8B
:100620004C5123EA4C5350EA013518BF52EA0335C6
:1006300041F4801143F4801338D0A0FB02CE4FF078
:100640000005E1FB02E506F00042E0FB03E54FF0A8
:100650000006E1FB03569CF0000F18BF4EF0010EA0
:10066000A4F1FF04B6F5007F64F5407404D25FEA9C
:100670004E0E6D4146EB060642EAC62141EA55514F
:100680004FEAC52040EA5E504FEACE2EB4F1FD0C91
:1006900088BFBCF5E06F1ED8BEF1004F08BF5FEA0F
:1006A000500E50F1000041EB045170BD06F00046C1
:1006B00046EA010140EA020081EA0301B4EB5C046E
:1006C000C2BFD4EB0C0541EA045170BD41F4801166
:1006D0004FF0000E013C00F3AB8014F1360FDEBF8B
:1006E000002001F0004170BDC4F10004203C35DA67
:1006F0000C341BDC04F11404C4F1200500FA05F3EA
:1007000020FA04F001FA05F240EA020001F000428A
:1007100021F0004110EBD37021FA04F642EB060100
:100720005EEA430E08BF20EAD37070BDC4F10C042A
:10073000C4F1200500FA04F320FA05F001FA04F2EE
:1007400040EA020001F0004110EBD37041F10001DA
:100750005EEA430E08BF20EAD37070BDC4F12005E5
:1007600000FA05F24EEA020E20FA04F301FA05F24D
:1007700043EA020321FA04F001F0004121FA04F2F5
:1007800020EA020000EBD3705EEA430E08BF20EAC5
:10079000D37070BD94F0000F0FD101F000464000FF
:1007A00041EB010111F4801F08BF013CF7D041EA81
:1007B000060195F0000F18BF704703F00046520085
:1007C00043EB030313F4801F08BF013DF7D043EA56
:1007D0000603704794EA0C0F0CEA135518BF95EA0C
:1007E0000C0F0CD050EA410618BF52EA4306D1D193
:1007F00081EA030101F000414FF0000070BD50EAB2
:10080000410606BF1046194652EA430619D094EA3B
:100810000C0F02D150EA013613D195EA0C0F05D125
:1008200052EA03361CBF104619460AD181EA030179
:1008300001F0004141F0FE4141F470014FF0000031
:1008400070BD41F0FE4141F4780170BD70B54FF0CC
:10085000FF0C4CF4E06C1CEA11541DBF1CEA13554C
:1008600094EA0C0F95EA0C0F00F0A7F8A4EB05042E
:1008700081EA030E52EA03354FEA013100F0888025
:100880004FEA03334FF0805545EA131343EA1263EE
:100890004FEA022245EA111545EA10654FEA0026A3
:1008A0000EF000419D4208BF964244F1FD0404F55C
:1008B000407402D25B084FEA3202B61A65EB0305B8
:1008C0005B084FEA32024FF480104FF4002CB6EB75
:1008D000020E75EB030E22BFB61A754640EA0C00F5
:1008E0005B084FEA3202B6EB020E75EB030E22BF35
:1008F000B61A754640EA5C005B084FEA3202B6EB76
:10090000020E75EB030E22BFB61A754640EA9C0034
:100910005B084FEA3202B6EB020E75EB030E22BF04
:10092000B61A754640EADC0055EA060E18D04FEAC2
:10093000051545EA16754FEA06164FEAC30343EA62
:1009400052734FEAC2025FEA1C1CC0D111F4801F2F
:100950000BD141EA00014FF000004FF0004CB6E728
:1009600011F4801F04BF01430020B4F1FD0C88BFC7
:10097000BCF5E06F3FF6AFAEB5EB030C04BFB6EBD2
:10098000020C5FEA500C50F1000041EB045170BDC5
:100990000EF0004E4EEA113114EB5C04C2BFD4EBF2
:1009A0000C0541EA045170BD41F480114FF0000E76
:1009B000013C90E645EA060E8DE60CEA135594EAF2
:1009C0000C0F08BF95EA0C0F3FF43BAF94EA0C0FF5
:1009D0000AD150EA01347FF434AF95EA0C0F7FF46A
:1009E00025AF104619462CE795EA0C0F06D152EABE
:1009F00003353FF4FDAE1046194622E750EA4106A2
:100A000018BF52EA43067FF4C5AE50EA41047FF4B2
:100A10000DAF52EA43057FF4EBAE12E74FF0FF3C17
:100A200006E000BF4FF0010C02E000BF4FF0010CE8
:100A30004DF804CD4FEA410C7FEA6C5C4FEA430C61
:100A400018BF7FEA6C5C1BD001B050EA410C0CBFB0
:100A500052EA430C91EA030F02BF90EA020F002012
:100A6000704710F1000F91EA030F58BF994208BF79
:100A700090422CBFD8176FEAE37040F00100704736
:100A80004FEA410C7FEA6C5C02D150EA013C07D18D
:100A90004FEA430C7FEA6C5CD6D152EA033CD3D0D8
:100AA0005DF8040B704700BF8446104662468C46D2
:100AB0001946634600E000BF01B5FFF7B7FF002805
:100AC00048BF10F1000F01BD4DF808EDFFF7F4FF2E
:100AD0000CBF012000205DF808FB00BF4DF808EDB9
:100AE000FFF7EAFF34BF012000205DF808FB00BFDC
:100AF0004DF808EDFFF7E0FF94BF012000205DF8FE
:100B000008FB00BF4DF808EDFFF7CEFF94BF0120B2
:100B100000205DF808FB00BF4DF808EDFFF7C4FFAB
:100B200034BF012000205DF808FB00BF4FEA410CF4
:100B30007FEA6C5C02D150EA013C0AD14FEA430CD7
:100B40007FEA6C5C02D152EA033C02D14FF0000014
:100B500070474FF0010070474FEA410212F5001252
:100B600015D211D56FF47873B3EB625212D94FEAF4
:100B7000C12343F0004343EA505311F0004F23FADE
:100B800002F018BF404270474FF00000704750EA33
:100B9000013005D111F0004008BF6FF000407047F0
:100BA0004FF00000704700BF4FEA4102B2F1E0434E
:100BB00024BFB3F5001CDCF1FE5C0DD901F0004C44
:100BC0004FEAC0024CEA5070B2F1004F40EB830094
:100BD00008BF20F00100704711F0804F21D113F1C0
:100BE0003872BCBF01F00040704741F480114FEAF9
:100BF0005252C2F11802C2F1200C10FA0CF320FA82
:100C000002F018BF40F001004FEAC1234FEAD3239E
:100C100003FA0CFC40EA0C0023FA02F34FEA430308
:100C2000CCE77FEA625307D150EA01331EBF4FF091
:100C3000FE4040F44000704701F0004040F0FE40AC
:100C400040F40000704700BF2DE9FF4757EC106BE0
:100C5000002F0C4619463B46BBBF07F100431F4619
:100C600000232D230B700D9BDDF830A0914623F05F
:100C70002008BCBF32461646B8F1460F05D0B8F181
:100C8000450F00D10134022100E0032103AB0193A1
:100C900002AB009347EC106B5346224600F034FE43
:100CA000B8F1470F054619D119F0010F0ED000EB2E
:100CB00004090022002330463946FFF705FF08B13A
:100CC000CDF80C903022039B4B451ED3039B0E9A0C
:100CD0005B1B2846136004B0BDE8F087B8F1460FEF
:100CE00000EB0409E5D10378302B0AD10022002360
:100CF00030463946FFF7E8FE18B9C4F10104CAF8D6
:100D00000040DAF800309944D3E7591C03911A7077
:100D1000D9E7F7B50029BABF49422D232B2309296A
:100D20000270437029DD0DF107031D460A271A469C
:100D3000B1FBF7F607FB1614303402F8014C0C46F1
:100D4000632C03F1FF333146F1DC3031941E03F89C
:100D5000011C411C2346AB420AD30DF109039B1A27
:100D6000AC4288BF002302330344181A03B0F0BD1D
:100D700013F8016B01F8016FEDE730233031837018
:100D8000C170031DF1E700002DE9F04F8DB00C4656
:100D9000DDF8588016461F46054600F0BBFC036888
:100DA00004931846FFF764FA00230A93D8F800303A
:100DB0000590073323F0070303F1080294F818A005
:100DC000D4F800B0C8F80020D3E9008929F0004326
:100DD0000793CDF81880C4E91289DDE906019C4B20
:100DE0004FF0FF32FFF7A2FE70BBDDE90601984B22
:100DF0004FF0FF32FFF77CFE30BB0022002340465D
:100E00004946FFF76BFE10B12D2384F84330914A19
:100E1000914BBAF1470F94BF904698460323236144
:100E20002BF0040323604FF00009009733460BAA10
:100E30002146284600F0D2F9013040F08D804FF075
:100E4000FF300DB0BDE8F08F42464B464046494664
:100E5000FFF76CFE40B14B46002BBCBF2D2384F83E
:100E600043307E4A7E4BD4E763680AF0DF02069285
:100E70005A1C3BD1062363604BF48062002322603E
:100E800003930AABCDE901A309AB0093616849EC78
:100E9000108B0DF123032846FFF7D6FE069B099918
:100EA000472B804629D1C81C02DB6368994241DD8B
:100EB000AAF1020A5FFA8AFA0139524604F1500097
:100EC0000991FFF726FF0A9A1318012A8146236128
:100ED00002DC2268D20701D5013323619DF823305B
:100EE000002BA2D02D2384F843309EE7069A472A90
:100EF000C2D1002BC0D10123BDE7BAF1650FDBD908
:100F0000BAF1660F18D1002963680BDD216113B9AE
:100F10002268D00702D501330B442361A1654FF04D
:100F20000009DBE713B92268D20701D50233F4E7E1
:100F30000123F2E74FF0670A0A9B994205DB236819
:100F40002161D807EAD54B1CE7E70029D4BFC1F1DE
:100F5000020201221344E0E723685A0507D42369FB
:100F6000424631462846B84701302BD167E7BAF1EF
:100F7000650F40F2DD80D4E9120100220023FFF763
:100F8000A3FD002833D0374A012331462846B8470D
:100F900001303FF454AFDDE90938434502DB2368F3
:100FA000D8070FD5DDE9042331462846B84701307C
:100FB0003FF445AF4FF0000908F1FF3804F11A0A79
:100FC000C84509DC23689B0700F10381E0680B9B9F
:100FD0009842B8BF184634E70123524631462846A6
:100FE000B84701303FF42BAF09F10109E8E7099B4D
:100FF000002B39DC1B4A012331462846B847013013
:101000003FF41DAFDDE9093959EA030302D1236832
:10101000D907D7D5DDE9042331462846B847013042
:101020003FF40DAF4FF0000A04F11A0B099B5B422D
:10103000534501DC4B4693E701235A463146284687
:10104000B84701303FF4FBAE0AF1010AEEE700BFFA
:10105000FFFFEF7F4097000844970008489700087B
:101060004C97000850970008A36DDDF828A0534561
:10107000A8BF5346002B994636DC4FF0000B29EAF7
:10108000E97904F11A02A36D0693A3EB09035B450A
:1010900031DC099B9A453ADC2368DA0737D4099B8F
:1010A000AAEB0309069BAAEB03039945A8BF99463F
:1010B000B9F1000F33DC4FF0000829EAE97904F1B7
:1010C0001A0B099BAAEB0303A3EB090343457FF724
:1010D00079AF01235A4631462846B84701303FF4DC
:1010E000AEAE08F10108ECE7424631462846B84763
:1010F0000130C2D1A3E60123314628460692B84703
:1011000001303FF49CAE069A0BF1010BBBE7DDE921
:10111000042331462846B8470130C0D18FE6069AED
:101120004B46424431462846B8470130C3D186E693
:10113000DDF828A0BAF1010F01DCDB0736D5012369
:10114000424631462846B84701303FF478AEDDE9E3
:10115000042331462846B84701303FF470AED4E945
:101160001201002200230AF1FF3AFFF7ADFCC0B9DB
:10117000534608F1010231462846B84701300CD1E8
:101180005DE601235A4631462846B84701303FF410
:1011900056AE08F10108D045F3DB4B4604F150028E
:1011A000DFE64FF0000804F11A0BF4E70123424692
:1011B000E1E701234A4631462846B84701303FF46B
:1011C0003EAE08F10108E3680B995B1A4345F0DC79
:1011D000FCE64FF0000804F11909F4E72DE9F047A7
:1011E000164698468A680B69DDF820909342B8BF8E
:1011F0001346336091F8432007460C460AB1013389
:1012000033602368990642BF336802333360256830
:1012100015F0060506D104F1190AE36832689B1A35
:10122000AB4226DC94F843302268003B18BF012310
:1012300092062BD404F1430241463846C847013098
:101240001ED02368226903F00603042B02BFE56861
:101250003368ED1AA3680CBF25EAE57500259342B3
:10126000C4BF9B1AED1800261A34B5421AD10020CB
:1012700008E00123524641463846C847013003D1B1
:101280004FF0FF30BDE8F0870135C6E7E1185A1C82
:10129000302081F84300224494F8451082F843102E
:1012A0000233C7E70123224641463846C84701308A
:1012B000E6D00136D9E700002DE9FF470F7E0C9EEE
:1012C000782F914680460C469A4601F1430207D892
:1012D000622F0AD8002F00F0D280582F00F0B9807A
:1012E00004F1420684F842703AE0A7F16303152B3B
:1012F000F6D801A151F823F0511300086513000836
:10130000E1120008E1120008E1120008E1120008F1
:1013100065130008E1120008E1120008E11200085C
:10132000E1120008651400088F1300081F1400085C
:10133000E1120008E112000887140008E112000819
:101340008F130008E1120008E112000827140008BA
:1013500033681A1D1B68326004F1420684F842307B
:1013600001239DE033682068191D3160060601D510
:101370001D6803E04506FBD5B3F90050002D03DAE4
:101380002D236D4284F8433059480A2311E0216827
:101390003368080653F8045B02D4490648BFADB26F
:1013A0006F2F5348336014BF0A230823002184F8A9
:1013B00043106668A660002EA2BF216821F00401D8
:1013C00021600DB9002E4BD01646B5FBF3F103FB9F
:1013D0001157C75D06F8017D2F46BB420D46F4D973
:1013E000082B0BD12368DF0708D523696168994270
:1013F000DEBF302306F8013C06F1FF36921B226166
:10140000CDF800A04B4603AA21464046FFF7E6FE72
:1014100001304AD14FF0FF3004B0BDE8F0872368B7
:1014200043F0200323603348782784F8457023680D
:1014300031681F0651F8045B02D45F0648BFADB2A5
:101440003160D90744BF43F0200323601DB110234E
:10145000ACE72748E9E7236823F020032360F6E799
:101460001646BDE7336825686169181D30602E0691
:101470001B6801D5196002E06806FBD519800023BE
:1014800023611646BCE733681A1D32601E68626825
:1014900000213046FEF79CFE08B1801B6060636847
:1014A0002361002384F84330AAE723693246494682
:1014B0004046D0470130ADD023689B0713D4E06885
:1014C000039B9842B8BF1846A6E701233246494617
:1014D0004046D04701309DD00135E36803995B1A3F
:1014E000AB42F2DCEBE7002504F11906F5E700BF9B
:1014F0005297000863970008002310B50446C0E91E
:101500000033C0E90433836081814366C281836113
:10151000194608225C3000F0F4F80D4B63620D4B65
:10152000A3620D4BE3620D4B23630D4B24629C427F
:1015300006D003F16802944202D0D0339C4205D118
:1015400004F15800BDE8104000F052B910BD00BFD2
:101550007D1600089F160008D7160008FB16000825
:10156000E0020020024A0349034800F069B800BFC6
:1015700000000020AD2E00081000002041680C4B38
:10158000994210B5044601D001F090FCA168094BC6
:10159000994202D0204601F089FCE168064B99424D
:1015A00004D02046BDE8104001F080BC10BD00BF53
:1015B000E002002048030020B003002010B50B4BD0
:1015C0000B4C0C4A1A60204600220421FFF794FFBE
:1015D00004F1680001220921FFF78EFF04F1D00019
:1015E0000222BDE810401221FFF786BF1804002038
:1015F000E002002065150008014800F0FAB800BFBD
:1016000021040020014800F0F5B800BF21040020AB
:1016100010B50446FFF7F0FF236A1BB1BDE8104088
:10162000FFF7F0BF044B2362044B1B68002BF5D17E
:10163000FFF7C4FFF2E700BF7D1500081804002083
:101640002DE9F8430746884614460026D4E901955B
:10165000B9F1010905D52468002CF7D13046BDE861
:10166000F883AB89012B07D9B5F90E30013303D0CC
:1016700029463846C04706436835E9E710B50C46A9
:10168000B1F90E1000F06CF80028ABBF636DA389B0
:101690001B1823F48053ACBF6365A38110BD2DE9F3
:1016A000F0411F468B89DB0505460C46164605D5DD
:1016B000B1F90E100223002200F040F8A389B4F91A
:1016C0000E1023F48053A38132463B462846BDE8E2
:1016D000F04100F057B810B50C46B1F90E1000F00B
:1016E0002DF8431CA38915BF606523F4805343F490
:1016F0008053A38118BFA38110BDB1F90E1000F073
:101700000DB802440346934200D1704703F8011B11
:10171000F9E70000004870474C01002038B5064D3D
:101720000023044608462B6007F014FF431C02D137
:101730002B6803B1236038BD1C04002038B5074D69
:1017400004460846114600222A601A4607F00EFF9A
:10175000431C02D12B6803B1236038BD1C04002058
:1017600038B5074D04460846114600222A601A463D
:1017700007F0E2FE431C02D12B6803B1236038BDA1
:101780001C04002038B5074D0446084611460022C7
:101790002A601A4601F034FF431C02D12B6803B1C2
:1017A000236038BD1C04002070B50D4D0D4C641B2A
:1017B000A4100026A64209D10B4D0C4C07F0B4FF33
:1017C000641BA4100026A64205D170BD55F8043B49
:1017D00098470136EEE755F8043B98470136F2E7A3
:1017E000349D0008349D0008349D0008389D000891
:1017F0007047704770472DE9F74F03690C69A342A2
:1018000007467EDB013C01F11408A30000F114053A
:10181000009305EB8403019358F8243055F82420F5
:1018200001339A4208EB8409B2FBF3F62ED34FF052
:10183000000AC446AE46D3465CF8043B98B206FBA9
:1018400000A0020C1B0C06FB0323DEF8002080B274
:1018500092B2121A5A44DEF800004FEA134A9BB2C1
:10186000C3EB224303EB104392B242EA0342E14549
:101870004EF8042B4FEA234BDED2009BEB582BB9DA
:10188000019B043B9D421A462FD33C61384601F030
:1018900081F9002825DB2946002058F8042BD1F8CF
:1018A00000C01FFA82FE1FFA8CF3A3EB0E03034461
:1018B000120CC2EB234202EB1C429BB243EA0243EE
:1018C000C14541F8043B4FEA2240E6D255F82420B6
:1018D00005EB840322B9043B9D421A460BD33C61BD
:1018E0000136304603B0BDE8F08F1268043B002A91
:1018F000CBD1013CC6E71268043B002AEFD1013C82
:10190000EAE70020EEE700002DE9F04FC76999B043
:101910008DED020B55EC104B229E099183460E92E1
:1019200013937FB9102000F0FDFD0246CBF81C0098
:1019300020B9A74BEF21A74801F0FEFAC0E90177D3
:101940000760C760DBF81C30196859B15A684A60F3
:10195000012393408B60584600F0E2FEDBF81C3018
:1019600000221A602B1EB9BF23F00043039300230B
:101970003360039F984BBCBF01223260BB4312D13E
:10198000139A42F20F731360C7F31303234300F05B
:101990004D85239BDFF854A2002B00F04F850AF100
:1019A000030300F049BD9DED027B002251EC170BB3
:1019B00000238DED0C7BFFF787F8804658B1139A12
:1019C00001231360239B13B1239A844B1360DFF828
:1019D00020A200F033BD9DED0C0B16AA17A95846A6
:1019E00001F088F9C7F30A568146002E77D00D9B87
:1019F000CDF85080C3F31303DDE90C0143F07F53AE
:101A000043F44013A6F2FF3619460022744BFEF74A
:101A10003BFC69A3D3E90023FEF7EEFD68A3D3E9FD
:101A20000023FEF733FC044630460D46FEF77AFDF0
:101A300065A3D3E90023FEF7DFFD02460B462046EF
:101A40002946FEF723FC04460D46FFF785F80022E1
:101A50000746002320462946FFF740F840B13846A4
:101A6000FEF760FD22462B46FFF72EF800B9013F36
:101A7000162F51D85B4B03EBC703D3E90023DDE9F5
:101A80000C01FFF72BF8002848D0013F00231293E8
:101A9000169B9B1B5A1E44BFC3F1010800230892EA
:101AA00054BF4FF000080893002F39DB089B0F97B5
:101AB0003B44089300230A93099B092B64D8052B08
:101AC000C4BF043B0993099BA3F10203CCBF0024CC
:101AD0000124032B63D8DFE803F02A373555DDE90D
:101AE00016631E4406F23243202BC1BFC3F14003EC
:101AF0009F4006F2124324FA03F3D6BFC3F120033A
:101B000047EA030004FA03F0FEF7FCFC0122A1F10E
:101B1000F873013E149277E70123B8E71290B7E714
:101B20007B420A930023A8EB07080F93C4E7002326
:101B30000B930E9B002B35DC0123009307931A4671
:101B40000E920BE00123F3E700230B930E9BFB188F
:101B500000930133012B0793B8BF0123DBF81C006E
:101B60000021042202F114059D421FD9416058460C
:101B700000F096FD824600283CD11B4B024640F205
:101B8000AF11D8E60123E0E70124002309930B9469
:101B90004FF0FF330093079300221223D0E7012375
:101BA0000B93F5E70E9B00930793D7E701315200A3
:101BB000D8E700BFAFF3008061436F63A787D23FD0
:101BC000B3C8608B288AC63FFB799F501344D33F2C
:101BD00081970008989700080000F07F519700084F
:101BE0000000F83F90980008F09700087D970008E3
:101BF00050970008DBF81C301860079B0E2B00F292
:101C0000A480002C00F0A180002F33DDAD4B07F045
:101C10000F0203EBC20393ED007BF8058DED047B0F
:101C20004FEA271416D5A84BDDE90C01D3E90823A8
:101C3000FEF70CFECDE9020104F00F040326A24DCD
:101C400054B9DDE90423DDE90201FEF7FFFDCDE92A
:101C5000020128E00226F2E7E10708D5DDE90401E8
:101C6000D5E90023FEF7C8FCCDE904010136641074
:101C70000835E5E700F0D2807C42924B924D04F0AB
:101C80000F0203EBC203D3E90023DDE90C01FEF7E9
:101C9000B3FCCDE90201241100230226002C40F000
:101CA000B280002BD3D1129BDDE90245002B00F05E
:101CB000B780864B002220462946FEF70FFF0028FA
:101CC00000F0AE80079B002B00F0AA80009B002B49
:101CD00037DD7B1E049320467D4B00222946FEF70C
:101CE0008BFCCDE90201009C01363046FEF71AFC60
:101CF000DDE90223FEF780FC764B0022FEF7C6FAF0
:101D00000546A1F15076002C40F08D80DDE90201FE
:101D1000714B0022FEF7B8FA02460B46CDE90223CA
:101D20002A463346FEF7F8FE002840F08B82DDE9B4
:101D300002012A4606F10043FEF7D0FE002840F0DB
:101D40002881DDE90C34CDE90234179B002BC0F269
:101D50005A810E2F00F357815A4B03EBC70393EDC3
:101D6000007B0E9B002B8DED007B03DA079B002B85
:101D700040F30181DDE902455646DDE900232046B6
:101D80002946FEF763FDFEF7E7FE8046FEF7CAFB35
:101D9000DDE90023FEF730FC02460B4620462946CB
:101DA00008F13004FEF770FA06F8014B079DA6EB28
:101DB0000A04A54202460B4640F01781FEF766FA78
:101DC000DDE9002304460D46FEF7A6FE002840F09C
:101DD000F980DDE9002320462946FEF775FE18B19B
:101DE00018F0010F40F0EE804946584600F098FC8C
:101DF00000233370139B01371F60239B002B00F0DF
:101E00001D831E601AE3E20705D5D5E90023FEF71E
:101E1000F3FB01360123641008353FE7022642E751
:101E2000079C049761E7274B0B9903EBC40353E925
:101E300002235444002953D028490020FEF706FD10
:101E400033462A46FEF720FACDE910015646DDE971
:101E50000201FEF781FE0546FEF764FB02460B46D3
:101E6000DDE90201FEF710FA303502460B46CDE9F6
:101E7000022306F8015BDDE91023FEF72FFE0028A0
:101E800071D1DDE9022311490020FEF7FDF9DDE9FA
:101E90001023FEF723FE002840F09580A6423FF471
:101EA00050AFDDE910010A4B0022FEF7A5FB084BFD
:101EB000CDE910010022DDE90201FEF79DFBCDE92D
:101EC0000201C4E790980008689800080000F03FFD
:101ED0000000244000001C40000014400000E03FCF
:101EE00031462846FEF788FBCDE910011594564689
:101EF000DDE90201FEF730FE0546FEF713FB024660
:101F00000B46DDE90201FEF7BFF9303506F8015B4B
:101F100002460B46A642CDE902234FF0000224D12F
:101F2000AC4BDDE91001FEF7B1F902460B46DDE9E5
:101F30000201FEF7F1FD002845D1DDE91023A54996
:101F40000020FEF7A1F902460B46DDE90201FEF78B
:101F5000C5FD00283FF4F5AE159E731E159316F8C7
:101F6000013C302BF8D0049F3EE79B4BFEF744FB2F
:101F7000CDE90201BCE70CD1984B0022DDE900015C
:101F8000FEF73AFBDDE90223FEF7BCFD002800F076
:101F90005781002425460E9BDB43049356460027B9
:101FA0002146584600F0BCFB002DDCD02FB1AF42DB
:101FB00003D03946584600F0B3FB2946584600F096
:101FC000AFFBD0E7049733461E4613F8012D392A9C
:101FD00007D19A45F8D1049A0132049230228AF846
:101FE00000201A7801321A70BDE77B4B0022FEF701
:101FF00003FB0022002304460D46FEF765FD002882
:102000003FF4BBAEF0E60B9A002A00F0DB80099AA1
:10201000012A00F3BF80149A002A00F0B78003F26F
:1020200033430A9C4646089A01211A44584698446C
:10203000089200F029FC05465EB1089B002B08DDE4
:10204000B342089AA8BF3346A8EB0308F61AD31A7E
:1020500008930A9BF3B10B9B002B00F0B7808CB167
:1020600029462246584600F0CFFC4A46014605461E
:10207000584600F01FFC49460490584600F050FBBB
:10208000049B99460A9B1A1B04D04946584600F007
:10209000BBFC81460121584600F0F6FB0F9B04462D
:1020A000002B00F0CF811A460146584600F0ACFCE8
:1020B000099B012B044600F39580029B002B40F006
:1020C0008780039BC3F31303002B40F08980039B9D
:1020D00023F000431B0D1B052BB1089B0133089314
:1020E00008F1010801230A930F9B002B00F0B08137
:1020F000236904EB8303186900F07AFBC0F1200028
:10210000089B184410F01F0077D0C0F12003042B67
:102110006BDD089BC0F11C00034480440644089317
:10212000B8F1000F05DD49464246584600F0C6FCAE
:102130008146089B002B05DD21461A46584600F0D3
:10214000BDFC0446129B002B59D02146484600F0A6
:1021500021FD002853DA7B1E0493494600230A22FE
:10216000584600F0FFFA0B9B8146002B00F072816D
:10217000002329460A22584600F0F4FA009B002B5F
:10218000054667DC099B022B41DC63E0169BC3F12B
:10219000360346E7079B5C1E0A9BA342BFBF0A9B10
:1021A0000F9A0A94E31AB4BFD2181C1B079BBCBF3A
:1021B0000F920024002BB5BFA8EB0306079B00235A
:1021C000464630E70A9C0B9D464635E70A9A5CE78F
:1021D000002388E70000E03F000024400000144096
:1021E000029B80E700230A9382E799D0089A1C3368
:1021F0001A4498441E44089292E70346F6E7079B68
:102200000497002B20DC0093099B022B1EDD009B12
:10221000002B7FF4C0AE21460522584600F0A2FAFA
:1022200001460446484600F0B5FC00287FF7B3AEEF
:102230005646312306F8013B049B01330493AEE676
:10224000079C04972546F3E7079B00930B9B002B05
:1022500000F00481002E05DD29463246584600F084
:102260002DFC05460A9B002B5AD06968584600F0A1
:1022700017FA064628B9844B024640F2EF21FFF7D1
:102280005ABB2A690232920005F10C010C3000F0B1
:1022900045FE01223146584600F010FC0AF10103C8
:1022A0000793009B53440B93029B03F001032F46BB
:1022B0000A930546079B2146013B48460093FFF7DA
:1022C0009AFA3946029000F13008484600F062FC64
:1022D0002A4608902146584600F078FCC268064617
:1022E00002BB0146484600F055FC024631465846BE
:1022F0000E9200F015FA099B0E9A079E43EA02011E
:102300000A9B194310D1B8F1390F29D0089B002B33
:1023100002DD029B03F13108009B83F800803FE659
:102320002846BBE70122E1E7089B002B04DB099963
:102330000B430A990B4320D1002AEDDD49460122C7
:10234000584600F0BBFB2146814600F023FC0028E4
:1023500003DCE1D118F0010FDED0B8F1390FD8D18C
:10236000009A3923137033461E46013B16F8012CA0
:10237000392A52D001321A7012E6002A07DDB8F16C
:10238000390FEDD0009A08F10103137008E6079B9E
:10239000079A03F8018C0B9B934228D049460023EF
:1023A0000A22584600F0DEF9AF4281464FF00003A2
:1023B0004FF00A023946584607D100F0D3F90746D4
:1023C0000546079B0133079374E700F0CBF92946D4
:1023D000074600230A22584600F0C4F90546F0E7F4
:1023E000009B002BCCBF1E460126564400274946C1
:1023F0000122584600F062FB2146814600F0CAFBEC
:102400000028B0DC02D118F0010FACD133461E46D3
:1024100013F8012D302AFAD0C2E59A45A4D1049BC5
:102420000133049331238AF80030B9E5239BDFF8A8
:102430005CA01BB10AF10803239A1360504619B03F
:10244000BDE8F08F099B012B7FF737AE0F9B0A93F6
:10245000012055E6009B002B7FF7D6AE564621465D
:102460004846FFF7C8F900F1300806F8018B009BD9
:10247000A6EB0A029342B3DD494600230A225846DE
:1024800000F070F98146EAE7F097000874970008B9
:1024900038B50546002941D051F8043C0C1F002BEB
:1024A000B8BFE41800F0F0F81D4A136833B9636050
:1024B00014602846BDE8384000F0ECB8A34208D9C3
:1024C000206821188B4201BF19685B6809182160D8
:1024D000EDE71A465B680BB1A342FAD911685018B0
:1024E000A0420BD120680144501883421160E0D112
:1024F00018685B68536008441060DAE702D90C235F
:102500002B60D6E7206821188B4204BF19685B68EE
:10251000636004BF091821605460CAE738BD00BF7A
:1025200028040020024B0146186800F02DB800BFB7
:102530000C000020024B01461868FFF7A9BF00BF3E
:102540000C00002070B50F4E0C463168054611B9DD
:1025500000F0D4FC30602146284600F0CFFC431C3C
:1025600003D14FF0FF34204670BDC41C24F0030497
:10257000A042F8D0211A284600F0C0FC0130F2D168
:10258000EFE700BF240400202DE9F843CD1C25F01F
:10259000030508350C2D38BF0C25002D064601DB40
:1025A000A94204D90C2333600020BDE8F883DFF88A
:1025B000D48000F069F8D8F800301C4644BB2946A6
:1025C0003046FFF7BFFF431C044658D1D8F80040FF
:1025D0002746002F43D1002C4BD023683946304684
:1025E00004EB030900F08AFC814542D121686D1A91
:1025F00029463046FFF7A6FF01303AD023682B4426
:102600002360D8F800305A6862BBC8F800700FE049
:102610002268521B20D40B2A17D96119A3422560C6
:1026200018BF5960636808BFC8F8001062514B605A
:10263000304600F02FF804F10B00231D20F00700B6
:10264000C21A1CBF1B1AA350AFE76268A3420CBF9B
:10265000C8F800205A60EBE723466468AEE73C46C2
:102660007F68B6E71A465B68A342FBD1002353603C
:10267000DEE70C233360304600F00CF894E7056089
:10268000D6E700BF280400200148FFF7B2B800BF1A
:10269000200400200148FFF7ADB800BF200400204F
:1026A00070B5C66904460D4676B91020FFF73AFFAB
:1026B0000246E06120B9184B18486B2100F03CFC41
:1026C000C0E901660660C660E669F36883B1E36944
:1026D000DB6853F82500B8B9012101FA05F6721D2F
:1026E0009200204600F046FC60B1C0E901560EE0C1
:1026F00021220421204600F03DFCE369F060DB6804
:10270000002BE4D1002070BD026843F8252000238F
:10271000C0E90333F7E700BF81970008019800087C
:1027200070B5C66905460C4676B91020FFF7FAFE6B
:102730000246E86120B9094B09488F2100F0FCFBF3
:10274000C0E901660660C6603CB1EB696268DB689F
:1027500053F82210216043F8224070BD8197000891
:10276000019800082DE9F0410D6907460C461E4608
:1027700001F1140C0020DCF8003099B202FB016179
:102780001E0C0B0C02FB063389B2013001EB034136
:1027900085424CF8041B4FEA1346ECDC0EB3A368E9
:1027A000AB4219DC616838460131FFF779FF80469A
:1027B00028B902460C4B0D48BA2100F0BDFB226936
:1027C000023204F10C0192000C3000F0A7FB21460C
:1027D0003846FFF7A5FF444604EB850301355E61EB
:1027E00025612046BDE8F081F097000801980008B7
:1027F000B0F5803F034636BF030400201020B3F13C
:10280000807F3CBF1B020830B3F1805F3CBF1B01DF
:102810000430B3F1804F3CBF9B000230002B05DB3E
:1028200013F0804F00F1010008BF202070470368BB
:10283000024613F007000BD0D90721D4980749BFEF
:102840005B089B08012013605CBF13600220704787
:1028500099B209B91B0C1020D9B209B908301B0A6A
:10286000190704BF1B090430990704BF9B080230F5
:10287000D90703D45B0800F1010003D0136070474F
:10288000002070472020704710B50C460121FFF74B
:1028900007FF024628B9054B054840F2451100F0F4
:1028A0004BFB01234461036110BD00BFF09700089A
:1028B000019800082DE9F04F14460A6923699A42ED
:1028C000A8BF23460F46A4BF0C461F46D4F810A04D
:1028D000D7F81090A36861680AEB0906B34285B087
:1028E000B8BF0131FFF7DCFE30B90246444B454822
:1028F0004FF4B17100F020FB00F1140505EB8608E0
:102900002B460022434521D307F1140104F11402A0
:1029100002EB8A0201EB89030293131B153B23F0A0
:102920000303043304F11507BA4238BF04230193AB
:10293000029B03918B420CD8002E03DD58F8043D16
:10294000002B5BD0066105B0BDE8F08F43F8042B87
:10295000D8E7B1F800A0BAF1000F24D004F1140EAA
:10296000A9464FF0000C5EF8047BD9F800301FFA3E
:1029700087FB9BB20AFB0B334FEA174BD9F8007069
:1029800063444FEA174C0AFB0BC707EB13479BB294
:1029900043EA0743724549F8043B4FEA174CE2D833
:1029A000019B45F803C0039BB3F802900431B9F1D1
:1029B000000F21D02B6804F1140CAE464FF0000A32
:1029C000BCF800B0BEF8027009FB0B7757449BB20D
:1029D00043EA07434EF8043B5CF8043B4FEA134AD2
:1029E000BEF8003009FB0A3303EB174362454FEA98
:1029F000134AE5D8019FEB51043599E7013E9BE767
:102A0000F0970008019800082DE9F843154612F0E8
:102A1000030207460E4607D0254C013A002354F81E
:102A20002220FFF79FFE0646AD103DD0FC697CB921
:102A30001020FFF777FD0246F86128B91D4B1E48AC
:102A400040F2B31100F078FAC0E901440460C460B8
:102A5000D7F81C80D8F808404CB940F271213846AC
:102A6000FFF712FF0023C8F80800044603604FF088
:102A70000009EB070AD5314622463846FFF71AFF10
:102A8000314680463846FFF74BFE46466D100BD068
:102A9000206838B9224621463846FFF70BFF2060F0
:102AA000C0F800900446E4E73046BDE8F88300BF74
:102AB0005C98000881970008019800082DE9F0470C
:102AC0000C464968236903EB6218A36807469146E0
:102AD0004FEA621A08F10106B3420BDB3846FFF7F2
:102AE000DFFD054648B90246284B29484FF4EF71EF
:102AF00000F022FA01315B00EEE7002300F114013F
:102B000000F110021846534533DB20692AEAEA7ABD
:102B100004F1140319F01F0901EB8A0103EB800C87
:102B20002BD0C9F1200E8A460022186800FA09F05D
:102B300010434AF8040B53F8042B9C4522FA0EF27A
:102B4000F3D8ACEB0403153B23F00303043304F187
:102B50001500844538BF0423CA500AB108F10206A3
:102B6000013E38462E612146FFF7DAFD2846BDE8D2
:102B7000F08742F8040F0133C5E7043953F8042BFA
:102B800041F8042F9C45F9D8EAE700BFF097000808
:102B9000019800080A6903460069801A30B50ED111
:102BA0001433143103EB820401EB820154F8045D09
:102BB00051F8042D954203D005D24FF0FF3030BDBF
:102BC000A342F3D3FBE70120F9E700002DE9F74F1B
:102BD00089460646114648461446FFF7DBFF051EA8
:102BE00012D129463046FFF75BFD024628B93F4B1C
:102BF00040F237213E4800F09FF90123C0E9043537
:102C0000104603B0BDE8F08FBCBF4B46A14630462E
:102C1000D9F80410BABF1C4601250025FFF740FD76
:102C2000024618B9314B40F24521E3E7D9F810705C
:102C30002669C56009F1100309F1140504F1140EA9
:102C400000F1140B05EB87080EEB86060193D946BD
:102C50004FF0000C019B5EF8040B53F804AF019396
:102C60001FFA8AF3194683B2CB1A000C6344C0EBF7
:102C70001A4000EB23409BB243EA0043764549F8F3
:102C8000043B4FEA204CE5D8331B153B23F00303EC
:102C900015340433A64238BF04231D445B441E464A
:102CA0002C4644450ED308F10301491B21F00301D2
:102CB000033DA84538BF00210B4453F8041D91B1D2
:102CC00017619DE754F8041BE646080C1CFA81FCCA
:102CD000714400EB2C4089B241EA004146F8041BE4
:102CE0004FEA204CDDE7013FE7E700BFF09700081F
:102CF000019800082DE9F7430F46012159EC108B8C
:102D00001646FFF7CDFC044630B90246234B244853
:102D100040F20F3100F010F9C9F30A55C9F313035B
:102D20000DB143F480130193B8F1000323D068463A
:102D30000093FFF77CFDDDE90012D0B1C0F1200364
:102D400002FA03F30B43C24063610192019BA3614A
:102D5000002B0CBF012202222261A5B1A5F233454E
:102D600005443D60C0F135003060204603B0BDE849
:102D7000F0836161EAE701A8FFF759FD019B6361F8
:102D800020300122E8E704EB8203A0F232403860F1
:102D90001869FFF72DFDC0EB4210E5E7F09700083A
:102DA00001980008B1F90C202DE9F04116070546FD
:102DB0000C4654D44B68002B02DC0B6C002B48DD16
:102DC000E66A002E45D0002312F480522F68216A53
:102DD0002B6030D0626DA389590705D56368D21A7C
:102DE000636B0BB1236CD21A0023E66A216A284672
:102DF000B047431CA38906D129681D292BD82A4A2C
:102E00000A41D60727D400226260D90422692260D1
:102E100004D5421C01D12B6803B96065616B2F603A
:102E2000B9B104F14403994202D02846FFF730FBC0
:102E3000002363630DE001232846B0470246501C7F
:102E4000C9D12B68002BC6D01D2B01D0162B1ED14B
:102E50002F60002022E043F040031BB21BE00F690B
:102E6000002FF6D093070E6808BF4B690F6018BF9C
:102E70000023A6EB07088B60B8F1000FE9DD216A9B
:102E8000A66A43463A462846B047002808DCB4F90B
:102E90000C3043F04003A3814FF0FF30BDE8F081D8
:102EA0000744A8EB0008E7E7FEFFBFDF38B50B6972
:102EB00005460C4613B90025284638BD18B1036AEB
:102EC0000BB9FEF7A5FBB4F90C30002BF3D0626E02
:102ED000D00704D4990502D4A06DFEF78AFC2846D9
:102EE0002146FFF75FFF636EDA070546E4D4A38946
:102EF0009B05E1D4A06DFEF77DFCDDE738B5064DFE
:102F00000023044608462B6006F0E4FA431C02D175
:102F10002B6803B1236038BD1C0400200A44914291
:102F200000F1FF3300D1704710B511F8014B03F8E1
:102F3000014F9142F9D110BD1FB514461A46094BF5
:102F40001B680546D86854B9074B1C46CDE90134C7
:102F500000912B46054900F041F800F051F8044B70
:102F6000F4E700BF0C0000209D9900086F9900084D
:102F70006299000870B5A1FB02543CB92946FFF7DD
:102F800003FB064628B90026304670BD0C220260BD
:102F9000F9E72A462146FEF7B4FBF5E782B001B90E
:102FA00001A942B14BB113780B601278101E18BF03
:102FB000012002B070471046FBE76FF00100F8E710
:102FC0000346084641B1FF2A04D98A221A604FF00D
:102FD000FF3070470A700120704700000EB403B53F
:102FE000014603AB054853F8042B0068019300F039
:102FF00037F802B05DF804EB03B070470C00002016
:1030000008B5062000F000FA012006F08FFA936858
:10301000013B002B10B4936008DA9469A34201DBF2
:103020000A2903D15DF8044B00F032B91368581C2B
:103030001060197008465DF8044B7047F8B50646F5
:103040000F461446D518AC4201D1002007E014F811
:10305000011B3A463046FFF7DAFF431CF3D1F8BDB7
:103060002DE9F04F0D469DB014469846064618B11E
:10307000036A0BB9FEF7CCFA6B6ED90705D4AB899E
:103080009A0502D4A86DFEF7B4FBAB891B0701D5E6
:103090002B699BB92946304600F038F970B16B6E48
:1030A000DC0704D54FF0FF301DB0BDE8F08FAB89D1
:1030B0009805F7D4A86DFEF79DFBF3E7002309936D
:1030C00020238DF82930CDF80C803023DFF8AC8137
:1030D0008DF82A304FF0010923469A4613F8012B48
:1030E0000AB1252AF9D1BAEB040B0BD05B46224674
:1030F00029463046FFF7A2FF013000F0A780099A69
:103100005A4409929AF80030002B00F09F80002367
:103110004FF0FF32CDE905230AF1010A049307932A
:103120008DF853301A935446052214F8011B534866
:10313000FDF74EF8049AD8B9D10644BF20238DF884
:103140005330130744BF2B238DF853309AF80030C7
:103150002A2B15D0079A544600204FF00A0C21461E
:1031600011F8013B303B092B4BD9B0B1079214E069
:10317000A0EB080309FA03F313430493A246D2E732
:10318000039B191D1B680391002BBBBF5B4242F0E0
:10319000020207930793B8BF049223782E2B0AD11B
:1031A00063782A2B32D1039B1A1D1B68039243EAD2
:1031B000E37302340593DFF8D4A02178032250464C
:1031C000FDF706F838B1049BA0EB0A0040228240CC
:1031D00013430134049314F8011B29488DF8281077
:1031E0000622FCF7F5FF00283FD0264B1BBB039BB4
:1031F000073323F0070308330393099B3B440993E8
:103200006AE70CFB02320C460120A8E700230134D8
:10321000059319464FF00A0C204610F8012B303A5E
:10322000092A03D9002BC6D00591C4E70CFB012164
:1032300004460123F0E703AB00932A46124B04A98E
:103240003046FDF7A1FD0746781CD6D16B6ED90735
:1032500005D4AB899A0502D4A86DFEF7CBFAAB89E9
:103260005B063FF51FAF09981EE703AB00932A46A4
:10327000054B04A93046FEF71FF8E4E79F9A0008C3
:10328000A99A0008890D00083D300008A59A000899
:10329000F8B50E461446054618B1036A0BB9FEF799
:1032A000B7F9A369A360A3891A0701D5236943B9B4
:1032B0002146284600F02AF818B14FF0FF3738466B
:1032C000F8BD23682269981A6369F6B283423746CB
:1032D00005DC21462846FFF7E9FD0028EDD1A3686B
:1032E000013BA36023685A1C22601E706269431C64
:1032F0009A4204D0A389DB07E1D50A2EDFD121460B
:103300002846FFF7D3FD0028D9D0D6E738B5294B9A
:10331000054618680C4618B1036A0BB9FEF778F930
:10332000B4F90C30190722D4DA0607D409222A602E
:1033300043F04003A3814FF0FF3033E0580712D52C
:10334000616B41B104F14403994202D02846FFF772
:103350009FF800236363A38923F02403A381002340
:10336000636023692360A38943F00803A381236971
:103370004BB9A38903F42073B3F5007F03D0214632
:10338000284600F083F8B4F90C3013F001020AD09B
:103390000022A26062695242A261226942B913F01E
:1033A0008000C5D138BD990758BF6269A260F4E7B3
:1033B0000020F7E70C0000201F2938B505460C4611
:1033C00004D9162303604FF0FF3038BDC26B12B131
:1033D00052F821304BB9284600F030F82246014619
:1033E0002846BDE8384000F017B8012B0AD0591C18
:1033F00003D1162303600120E7E7002142F82410DF
:10340000204698470020E0E7024B01461868FFF786
:10341000D3BF00BF0C00002038B5074D0023044681
:10342000084611462B6006F079F8431C02D12B6840
:1034300003B1236038BD00BF1C04002006F06CB847
:1034400070B50C46B1F90E10002996B015461E460F
:103450000DDAA38913F0800F4FF0000114BF402351
:103460004FF48063002031602B6016B070BD6A4657
:1034700000F048F80028ECDB019901F47041A1F557
:103480000053594259414FF48063EBE78B89F7B5FC
:103490009D0706460C4607D504F1470323602361C8
:1034A0000123636103B0F0BD01AB6A46FFF7C8FFBB
:1034B000009F054639463046FFF766F848B9B4F92B
:1034C0000C309A05EED423F0030343F00203A381EA
:1034D000E2E7A389206043F08003A381019BC4E954
:1034E00004075BB1B4F90E10304600F01DF828B1A6
:1034F000A38923F0030343F00103A381A3891D43A0
:10350000A581CFE738B5074D00230446084611468C
:103510002B6006F023F8431C02D12B6803B1236013
:1035200038BD00BF1C04002038B5064D00230446FA
:1035300008462B6006F018F8431C02D12B6803B133
:10354000236038BD1C04002030B5034683B0244DF1
:10355000244863F07F0300220C464FF400718DF87D
:10356000073003F009FD2868642301220DF10701EB
:1035700004F0D2FB022818D003282DD0012827D030
:10358000214601226423286804F076FE01220446C5
:103590004FF40071134803F0EFFC022C13D0032CFE
:1035A0000CD0012C05D003B030BD0F4806F07AF8DE
:1035B000E6E70E4806F076F803B030BD0C4806F09A
:1035C00071F803B030BD0B4806F06CF803B030BDA5
:1035D000094806F067F8D3E7084806F063F8CFE734
:1035E000C801002000040048C89A0008FC9A00089E
:1035F0002C9B0008149B0008B09A0008E09A000871
:1036000070B516460C4695B22946204600F082FE5B
:103610000128F9D0304670BD30B5864C864883B05D
:1036200040F61F7300224FF40071ADF8043003F030
:10363000A3FC022201A96423206804F06DFB01228F
:1036400005464FF400717C4803F096FC022D00F013
:10365000A880032D00F0E980012D00F0E28042F205
:1036600021537548ADF8043000224FF4007103F087
:1036700083FC022201A96423206804F04DFB01228F
:1036800005464FF400716C4803F076FC022D00F003
:10369000C480032D00F0BD80012D00F0B68047F2FC
:1036A00024736548ADF8043000224FF4007103F034
:1036B00063FC022201A96423206804F02DFB01228F
:1036C00005464FF400715C4803F056FC022D00F0F3
:1036D0009880032D00F09180012D00F08A8040F247
:1036E00021535548ADF8043000224FF4007103F027
:1036F00043FC022201A96423206804F00DFB01228F
:1037000005464FF400714C4803F036FC022D6CD096
:10371000032D66D0012D60D040F223734648ADF8EA
:10372000043000224FF4007103F026FC022201A9AC
:103730006423206804F0F0FA012205464FF400717A
:103740003D4803F019FC022D43D0032D3DD0012D3F
:1037500037D047F222033848ADF8043000224FF446
:10376000007103F009FC2068022201A9642304F01F
:10377000D3FA012204464FF400712F4803F0FCFBFA
:10378000022C1AD0032C14D0012C0ED001A97520C4
:10379000FFF7DAFE9DF80410284805F013FF03B088
:1037A00030BD274805F07EFF59E7264805F07AFF2F
:1037B000ECE7254805F076FFE8E7214805F072FFC1
:1037C000E4E7204805F06EFFC3E71F4805F06AFFF5
:1037D000BFE71B4805F066FFBBE71A4805F062FF2C
:1037E0009AE7194805F05EFF96E7154805F05AFF7D
:1037F00092E7144805F056FF71E7134805F052FFB1
:103800006DE70F4805F04EFF69E70E4805F04AFFE7
:1038100045E70D4805F046FF41E7094805F042FF3E
:103820003DE7084805F03EFF19E7074805F03AFF75
:1038300015E700BFC801002000040048789B00087D
:10384000589B0008489B0008689B00082DE9F0433E
:103850002DED048B382095B0FEF764FE964E974F01
:10386000044602F0FDFC33686063C31A05460DF19F
:1038700043010C2008EE103AFFF766FE0DF14201FD
:103880000B20FFF761FE0E200DF14501FFF75CFEF6
:1038900011A90D20FFF758FE10200DF14701FFF789
:1038A00053FE0DF146010F20FFF74EFE12200DF1E1
:1038B0004901FFF749FE12A91120FFF745FE142028
:1038C0000DF14D01FFF740FE13A91320FFF73CFE59
:1038D00016200DF14B01FFF737FE0DF14A011520BF
:1038E000FFF732FE0A200DF14F01FFF72DFE0DF11B
:1038F0004E010920FFF728FEBDF942309FED707A96
:10390000BDF94810BDF94C20BDF94E80DB0007EE33
:10391000903ABDF94430F8EEE77ADB00C7EE875AFB
:10392000C1EB411001EB8001090107EE903ABDF9AE
:103930004630C4ED005AF8EEE77ADB0087EE876A7E
:1039400007EE903AF8EEE77ABDF94A3084ED016A65
:10395000C7EE876A07EE901AF8EEE77AC4ED026ABE
:10396000C7EE876AC2EB421102EB8102120107EE39
:10397000902AF8EEE77AC4ED036AC7EE876AC3EBD4
:10398000431203EB82031B0107EE903AF8EEE77A4D
:10399000C4ED046AC7EE876A07EE908AF8EEE77A0C
:1039A000C4ED056A17EE900AFCF7CEFD00224FF039
:1039B0007E53FCF721FE434B0022FCF767FCFDF72A
:1039C000F3F841462063404805F0FCFDB8EE488A14
:1039D000D4ED006A94ED039A97ED007A3B4BC6EE66
:1039E000887A39EE477AC7EE088A93ED007A77EE47
:1039F000877AC3ED007A364BD3ED007A78EEA78A4A
:103A0000C3ED008A334BC4ED068A1A68AA4208D374
:103A10002046356087ED009A15B0BDEC048BBDE8FB
:103A2000F08305F1C80216EE900A1A60FCF78CFDCF
:103A3000804618EE900A8946FCF786FDCDE90E0116
:103A4000606AFCF781FDCDE90C01206BFCF77CFD81
:103A5000CDE90A016069FCF777FDCDE9080120692D
:103A6000FCF772FDCDE9060119EE100AFCF76CFDBA
:103A7000CDE90401A068FCF767FDCDE902016068AB
:103A8000FCF762FD4246CDE900014B46124805F0C5
:103A900099FD18EE100AFCF757FD02460B46002070
:103AA0000E49FCF7D3FE02460B460D4805F08AFD91
:103AB00094ED039AACE700BF3C04002034040020DE
:103AC00000FEFF4600003940989B000838040020A3
:103AD000300400202C040020B09B000800408F40E0
:103AE000589C000810B598B04422002106A8FDF7A4
:103AF00008FE00234FF40070CDE90133CDE9033314
:103B0000059303F025FB08B172B6FEE7122106917A
:103B1000B021022301220F910A21CDE91133CDE911
:103B20001321CDE915330E9040230D9206A84FF4D2
:103B30008072CDE9092302F04BFC034608B172B64E
:103B4000FEE704210F2403220DEB0100CDE9014221
:103B5000CDE90333059302F069FF08B172B6FEE7C1
:103B600018B010BD70B500248EB002F05DFBFFF7F9
:103B7000B9FFCDE90844CDE90A44914B0C94DA6CC5
:103B80009048914D42F00402DA64DA6C02F00402CB
:103B90000192019ADA6C42F08002DA64DA6C02F087
:103BA00080020292029ADA6C42F00102DA64DA6C64
:103BB00002F001020392039ADA6C42F00202DA6424
:103BC000DB6C03F0020322464FF440410493049B54
:103BD00003F0D2F922464FF4A0714FF0904003F069
:103BE000CBF9224679484FF4905103F0C5F94FF4D0
:103BF00000537448089308A90126CDE9094403F04D
:103C0000CFF84FF440436F48089308A9CDE9096401
:103C10000B9403F0C5F84FF4A07308A94FF090403F
:103C2000CDE90836CDE90A4403F0BAF84FF48373BE
:103C300066480A9408A9CDE9083403F0B1F84FF4B6
:103C40009053624808A9CDE90836CDE90A4403F04B
:103C5000A7F8CDE90844CDE90A44CDE90C44C5E90B
:103C60000144C5E90344C5E90A44CDE90644584B7B
:103C700005942C8385F8204085F830406C6385F8E6
:103C8000384028460424EE612B606C6103F01EFB73
:103C900008B172B6FEE7059005A9284603F040FE7C
:103CA000034608B172B6FEE74A4A0A930D9306230B
:103CB000CDE9082308A97F2328460C940B9303F031
:103CC000DFFB08B172B6FEE7434C444A444D206224
:103CD000C4E90206C4E90400C4E906002046C4E9B8
:103CE000002503F059F9014608B172B6FEE72046F7
:103CF00003F0ACF9014608B172B6FEE7204603F0C6
:103D0000CFF9034608B172B6FEE7364C364A226058
:103D10002046C4E90153C4E90363C4E90533C4E997
:103D2000073303F039F9014608B172B6FEE72046C1
:103D300003F08CF9014608B172B6FEE7204603F0A5
:103D4000AFF9034608B172B6FEE7284828494FF498
:103D50008272C0E900124FF400724FF4E064072150
:103D600082610822C0E90234C0E90433C0E90733A4
:103D7000C0E90933C0E90B13426303F051FF08B1F6
:103D800072B6FEE700F078F90E4801224FF4804148
:103D900003F0F2F80D4801224FF4007103F0ECF843
:103DA000FFF73AFC4FF480714FF0904003F0EAF8CF
:103DB0000A2002F05BFAFFF749FDFEF7BBFBF1E7D3
:103DC00000100240000800484C0500200004004894
:103DD000000004500002B025F80400200054004008
:103DE000E49CD110A4040020005C004040040020AA
:103DF0000038004072B6FEE7FEE700BFFEE700BFF6
:103E0000FEE700BFFEE700BFFEE700BF704700BF50
:103E1000704700BF704700BF02F016BA014804F0B7
:103E2000BDBB00BF40040020014800F00FBD00BF33
:103E3000AC1400200A4B1A6E42F001021A661A6E88
:103E400082B002F001020092009A9A6D42F0805214
:103E50009A659B6D03F080530193019B02B07047FC
:103E6000001002400000000000B51B4A016889B044
:103E700000239142CDE90233CDE90433069302D009
:103E800009B05DF804FB03F1804303F504339FEDB3
:103E9000107BDA6C42F40052DA64DA6C02F40052FD
:103EA0000092009ADA6C42F00102DA64DB6C03F0F3
:103EB0000103019302A94FF090408DED027B019B1D
:103EC00002F06EFF09B05DF804FB00BFAFF30080A5
:103ED000330000000B00000000000450F0B5044661
:103EE00099B0002134220BA8CDE90611CDE90811C3
:103EF0000A91FDF706FC23683C4A934204D03C4AF1
:103F000093422DD019B0F0BD40230BA80B9302F0C3
:103F100043FE002864D1374CE36C43F00103E364B3
:103F2000E36C03F0010301930423019A0A93002236
:103F300003234FF4C066122706A94FF09040CDE945
:103F40000823CDE9066702F02BFFA36D43F40013AD
:103F5000A365A36D03F400130293029B19B0F0BD97
:103F60004FF480730BA80B9302F016FE00283AD191
:103F7000204CE36C43F00103E364E36C03F00103C2
:103F80000393039BE36C43F00203E364E36C03F0ED
:103F900002030493042580220026032706A9122386
:103FA0004FF09040CDE90623CDE90867049B0A95C0
:103FB00002F0F6FE102212230F480A9506A9CDE959
:103FC0000623CDE9086702F0EBFEA36D43F400037E
:103FD000A365A36D03F400030593059B19B0F0BD21
:103FE000FFF708FF97E7FFF705FFC1E70054004020
:103FF000005C0040001002400004004830B51C4B3B
:10400000026889B000249A42CDE90244CDE9044413
:10401000069401D009B030BD03F5EC3302A99A6DC6
:10402000144842F480429A659A6D02F480420092EC
:10403000009ADA6C42F00202DA64DB6C03F00203ED
:1040400001934FF444420223CDE9022305230322C6
:10405000CDE90523019D02F0A3FE2246214624203E
:1040600003F0D0F8242003F009F909B030BD00BFF7
:10407000003800400004004808B5184918480022DC
:1040800004F022FB70B91749154804F041FB88B9C8
:104090001549134805F0C2F9A0B9114804F060FBB6
:1040A000B8B908BDFFF7A6FE0E490D4804F030FB75
:1040B0000028EDD0FFF79EFE0B49094805F0AEF948
:1040C0000028EAD0FFF796FE054804F049FB0028D7
:1040D000E7D0BDE80840FFF78DBE00BF000200201A
:1040E000B0050020800200201C020020122301489D
:1040F0000B807047EC010020042301480B807047BF
:10410000E801002010B5044C04480A46214604F09A
:104110001FFF204610BD00BF8C0800206C9C0008CB
:1041200010B5044C04480A46214604F011FF20460D
:1041300010BD00BF8C080020809C000810B5044C06
:1041400004480A46214604F003FF204610BD00BF84
:104150008C080020889C000810B5044C04480A46CE
:10416000214604F0F5FE204610BD00BF8C0800205B
:10417000949C0008514AD2F89035D2F898054FF037
:104180001A0C1B18A1F800C001D14D487047D2F895
:1041900094154B4A180FB3F1204F4FF0000C2CBF71
:1041A0003730303082F803C0C3F3036CBCF1090F21
:1041B000907060464FF0000C8CBF3730303082F882
:1041C00005C0C3F3035CBCF1090F107160464FF0EA
:1041D000000C8CBF3730303082F807C0C3F3034C7B
:1041E000BCF1090F907160464FF0000C8CBF373066
:1041F000303082F809C0C3F3033CBCF1090F1072E0
:1042000060464FF0000C8CBF3730303082F80BC066
:10421000C3F3032CBCF1090F907260464FF0000C01
:104220008CBF3730303082F80DC0C3F3031CBCF1B3
:10423000090F107360468CBF37303030907303F035
:104240000F000346092894BF303337330020B1F103
:10425000204F13744FEA11732CBF3733303350742F
:10426000C1F303600928937403468CBF373330339E
:10427000C1F3035009284FF0000C137503468CBF9F
:1042800037333033C1F3034082F80FC04FF0000CD6
:10429000092882F813C093754FF0000C034682F88A
:1042A00015C098BF30334FF0000C88BF3733002162
:1042B000034882F817C01376517670470070FF1FCD
:1042C000CC0100200020704700207047002070477C
:1042D00010B5054C0146204605F0BAF8204605F019
:1042E000DFF8002010BD00BFB005002010B5064C5F
:1042F00006490022204605F09DF80549204605F0B4
:10430000A7F8002010BD00BFB00500208C0A0020D7
:104310008C0E002010B5094CD4F8BC32D3F81432FE
:104320000BB1012010BD0A460146204605F082F877
:104330002046BDE8104005F097B800BFB00500204A
:1043400010B5044694B00021342207A8CDE902112B
:10435000CDE904110691FDF7D4F9204B22689A4269
:1043600001D014B010BD4FF400524FF0406307A8C5
:104370000792119302F010FC60BB194CE36C43F000
:104380000103E364E36C03F0010300934FF4C052B4
:104390000223CDE9022300220323CDE9042302A94D
:1043A0000A234FF09040009A069302F0F9FCA36DA7
:1043B00043F08063A365A36D002203F08063019343
:1043C00011464320019B02F01DFF432002F056FFDF
:1043D00014B010BDFFF70EFDCFE700BF006800402E
:1043E0000010024000F52671D0F8DC0204F0CCB9D0
:1043F00001EB810300EBC303D0F8DC02D3F86421A6
:1044000004F0F2B901EB810300EBC303D0F8DC0246
:104410005A6A04F023BA00BFD0F8DC0204F0C4BA30
:1044200010B58379022B044601D0FFF7E3FCD4F8E2
:10443000DC02012104F09AFAD4F8DC02BDE8104055
:1044400004F066BA10B50446D0F8DC0204F092FA23
:10445000A37A23B1024A136943F00603136110BD26
:1044600000ED00E010B5837A04462BB9D4F8DC02E5
:10447000BDE8104004F08CBA064A136923F0060325
:104480001361FFF72FFBD4F8DC02BDE8104004F005
:104490007FBA00BF00ED00E010B5044602F098FEC0
:1044A0001D481E49C0F8DC42082202230271C4F8EC
:1044B000C8020022016083718360027300F0B0F8CB
:1044C00030BB00221146D4F8C802182301F0A0F82E
:1044D000D4F8C80258230022802101F099F8D4F8BA
:1044E000C802C0230022812101F092F8D4F8C8024A
:1044F0004FF488730022012101F08AF8D4F8C80231
:104500004FF480730022822101F082F8002010BD58
:10451000FFF770FCD5E700BFAC1400200068004036
:1045200008B5D0F8C80200F07BF918B102280CBF1A
:104530000120032008BD00BF944608B51A46D0F8F4
:10454000C802634600F034FF18B102280CBF0120F6
:10455000032008BD08B5D0F8C80200F065FF18B107
:1045600002280CBF0120032008BD00BF08B5D0F809
:10457000C80200F0CFFF18B102280CBF01200320B1
:1045800008BD00BF08B5D0F8C80201F005F818B1A1
:1045900002280CBF0120032008BD00BF0A06D0F886
:1045A000C83206D401EB810103EBC10393F8520139
:1045B000704701F07F0101EB810103EBC103987C9F
:1045C000704700BF08B5D0F8C80200F0DDFE18B192
:1045D00002280CBF0120032008BD00BF08B5D0F899
:1045E000C80200F079FF18B102280CBF0120032097
:1045F00008BD00BF08B5D0F8C80200F049FF18B1E7
:1046000002280CBF0120032008BD00BFD0F8C8025B
:1046100000F058BF004870478C120020704700BF60
:1046200038B5D8B190F89132044603F0FF02002B60
:1046300000F0E38003220023254684F89122637171
:10464000206801F031F855F8040B95E80E0001F0F0
:1046500019F8014628B1022384F891320125284631
:1046600038BD206801F02AF80028F4D12279002A08
:1046700000F0AE804FF48073012AC4E90800238261
:10468000E074A06200F0C28040F20113022AC4E983
:104690001200238784F83B00206545D04FF48173D6
:1046A000032AC4E91C00A4F8603084F86300A06702
:1046B0003AD040F20313042AC4E92600A4F8883053
:1046C00084F88B00C4F8A0002ED04FF48273052A22
:1046D000C4E93000A4F8B03084F8B300C4F8C800CE
:1046E00022D040F20513062AC4E93A00A4F8D830D3
:1046F00084F8DB00C4F8F00016D04FF48373072A67
:10470000C4E94400A4F8003184F80301C4F8180196
:104710000AD00023C4E94E3340F20711A4F828114F
:1047200084F82B31C4F8403100230121022AC4E966
:104730005833C4E96233A4F8503184F85331C4F8D3
:104740006831A4F8781184F87B31C4F890313FD0F7
:104750000221032AC4E96C33A4F8A01184F8A33120
:10476000C4F8B83134D00321042AC4E97633A4F85C
:10477000C81184F8CB31C4F8E03129D00421052ACE
:10478000C4E98033A4F8F01184F8F331C4F8083296
:104790001ED00521062AC4E98A33A4F8181284F829
:1047A0001B32C4F8303213D00621072AC4E99433EF
:1047B000A4F8401284F84332C4F8583208D0C4E94F
:1047C0009E330722A4F8682284F86B32C4F8803242
:1047D00095E80E00206800F073FF054600287FF47E
:1047E0003AAFE37A60730122934284F8912209D0B0
:1047F000206801F0A9FC284638BD80F89022FFF718
:104800009FFD17E7204600F021FFF1E7C4E95800BB
:10481000A4F8500184F85301C4F86801D8E700BF38
:1048200090F89032012B0ED010B504460123006899
:1048300084F8903200F02EFF206801F079FC00200F
:1048400084F8900210BD0220704700BF2DE9F04FA0
:10485000044683B0006801F081FC10F400452CD1BF
:10486000430500F17B8147041BD410F4005140F054
:10487000D781C60400F18B80050500F13183010664
:1048800000F10183820500F11F84C30512D522685F
:10489000B2F8443023F480731B041B0CA2F844309C
:1048A00008E02268B2F8443023F480431B041B0C58
:1048B000A2F8443003B0BDE8F08F2068B0F844306F
:1048C0001F04F7D5DFF8BCBA10E011F0100100F0BA
:1048D000C580018811F400658BB240F0E7801E04AA
:1048E00000F15A81B0F844301A04E3D5B0F84450CE
:1048F000A9B215F00F05E8D00FFA85F830F8283086
:1049000019049EB266D43106ECD530F828309BB23B
:1049100003EA0B0343F4004305EB850220F828303B
:1049200004EBC202AF00D37C012B00F0858108EBC1
:10493000880804EBC80C117CDCF82830009316F4CE
:10494000807A4FEAC8094FEAC10E0FFA81F840F0A9
:10495000A381B0F8505010FA85F57544B5F80254AB
:10496000C5F309059D4280F091815B1BCCF828308E
:10497000536A2B445362DCF82C3009F110012B44AC
:104980002144CCF82C3001F0AFF92068AAE7226866
:10499000B2F8403023F004031B041B0CA2F8403093
:1049A000B2F8403023F008031B041B0CA2F840307F
:1049B00094F8C832012B00F095832046FFF752FD92
:1049C0002268B2F8443023F480531B041B0CA2F875
:1049D00044306FE730F8283023F070031B051B0DBF
:1049E00043F0800305EB850120F8283004EBC1017A
:1049F000AF0091F85C31002B7BD1B0F8503000F261
:104A0000064212FA83F391F8502133F83290C9F339
:104A10000909B9F1000F40F0D0814FF000097B196E
:104A200004EBC303D3F86C214A44C3F86C21D3F8D8
:104A300064214A44C3F86421D3F8682122B1D3F831
:104A400060314B4540F29B812F4404EBC707204661
:104A500097F85011FFF7CCFC206854E703889BB20D
:104A600003EA0B0343F400430380B0F8503010FA1C
:104A700083F2207C40F2024303EBC0032046D35A6A
:104A8000626AC3F309031A44E3626262FFF7BAFC85
:104A9000637B63B3A36A2068002B7FF423AF627B40
:104AA00042F08002A0F84C2063731BE7B0F850205E
:104AB00094F8501140F2064310FA82F203EBC1035E
:104AC00004F52671D35AB4F85621C3F30903C4F888
:104AD0006C3101F059FB2268138823F070031B0529
:104AE0001B0D43F0800313802046FFF77BFC2068FA
:104AF000F8E691F8533191F85021022B00F00B8227
:104B000012B230F8223023F4E04323F070031B0488
:104B10001B0C43F4004343F0C00320F8223091F80B
:104B200050311AB230F8222012F4804FB0F85020E1
:104B300000F02F8100F2024C1CFA82F232F833901E
:104B4000C9F30909B9F1000F3FF467AFB1F8582173
:104B5000D1F864114B4601F017FB60E72268B2F808
:104B6000443023F480631B041B0CA2F8443020461D
:104B7000FFF756FC94F89032012B3FF49BAE0123D3
:104B8000206884F890326573294601F0CBFA84F8E6
:104B9000905203B0BDE8F08F028840F68F73134047
:104BA00043F080030380B0F8502094F8501140F295
:104BB000064310FA82F203EBC103D35AC3F309038D
:104BC000C4F86C3193B1D4F8641179B1B4F85621BA
:104BD00001F0DAFAD4F86431D4F86C211344204699
:104BE0002946C4F86431FFF703FC206803881D05DB
:104BF0009AB23FF577AE02F44052B2F5405F3FF40F
:104C000071AE038823F4804323F070031B041B0C54
:104C100083F4405343F4004343F08003038061E690
:104C20002268B2F8443023F400531B041B0CA2F892
:104C3000443003B0BDE8F08F6B1C03EB830300210D
:104C400044F83310137FC3B116F04006537C40F094
:104C50000F81002B40F05982137CB0F8502000EBFC
:104C6000C30303F2064392B2995AC1F30901995260
:104C7000995A89B241F4004199523D4404EBC5056B
:104C80002046297CFFF7BEFB20682BE6CCF828A045
:104C90002046FFF7B7FB2AE706F4804316F04006EC
:104CA000019340F09280B0F85020009B00F2064A39
:104CB0001AFA82F232F83890C9F30909994540F29C
:104CC000A581CCF828607B1904EBC3035B7C002B27
:104CD00040F0A382B0F850200EF2024692B2064491
:104CE000B35AC3F30903B352B35A6FEA43436FEAAB
:104CF00053439BB2B352B0F850201AFA82F232F802
:104D00003830C3F3090322F8383032F838306FEA0C
:104D100043436FEA53439BB222F838307B1904EBCC
:104D2000C303DB7C022B0FD130F8283023F4E0439F
:104D300023F040031B041B0C83F0200343F40043C7
:104D400043F0800320F828302046FFF75BFB019BEF
:104D5000002B7FF4CCAE7B1904EBC30320681A7CD4
:104D600030F8223023F4E04323F070031B041B0CC3
:104D700043F4404343F0800320F82230B2E5282179
:104D800001FB0541206801F5A87100F0ADFF206826
:104D9000B9E500F2064C1CFA82F232F83390C9F3FE
:104DA0000909B9F1000F3FF438AEB1F85A21D1F832
:104DB00064114B4601F0E8F931E6B1F85621D1F81B
:104DC00064114B4601F0E0F929E6B0F85060009B11
:104DD00000F2024A1AFA86F636F83890C9F3090941
:104DE0009945C0F0E2800026CCF82860537C002B67
:104DF00040F02582B0F850301AFA83F30EF20642E2
:104E000033F83860C6F3090623F8386033F83860A1
:104E1000B6B246F4004623F83860B0F85030024489
:104E20009BB2D65AC6F30906D652D65AB6B246F443
:104E30000046D6527B1904EBC303DB7C022B0FD157
:104E400030F8283023F4E04323F040031B041B0C0C
:104E500083F0200343F4004343F0800320F828301C
:104E60002046FFF7CFFA019B002B7FF474AF3EE69C
:104E7000002B40F03D81137CB0F8502000EBC303C1
:104E800003F20243EFE62268B2F8443023F08003D5
:104E90001B041B0CA2F8443094F8C832002B40F0DD
:104EA0000E81B2F840309BB243F00403A2F84030C8
:104EB000B2F840309BB2012143F00803A2F8403021
:104EC00084F8C812B2F85430C3F38D0303F03C03E6
:104ED0002046C4F8CC3203B0BDE8F04F00F0D0BBA0
:104EE0002268B2F840309BB243F00803A2F8403089
:104EF000B2F8443023F400631B041B0CA2F84430C6
:104F0000B2F840309BB243F004032046A2F8403090
:104F1000FFF798FACEE4B0F850E0D1F868310FFA14
:104F200082FC10FA8EFED20016F4804A724400F021
:104F3000F980B2F802E4CEF3090E9E45F14600F284
:104F40006581A3EB0E03C1F868317BB930F82C20E2
:104F500022F4804222F070021204120C82F40052F9
:104F600042F4004242F0800220F82C2072060DD557
:104F700030F82C3023F4E04323F070031B041B0CA7
:104F800043F4004343F0C00320F82C30BEF1000F7F
:104F90003FF445AD791904EBC1017346B1F85821CE
:104FA000D1F8641101F0F0F839E5A3EB0903CCF86E
:104FB0002830019B6BB130F8283023F4E04323F014
:104FC00070031B041B0C43F4404343F0800320F8A0
:104FD00028307B1904EBC30393F83420012A00F036
:104FE000DC803D4404EBC5052A7C30F8223023F4F4
:104FF000E04323F040031B041B0C83F0300343F415
:10500000004343F0800320F822306BE4A3EB090354
:10501000CCF82830002B3FF456AE019B6BB930F82A
:10502000283023F4E04323F070031B041B0C43F4EB
:10503000404343F0800320F828307B1904EBC3037E
:1050400093F83420012ACCD15A6A02EB0901596243
:10505000DCF82C604E44CCF82C601E6B1A6A964229
:10506000C0F00981B61A1E631FFA82F97B1904EB9E
:10507000C30393F811C0BCF1000F40F0F180B0F809
:1050800050301AFA83F39E4433F83860C6F30906A9
:1050900023F83860002A40F0198133F838206FEA8D
:1050A00042426FEA524292B223F838207A1904EB56
:1050B000C2024B46528B01F057F8206891E7204618
:1050C000FFF7C0F9FFF7F6BB2268B2F8443023F4CB
:1050D00000731B041B0C2046A2F84430FFF79CF918
:1050E000FFF7E8BB84F8C812204600F0C9FA64E470
:1050F000012B7FF4C2AD137CB0F8502000EBC3034A
:1051000003F2024392B29952B7E5012B7FF4B5AD99
:10511000137CB0F8502000EBC30303F2064392B2B5
:105120009E52AAE5B2F806E4CEF3090E9E45F1467A
:1051300070D8A3EB0E03C1F868317BB930F82C208E
:1051400022F4804222F070021204120C82F4005207
:1051500042F4004242F0800220F82C2073060DD465
:1051600030F82C3023F4E04323F070031B041B0CB5
:1051700043F4004343F0C00320F82C30BEF1000F8D
:105180003FF44DAC791904EBC1017346B1F85A21D3
:10519000D1F8641100F0F8FF41E45A6A02EB09010A
:1051A0005962DCF82C604E44CCF82C601E6B1A6AF5
:1051B00096426FD3B61A1E631FFA82F97B1904EB6D
:1051C000C30393F811C0BCF1000F59D1B0F85030AF
:1051D0001AFA83F39E4433F83860C6F3090623F8BD
:1051E0003860002A40F0988033F838206FEA424255
:1051F0006FEA524292B223F838207A1904EBC202C5
:105200004B46128B00F0B0FF2068EAE60023C1F89D
:1052100068319BE6C1F868A190E7012B7FF47EAD71
:10522000B0F850300EF202429BB202440026D65231
:10523000B0F850301AFA83F323F838606EE5012B8A
:105240007FF4F8ADB0F850301AFA83F30EF206424C
:1052500023F83860B0F8503002449BB2D652E9E5EA
:10526000BCF1010F7FF422AFB0F850301AFA83F38B
:1052700023F838901AE796B983F834604A46F5E681
:10528000BCF1010FB9D1B0F850301AFA83F323F80A
:105290003890B2E74EBB83F834604A468EE793F805
:1052A00011C000221A6383F834201FFA86F9BCF17A
:1052B000000FD5D1B0F850301AFA83F3324633F8E4
:1052C0003860C6F3090623F838609E443E2A32D877
:1052D000BEF800305608D20748BF01369BB243EAF9
:1052E00086239BB2AEF80030E0E693F811C00022AE
:1052F00083F834201A631FFA86F9BCF1000FBFD17E
:10530000B0F850301AFA83F3324633F83860C6F3F7
:10531000090623F838609E443E2A1FD8BEF80030A4
:105320005608D20748BF01369BB243EA86239BB298
:10533000AEF8003061E7D306BEF800304FEA5216EF
:1053400008BF06F1FF369BB243EA86236FEA434368
:105350006FEA53439BB2AEF80030A7E6D306BEF81F
:1053600000304FEA521608BF06F1FF369BB243EAFF
:1053700086236FEA43436FEA53439BB2AEF8003093
:105380003BE700BF0F8FFFFF90F89022012A0CD05F
:1053900010B504460122006884F89022617300F081
:1053A000C1FE002084F8900210BD0220704700BFAB
:1053B00010B501F0070E0EEB8E0C090604464FEAFD
:1053C000CC0C22D40CF5A87101440EEB8E0004EB3A
:1053D000C0004FF0000C80F851C1022BCB70C2F31B
:1053E0000A0204BF00230B7181F800E00A6194F8FF
:1053F0009032012B15D00123206884F8903200F000
:1054000075F9002084F8900210BD0CF110010144E0
:105410000EEB8E0004EBC0004FF0010C80F811C0C1
:10542000DBE7022010BD00BF01F0070301F0070217
:1054300010B503EB83030446090602EB82004FEA32
:10544000C30304EBC00015D403F5A873E1184FF0B3
:10545000000C80F851C10A7094F89032012B14D0DE
:105460000123206884F8903200F058FB002084F873
:10547000900210BD1033E1184FF0010C80F811C0FC
:105480000A7094F89032012BEAD1022010BD00BFBF
:1054900010B501F0070E0EEB8E0C00EBCC0C2821A2
:1054A000002401FB0E01CCF8642100688CF850E167
:1054B000CCE95A348CF8514101F5A87100F014FC84
:1054C000204610BD01F0070101EB810100EBC10096
:1054D000D0F86C01704700BF10B501F0070E0EEB5D
:1054E0008E0100EBC10C6146CCF82830CCF830308E
:1054F000002401230068CCF8242010318CF83430CB
:10550000CCF82C408CF811308CF810E000F0ECFB5B
:10551000204610BD38B5037901F00705AB4232D300
:105520000B0604461CD401EB8103282202FB010177
:1055300000EBC30301F5A871002283F85121012378
:105540008B700D7094F890229A421AD0206884F8DB
:10555000903200F071FDC5B1002084F8900238BD92
:1055600005EB8503282101FB050100EBC3030122A4
:1055700010315A7401238B700D7094F890229A4266
:10558000E4D1022038BD012038BD206804F5267121
:1055900000F0E8FDE0E700BF38B5027901F00F0345
:1055A0009A4232D301F0070301F00702044603EBED
:1055B000830302EB820009064FEAC30304EBC00039
:1055C00016D403F5A873E118002580F85151002581
:1055D0008D700A7094F89032012B14D0012320684A
:1055E00084F8903200F050FD84F89052284638BD7F
:1055F0001033E1180125457400258D700A7094F868
:105600009032012BEAD1022038BD012038BD00BF05
:1056100011F0800F0CD001F0070101EB810100EBCC
:10562000C100103099B262B9C18002730020704786
:1056300001EB810100EBC10000F5A87099B2002ACE
:10564000F2D00122836002730020704702460020DE
:10565000116810B482F8C802B1F8543001249BB22A
:105660002343C2F8D442A1F85430B1F854305DF865
:10567000044B9BB243F00203A1F85430704700BFC3
:10568000704700BF84B004A800E90E00002004B0F9
:10569000704700BF03464BF680720020A3F8440019
:1056A000A3F84020704700BFB0F84010034644F212
:1056B0007F020A400020A3F8402070470020704776
:1056C00000B5844685B04FF0010EACF840E00020F4
:1056D0000DF1100E0EE90E00ACF84000ACF84400DD
:1056E000ACF8500005B05DF804FB00BF70B50C7855
:1056F00091F803E00FFA84FC034630F82C2022F4E2
:10570000EC4222F070021204120CBEF1030F00F200
:10571000EC81DFE80EF06C6F4F0242F4C06248F299
:105720008000024323F82C2033F82C2022F4E0429E
:1057300022F070021204120C2243104323F82C00B2
:105740000A7B002A62D10020CA884E785208520093
:1057500003EBC405002E00F02E81B3F8501015FAAB
:1057600081F1A1F8002433F82C2052060DD533F82E
:105770002C2022F4E04222F070021204120C42F4B7
:10578000004242F0C00223F82C2033F82C2022F4EF
:10579000E04222F040021204BEF1010F4FEA124231
:1057A0002DD082F0200242F4004242F0800223F821
:1057B0002C2070BD48F28000024323F82C2033F8DF
:1057C0002C20D54D92B22A402243104323F82C00BE
:1057D0000A7B002AB7D033F82C2092B22A4042F438
:1057E000014242F0800223F82C2000201DE042F408
:1057F000007294E742F4806291E782F4005242F42E
:10580000004242F0800223F82C2070BD002033F8C3
:105810002C2022F4E24222F070021204120C42F414
:10582000004242F0800223F82C20B3F850500A893D
:1058300003EBC40414FA85F552085200A5F80024BD
:10584000B3F850504A8914FA85F552085200A5F869
:1058500004244A78002A68D133F82C2055040DD549
:1058600033F82C2022F4E04222F070021204120CD1
:1058700042F4404242F0800223F82C2033F82C20DE
:1058800052060DD533F82C2022F4E04222F07002AB
:105890001204120C42F4004242F0C00223F82C2001
:1058A000B3F850200D6914FA82F204F20644B2F8FB
:1058B0000214C1F30901A2F80214002D00F0CB80FC
:1058C0003E2D00F2F3806908EE0748BF01318D02DA
:1058D000B2F80214ADB289B22943A2F80214B3F8A7
:1058E000502092B2115BC1F309011153115B89B2CF
:1058F0000D43155333F82C2022F4804222F070021D
:105900001204120C48F2800182F440520A4323F838
:105910002C2033F82C2022F4E04222F04002120422
:10592000120C114323F82C1070BD33F82C205104B5
:105930000DD533F82C2022F4E04222F0700212043C
:10594000120C42F4404242F0800223F82C2033F83B
:105950002C2052060DD533F82C2022F4E04222F000
:1059600070021204120C42F4004242F0C00223F80A
:105970002C2033F82C2022F4E04222F040021204C2
:10598000120CBEF1010F18BF82F0200242F4004257
:1059900042F0800223F82C2033F82C2022F480429D
:1059A00022F070021204120C42F4004242F0800213
:1059B00023F82C2070BD0E69B3F8501015FA81F150
:1059C000A1F80424B3F8502015FA82F2B2F80614B4
:1059D000C1F30901A2F806149EB33E2E53D8B2F8C3
:1059E00006147508F60748BF013589B241EA8521DA
:1059F00089B2A2F8061433F82C2056040DD533F8DA
:105A00002C2022F4E04222F070021204120C42F424
:105A1000404242F0800223F82C2033F82C2022F45C
:105A2000804222F070021204120C002C7FF4E5AECA
:105A300082F4405242F4004242F0800223F82C20CB
:105A400070BDB2F806146FEA41416FEA514189B264
:105A5000A2F80614CFE7B2F802146FEA41416FEAE8
:105A6000514189B2A2F80214B3F8501089B20A5B0E
:105A7000C2F309020A530A5B6FEA42426FEA5242DA
:105A800092B20A5336E7F106B2F806144FEA5615F9
:105A900008BF05F1FF3589B241EA85216FEA41412E
:105AA0006FEA514189B2A2F80614A4E76909ED062C
:105AB00008BF01F1FF31B2F80254890289B2ADB2D8
:105AC0000D4345F40045A2F80254B3F85050ADB26E
:105AD0002A5BC2F309022A532A5B0A436FEA424255
